{
	"contract/contracts/4_random.sol": {
		"VRFD20": {
			"abi": [
				{
					"inputs": [],
					"stateMutability": "nonpayable",
					"type": "constructor"
				},
				{
					"inputs": [
						{
							"internalType": "address",
							"name": "have",
							"type": "address"
						},
						{
							"internalType": "address",
							"name": "want",
							"type": "address"
						}
					],
					"name": "OnlyCoordinatorCanFulfill",
					"type": "error"
				},
				{
					"inputs": [
						{
							"internalType": "address",
							"name": "have",
							"type": "address"
						},
						{
							"internalType": "address",
							"name": "owner",
							"type": "address"
						},
						{
							"internalType": "address",
							"name": "coordinator",
							"type": "address"
						}
					],
					"name": "OnlyOwnerOrCoordinator",
					"type": "error"
				},
				{
					"inputs": [],
					"name": "ZeroAddress",
					"type": "error"
				},
				{
					"anonymous": false,
					"inputs": [
						{
							"indexed": false,
							"internalType": "address",
							"name": "vrfCoordinator",
							"type": "address"
						}
					],
					"name": "CoordinatorSet",
					"type": "event"
				},
				{
					"anonymous": false,
					"inputs": [
						{
							"indexed": true,
							"internalType": "uint256",
							"name": "requestId",
							"type": "uint256"
						},
						{
							"indexed": true,
							"internalType": "uint256",
							"name": "result",
							"type": "uint256"
						}
					],
					"name": "DiceLanded",
					"type": "event"
				},
				{
					"anonymous": false,
					"inputs": [
						{
							"indexed": true,
							"internalType": "uint256",
							"name": "requestId",
							"type": "uint256"
						},
						{
							"indexed": true,
							"internalType": "address",
							"name": "roller",
							"type": "address"
						}
					],
					"name": "DiceRolled",
					"type": "event"
				},
				{
					"anonymous": false,
					"inputs": [
						{
							"indexed": true,
							"internalType": "address",
							"name": "from",
							"type": "address"
						},
						{
							"indexed": true,
							"internalType": "address",
							"name": "to",
							"type": "address"
						}
					],
					"name": "OwnershipTransferRequested",
					"type": "event"
				},
				{
					"anonymous": false,
					"inputs": [
						{
							"indexed": true,
							"internalType": "address",
							"name": "from",
							"type": "address"
						},
						{
							"indexed": true,
							"internalType": "address",
							"name": "to",
							"type": "address"
						}
					],
					"name": "OwnershipTransferred",
					"type": "event"
				},
				{
					"anonymous": false,
					"inputs": [
						{
							"indexed": true,
							"internalType": "uint256",
							"name": "randomNumber",
							"type": "uint256"
						}
					],
					"name": "RandomNumberGenerated",
					"type": "event"
				},
				{
					"inputs": [],
					"name": "acceptOwnership",
					"outputs": [],
					"stateMutability": "nonpayable",
					"type": "function"
				},
				{
					"inputs": [],
					"name": "callbackGasLimit",
					"outputs": [
						{
							"internalType": "uint32",
							"name": "",
							"type": "uint32"
						}
					],
					"stateMutability": "view",
					"type": "function"
				},
				{
					"inputs": [
						{
							"internalType": "address",
							"name": "player",
							"type": "address"
						}
					],
					"name": "house",
					"outputs": [
						{
							"internalType": "string",
							"name": "",
							"type": "string"
						}
					],
					"stateMutability": "view",
					"type": "function"
				},
				{
					"inputs": [],
					"name": "length",
					"outputs": [
						{
							"internalType": "uint256",
							"name": "",
							"type": "uint256"
						}
					],
					"stateMutability": "view",
					"type": "function"
				},
				{
					"inputs": [],
					"name": "numWords",
					"outputs": [
						{
							"internalType": "uint32",
							"name": "",
							"type": "uint32"
						}
					],
					"stateMutability": "view",
					"type": "function"
				},
				{
					"inputs": [],
					"name": "owner",
					"outputs": [
						{
							"internalType": "address",
							"name": "",
							"type": "address"
						}
					],
					"stateMutability": "view",
					"type": "function"
				},
				{
					"inputs": [],
					"name": "random_num",
					"outputs": [
						{
							"internalType": "uint256",
							"name": "",
							"type": "uint256"
						}
					],
					"stateMutability": "view",
					"type": "function"
				},
				{
					"inputs": [
						{
							"internalType": "uint256",
							"name": "requestId",
							"type": "uint256"
						},
						{
							"internalType": "uint256[]",
							"name": "randomWords",
							"type": "uint256[]"
						}
					],
					"name": "rawFulfillRandomWords",
					"outputs": [],
					"stateMutability": "nonpayable",
					"type": "function"
				},
				{
					"inputs": [],
					"name": "requestConfirmations",
					"outputs": [
						{
							"internalType": "uint16",
							"name": "",
							"type": "uint16"
						}
					],
					"stateMutability": "view",
					"type": "function"
				},
				{
					"inputs": [
						{
							"internalType": "address",
							"name": "roller",
							"type": "address"
						}
					],
					"name": "rollDice",
					"outputs": [
						{
							"internalType": "uint256",
							"name": "requestId",
							"type": "uint256"
						}
					],
					"stateMutability": "nonpayable",
					"type": "function"
				},
				{
					"inputs": [],
					"name": "s_keyHash",
					"outputs": [
						{
							"internalType": "bytes32",
							"name": "",
							"type": "bytes32"
						}
					],
					"stateMutability": "view",
					"type": "function"
				},
				{
					"inputs": [],
					"name": "s_subscriptionId",
					"outputs": [
						{
							"internalType": "uint256",
							"name": "",
							"type": "uint256"
						}
					],
					"stateMutability": "view",
					"type": "function"
				},
				{
					"inputs": [],
					"name": "s_vrfCoordinator",
					"outputs": [
						{
							"internalType": "contract IVRFCoordinatorV2Plus",
							"name": "",
							"type": "address"
						}
					],
					"stateMutability": "view",
					"type": "function"
				},
				{
					"inputs": [
						{
							"internalType": "address",
							"name": "_vrfCoordinator",
							"type": "address"
						}
					],
					"name": "setCoordinator",
					"outputs": [],
					"stateMutability": "nonpayable",
					"type": "function"
				},
				{
					"inputs": [
						{
							"internalType": "address",
							"name": "to",
							"type": "address"
						}
					],
					"name": "transferOwnership",
					"outputs": [],
					"stateMutability": "nonpayable",
					"type": "function"
				},
				{
					"inputs": [],
					"name": "vrfCoordinator",
					"outputs": [
						{
							"internalType": "address",
							"name": "",
							"type": "address"
						}
					],
					"stateMutability": "view",
					"type": "function"
				}
			],
			"devdoc": {
				"kind": "dev",
				"methods": {
					"house(address)": {
						"params": {
							"player": "address"
						},
						"returns": {
							"_0": "house as a string"
						}
					},
					"rollDice(address)": {
						"details": "Warning: if the VRF response is delayed, avoid calling requestRandomness repeatedly as that would give miners/VRF operators latitude about which VRF response arrives first.You must review your implementation details with extreme care.",
						"params": {
							"roller": "address of the roller"
						}
					}
				},
				"version": 1
			},
			"evm": {
				"assembly": "    /* \"contract/contracts/4_random.sol\":800:6743  contract VRFD20 is VRFConsumerBaseV2Plus {... */\n  mstore(0x40, 0x80)\n    /* \"contract/contracts/4_random.sol\":1274:1316  0x9DdfaCa8183c41ad55329BdeeD9F6A8d53168B1B */\n  0x9ddfaca8183c41ad55329bdeed9f6a8d53168b1b\n    /* \"contract/contracts/4_random.sol\":1242:1316  address public vrfCoordinator = 0x9DdfaCa8183c41ad55329BdeeD9F6A8d53168B1B */\n  0x04\n  exp(0x0100, 0x00)\n  dup2\n  sload\n  dup2\n  0xffffffffffffffffffffffffffffffffffffffff\n  mul\n  not\n  and\n  swap1\n  dup4\n  0xffffffffffffffffffffffffffffffffffffffff\n  and\n  mul\n  or\n  swap1\n  sstore\n  pop\n    /* \"contract/contracts/4_random.sol\":1578:1644  0x787d74caea10b2b357790d5b5247c2f63d1d91572a9846f780606e4d953677ae */\n  0x787d74caea10b2b357790d5b5247c2f63d1d91572a9846f780606e4d953677ae\n    /* \"contract/contracts/4_random.sol\":1542:1644  bytes32 public s_keyHash =... */\n  0x00\n  shl\n  0x05\n  sstore\n    /* \"contract/contracts/4_random.sol\":2101:2106  40000 */\n  0x9c40\n    /* \"contract/contracts/4_random.sol\":2068:2106  uint32 public callbackGasLimit = 40000 */\n  0x06\n  exp(0x0100, 0x00)\n  dup2\n  sload\n  dup2\n  0xffffffff\n  mul\n  not\n  and\n  swap1\n  dup4\n  0xffffffff\n  and\n  mul\n  or\n  swap1\n  sstore\n  pop\n    /* \"contract/contracts/4_random.sol\":2207:2208  3 */\n  0x03\n    /* \"contract/contracts/4_random.sol\":2170:2208  uint16 public requestConfirmations = 3 */\n  0x06\n  exp(0x0100, 0x04)\n  dup2\n  sload\n  dup2\n  0xffff\n  mul\n  not\n  and\n  swap1\n  dup4\n  0xffff\n  and\n  mul\n  or\n  swap1\n  sstore\n  pop\n    /* \"contract/contracts/4_random.sol\":2364:2365  1 */\n  0x01\n    /* \"contract/contracts/4_random.sol\":2339:2365  uint32 public numWords = 1 */\n  0x06\n  dup1\n  0x0100\n  exp\n  dup2\n  sload\n  dup2\n  0xffffffff\n  mul\n  not\n  and\n  swap1\n  dup4\n  0xffffffff\n  and\n  mul\n  or\n  swap1\n  sstore\n  pop\n    /* \"contract/contracts/4_random.sol\":2398:2401  100 */\n  0x64\n    /* \"contract/contracts/4_random.sol\":2374:2401  uint256 public length = 100 */\n  0x07\n  sstore\n    /* \"contract/contracts/4_random.sol\":2436:2437  0 */\n  0x00\n    /* \"contract/contracts/4_random.sol\":2408:2437  uint256 public random_num = 0 */\n  0x08\n  sstore\n    /* \"contract/contracts/4_random.sol\":2835:2940  constructor() VRFConsumerBaseV2Plus(vrfCoordinator) {... */\n  callvalue\n  dup1\n  iszero\n  tag_1\n  jumpi\n  0x00\n  dup1\n  revert\ntag_1:\n  pop\n    /* \"contract/contracts/4_random.sol\":2871:2885  vrfCoordinator */\n  0x04\n  0x00\n  swap1\n  sload\n  swap1\n  0x0100\n  exp\n  swap1\n  div\n  0xffffffffffffffffffffffffffffffffffffffff\n  and\n    /* \"@chainlink/contracts@1.1.1/src/v0.8/vrf/dev/VRFConsumerBaseV2Plus.sol\":6254:6264  msg.sender */\n  caller\n    /* \"@chainlink/contracts@1.1.1/src/v0.8/shared/access/ConfirmedOwner.sol\":355:363  newOwner */\n  dup1\n    /* \"@chainlink/contracts@1.1.1/src/v0.8/shared/access/ConfirmedOwner.sol\":373:374  0 */\n  0x00\n    /* \"@chainlink/contracts@1.1.1/src/v0.8/shared/access/ConfirmedOwnerWithProposal.sol\":618:619  0 */\n  dup1\n    /* \"@chainlink/contracts@1.1.1/src/v0.8/shared/access/ConfirmedOwnerWithProposal.sol\":598:620  newOwner != address(0) */\n  0xffffffffffffffffffffffffffffffffffffffff\n  and\n    /* \"@chainlink/contracts@1.1.1/src/v0.8/shared/access/ConfirmedOwnerWithProposal.sol\":598:606  newOwner */\n  dup3\n    /* \"@chainlink/contracts@1.1.1/src/v0.8/shared/access/ConfirmedOwnerWithProposal.sol\":598:620  newOwner != address(0) */\n  0xffffffffffffffffffffffffffffffffffffffff\n  and\n  sub\n    /* \"@chainlink/contracts@1.1.1/src/v0.8/shared/access/ConfirmedOwnerWithProposal.sol\":590:649  require(newOwner != address(0), \"Cannot set owner to zero\") */\n  tag_7\n  jumpi\n  mload(0x40)\n  0x08c379a000000000000000000000000000000000000000000000000000000000\n  dup2\n  mstore\n  0x04\n  add\n  tag_8\n  swap1\n  tag_9\n  jump\t// in\ntag_8:\n  mload(0x40)\n  dup1\n  swap2\n  sub\n  swap1\n  revert\ntag_7:\n    /* \"@chainlink/contracts@1.1.1/src/v0.8/shared/access/ConfirmedOwnerWithProposal.sol\":666:674  newOwner */\n  dup2\n    /* \"@chainlink/contracts@1.1.1/src/v0.8/shared/access/ConfirmedOwnerWithProposal.sol\":656:663  s_owner */\n  0x00\n  dup1\n    /* \"@chainlink/contracts@1.1.1/src/v0.8/shared/access/ConfirmedOwnerWithProposal.sol\":656:674  s_owner = newOwner */\n  0x0100\n  exp\n  dup2\n  sload\n  dup2\n  0xffffffffffffffffffffffffffffffffffffffff\n  mul\n  not\n  and\n  swap1\n  dup4\n  0xffffffffffffffffffffffffffffffffffffffff\n  and\n  mul\n  or\n  swap1\n  sstore\n  pop\n    /* \"@chainlink/contracts@1.1.1/src/v0.8/shared/access/ConfirmedOwnerWithProposal.sol\":708:709  0 */\n  0x00\n    /* \"@chainlink/contracts@1.1.1/src/v0.8/shared/access/ConfirmedOwnerWithProposal.sol\":684:710  pendingOwner != address(0) */\n  0xffffffffffffffffffffffffffffffffffffffff\n  and\n    /* \"@chainlink/contracts@1.1.1/src/v0.8/shared/access/ConfirmedOwnerWithProposal.sol\":684:696  pendingOwner */\n  dup2\n    /* \"@chainlink/contracts@1.1.1/src/v0.8/shared/access/ConfirmedOwnerWithProposal.sol\":684:710  pendingOwner != address(0) */\n  0xffffffffffffffffffffffffffffffffffffffff\n  and\n  eq\n    /* \"@chainlink/contracts@1.1.1/src/v0.8/shared/access/ConfirmedOwnerWithProposal.sol\":680:759  if (pendingOwner != address(0)) {... */\n  tag_10\n  jumpi\n    /* \"@chainlink/contracts@1.1.1/src/v0.8/shared/access/ConfirmedOwnerWithProposal.sol\":720:752  _transferOwnership(pendingOwner) */\n  tag_11\n    /* \"@chainlink/contracts@1.1.1/src/v0.8/shared/access/ConfirmedOwnerWithProposal.sol\":739:751  pendingOwner */\n  dup2\n    /* \"@chainlink/contracts@1.1.1/src/v0.8/shared/access/ConfirmedOwnerWithProposal.sol\":720:738  _transferOwnership */\n  shl(0x20, tag_12)\n    /* \"@chainlink/contracts@1.1.1/src/v0.8/shared/access/ConfirmedOwnerWithProposal.sol\":720:752  _transferOwnership(pendingOwner) */\n  0x20\n  shr\n  jump\t// in\ntag_11:\n    /* \"@chainlink/contracts@1.1.1/src/v0.8/shared/access/ConfirmedOwnerWithProposal.sol\":680:759  if (pendingOwner != address(0)) {... */\ntag_10:\n    /* \"@chainlink/contracts@1.1.1/src/v0.8/shared/access/ConfirmedOwnerWithProposal.sol\":481:763  constructor(address newOwner, address pendingOwner) {... */\n  pop\n  pop\n    /* \"@chainlink/contracts@1.1.1/src/v0.8/shared/access/ConfirmedOwner.sol\":298:379  constructor(address newOwner) ConfirmedOwnerWithProposal(newOwner, address(0)) {} */\n  pop\n    /* \"@chainlink/contracts@1.1.1/src/v0.8/vrf/dev/VRFConsumerBaseV2Plus.sol\":6303:6304  0 */\n  0x00\n    /* \"@chainlink/contracts@1.1.1/src/v0.8/vrf/dev/VRFConsumerBaseV2Plus.sol\":6276:6305  _vrfCoordinator == address(0) */\n  0xffffffffffffffffffffffffffffffffffffffff\n  and\n    /* \"@chainlink/contracts@1.1.1/src/v0.8/vrf/dev/VRFConsumerBaseV2Plus.sol\":6276:6291  _vrfCoordinator */\n  dup2\n    /* \"@chainlink/contracts@1.1.1/src/v0.8/vrf/dev/VRFConsumerBaseV2Plus.sol\":6276:6305  _vrfCoordinator == address(0) */\n  0xffffffffffffffffffffffffffffffffffffffff\n  and\n  sub\n    /* \"@chainlink/contracts@1.1.1/src/v0.8/vrf/dev/VRFConsumerBaseV2Plus.sol\":6272:6342  if (_vrfCoordinator == address(0)) {... */\n  tag_15\n  jumpi\n    /* \"@chainlink/contracts@1.1.1/src/v0.8/vrf/dev/VRFConsumerBaseV2Plus.sol\":6322:6335  ZeroAddress() */\n  mload(0x40)\n  0xd92e233d00000000000000000000000000000000000000000000000000000000\n  dup2\n  mstore\n  0x04\n  add\n  mload(0x40)\n  dup1\n  swap2\n  sub\n  swap1\n  revert\n    /* \"@chainlink/contracts@1.1.1/src/v0.8/vrf/dev/VRFConsumerBaseV2Plus.sol\":6272:6342  if (_vrfCoordinator == address(0)) {... */\ntag_15:\n    /* \"@chainlink/contracts@1.1.1/src/v0.8/vrf/dev/VRFConsumerBaseV2Plus.sol\":6388:6403  _vrfCoordinator */\n  dup1\n    /* \"@chainlink/contracts@1.1.1/src/v0.8/vrf/dev/VRFConsumerBaseV2Plus.sol\":6347:6363  s_vrfCoordinator */\n  0x02\n  0x00\n    /* \"@chainlink/contracts@1.1.1/src/v0.8/vrf/dev/VRFConsumerBaseV2Plus.sol\":6347:6404  s_vrfCoordinator = IVRFCoordinatorV2Plus(_vrfCoordinator) */\n  0x0100\n  exp\n  dup2\n  sload\n  dup2\n  0xffffffffffffffffffffffffffffffffffffffff\n  mul\n  not\n  and\n  swap1\n  dup4\n  0xffffffffffffffffffffffffffffffffffffffff\n  and\n  mul\n  or\n  swap1\n  sstore\n  pop\n    /* \"@chainlink/contracts@1.1.1/src/v0.8/vrf/dev/VRFConsumerBaseV2Plus.sol\":6202:6409  constructor(address _vrfCoordinator) ConfirmedOwner(msg.sender) {... */\n  pop\n    /* \"contract/contracts/4_random.sol\":946:1023  77784756389855806114036560113575506838375644377711949283551480146383584215388 */\n  0xabf89ca84f4c56b7dce7f4462f7380c00ec1dfcc7b4d60d21ab591a059d5c15c\n    /* \"contract/contracts/4_random.sol\":2898:2914  s_subscriptionId */\n  0x03\n    /* \"contract/contracts/4_random.sol\":2898:2932  s_subscriptionId = SUBSCRIPTION_ID */\n  dup2\n  swap1\n  sstore\n  pop\n    /* \"contract/contracts/4_random.sol\":800:6743  contract VRFD20 is VRFConsumerBaseV2Plus {... */\n  jump(tag_17)\n    /* \"@chainlink/contracts@1.1.1/src/v0.8/shared/access/ConfirmedOwnerWithProposal.sol\":1536:1775  function _transferOwnership(address to) private {... */\ntag_12:\n    /* \"@chainlink/contracts@1.1.1/src/v0.8/shared/access/ConfirmedOwnerWithProposal.sol\":1655:1665  msg.sender */\n  caller\n    /* \"@chainlink/contracts@1.1.1/src/v0.8/shared/access/ConfirmedOwnerWithProposal.sol\":1649:1665  to != msg.sender */\n  0xffffffffffffffffffffffffffffffffffffffff\n  and\n    /* \"@chainlink/contracts@1.1.1/src/v0.8/shared/access/ConfirmedOwnerWithProposal.sol\":1649:1651  to */\n  dup2\n    /* \"@chainlink/contracts@1.1.1/src/v0.8/shared/access/ConfirmedOwnerWithProposal.sol\":1649:1665  to != msg.sender */\n  0xffffffffffffffffffffffffffffffffffffffff\n  and\n  sub\n    /* \"@chainlink/contracts@1.1.1/src/v0.8/shared/access/ConfirmedOwnerWithProposal.sol\":1641:1693  require(to != msg.sender, \"Cannot transfer to self\") */\n  tag_19\n  jumpi\n  mload(0x40)\n  0x08c379a000000000000000000000000000000000000000000000000000000000\n  dup2\n  mstore\n  0x04\n  add\n  tag_20\n  swap1\n  tag_21\n  jump\t// in\ntag_20:\n  mload(0x40)\n  dup1\n  swap2\n  sub\n  swap1\n  revert\ntag_19:\n    /* \"@chainlink/contracts@1.1.1/src/v0.8/shared/access/ConfirmedOwnerWithProposal.sol\":1717:1719  to */\n  dup1\n    /* \"@chainlink/contracts@1.1.1/src/v0.8/shared/access/ConfirmedOwnerWithProposal.sol\":1700:1714  s_pendingOwner */\n  0x01\n  0x00\n    /* \"@chainlink/contracts@1.1.1/src/v0.8/shared/access/ConfirmedOwnerWithProposal.sol\":1700:1719  s_pendingOwner = to */\n  0x0100\n  exp\n  dup2\n  sload\n  dup2\n  0xffffffffffffffffffffffffffffffffffffffff\n  mul\n  not\n  and\n  swap1\n  dup4\n  0xffffffffffffffffffffffffffffffffffffffff\n  and\n  mul\n  or\n  swap1\n  sstore\n  pop\n    /* \"@chainlink/contracts@1.1.1/src/v0.8/shared/access/ConfirmedOwnerWithProposal.sol\":1767:1769  to */\n  dup1\n    /* \"@chainlink/contracts@1.1.1/src/v0.8/shared/access/ConfirmedOwnerWithProposal.sol\":1731:1770  OwnershipTransferRequested(s_owner, to) */\n  0xffffffffffffffffffffffffffffffffffffffff\n  and\n    /* \"@chainlink/contracts@1.1.1/src/v0.8/shared/access/ConfirmedOwnerWithProposal.sol\":1758:1765  s_owner */\n  0x00\n  dup1\n  sload\n  swap1\n  0x0100\n  exp\n  swap1\n  div\n  0xffffffffffffffffffffffffffffffffffffffff\n  and\n    /* \"@chainlink/contracts@1.1.1/src/v0.8/shared/access/ConfirmedOwnerWithProposal.sol\":1731:1770  OwnershipTransferRequested(s_owner, to) */\n  0xffffffffffffffffffffffffffffffffffffffff\n  and\n  0xed8889f560326eb138920d842192f0eb3dd22b4f139c87a2c57538e05bae1278\n  mload(0x40)\n  mload(0x40)\n  dup1\n  swap2\n  sub\n  swap1\n  log3\n    /* \"@chainlink/contracts@1.1.1/src/v0.8/shared/access/ConfirmedOwnerWithProposal.sol\":1536:1775  function _transferOwnership(address to) private {... */\n  pop\n  jump\t// out\n    /* \"#utility.yul\":7:176   */\ntag_22:\n    /* \"#utility.yul\":91:102   */\n  0x00\n    /* \"#utility.yul\":125:131   */\n  dup3\n    /* \"#utility.yul\":120:123   */\n  dup3\n    /* \"#utility.yul\":113:132   */\n  mstore\n    /* \"#utility.yul\":165:169   */\n  0x20\n    /* \"#utility.yul\":160:163   */\n  dup3\n    /* \"#utility.yul\":156:170   */\n  add\n    /* \"#utility.yul\":141:170   */\n  swap1\n  pop\n    /* \"#utility.yul\":7:176   */\n  swap3\n  swap2\n  pop\n  pop\n  jump\t// out\n    /* \"#utility.yul\":182:356   */\ntag_23:\n    /* \"#utility.yul\":322:348   */\n  0x43616e6e6f7420736574206f776e657220746f207a65726f0000000000000000\n    /* \"#utility.yul\":318:319   */\n  0x00\n    /* \"#utility.yul\":310:316   */\n  dup3\n    /* \"#utility.yul\":306:320   */\n  add\n    /* \"#utility.yul\":299:349   */\n  mstore\n    /* \"#utility.yul\":182:356   */\n  pop\n  jump\t// out\n    /* \"#utility.yul\":362:728   */\ntag_24:\n    /* \"#utility.yul\":504:507   */\n  0x00\n    /* \"#utility.yul\":525:592   */\n  tag_31\n    /* \"#utility.yul\":589:591   */\n  0x18\n    /* \"#utility.yul\":584:587   */\n  dup4\n    /* \"#utility.yul\":525:592   */\n  tag_22\n  jump\t// in\ntag_31:\n    /* \"#utility.yul\":518:592   */\n  swap2\n  pop\n    /* \"#utility.yul\":601:694   */\n  tag_32\n    /* \"#utility.yul\":690:693   */\n  dup3\n    /* \"#utility.yul\":601:694   */\n  tag_23\n  jump\t// in\ntag_32:\n    /* \"#utility.yul\":719:721   */\n  0x20\n    /* \"#utility.yul\":714:717   */\n  dup3\n    /* \"#utility.yul\":710:722   */\n  add\n    /* \"#utility.yul\":703:722   */\n  swap1\n  pop\n    /* \"#utility.yul\":362:728   */\n  swap2\n  swap1\n  pop\n  jump\t// out\n    /* \"#utility.yul\":734:1153   */\ntag_9:\n    /* \"#utility.yul\":900:904   */\n  0x00\n    /* \"#utility.yul\":938:940   */\n  0x20\n    /* \"#utility.yul\":927:936   */\n  dup3\n    /* \"#utility.yul\":923:941   */\n  add\n    /* \"#utility.yul\":915:941   */\n  swap1\n  pop\n    /* \"#utility.yul\":987:996   */\n  dup2\n    /* \"#utility.yul\":981:985   */\n  dup2\n    /* \"#utility.yul\":977:997   */\n  sub\n    /* \"#utility.yul\":973:974   */\n  0x00\n    /* \"#utility.yul\":962:971   */\n  dup4\n    /* \"#utility.yul\":958:975   */\n  add\n    /* \"#utility.yul\":951:998   */\n  mstore\n    /* \"#utility.yul\":1015:1146   */\n  tag_34\n    /* \"#utility.yul\":1141:1145   */\n  dup2\n    /* \"#utility.yul\":1015:1146   */\n  tag_24\n  jump\t// in\ntag_34:\n    /* \"#utility.yul\":1007:1146   */\n  swap1\n  pop\n    /* \"#utility.yul\":734:1153   */\n  swap2\n  swap1\n  pop\n  jump\t// out\n    /* \"#utility.yul\":1159:1332   */\ntag_25:\n    /* \"#utility.yul\":1299:1324   */\n  0x43616e6e6f74207472616e7366657220746f2073656c66000000000000000000\n    /* \"#utility.yul\":1295:1296   */\n  0x00\n    /* \"#utility.yul\":1287:1293   */\n  dup3\n    /* \"#utility.yul\":1283:1297   */\n  add\n    /* \"#utility.yul\":1276:1325   */\n  mstore\n    /* \"#utility.yul\":1159:1332   */\n  pop\n  jump\t// out\n    /* \"#utility.yul\":1338:1704   */\ntag_26:\n    /* \"#utility.yul\":1480:1483   */\n  0x00\n    /* \"#utility.yul\":1501:1568   */\n  tag_37\n    /* \"#utility.yul\":1565:1567   */\n  0x17\n    /* \"#utility.yul\":1560:1563   */\n  dup4\n    /* \"#utility.yul\":1501:1568   */\n  tag_22\n  jump\t// in\ntag_37:\n    /* \"#utility.yul\":1494:1568   */\n  swap2\n  pop\n    /* \"#utility.yul\":1577:1670   */\n  tag_38\n    /* \"#utility.yul\":1666:1669   */\n  dup3\n    /* \"#utility.yul\":1577:1670   */\n  tag_25\n  jump\t// in\ntag_38:\n    /* \"#utility.yul\":1695:1697   */\n  0x20\n    /* \"#utility.yul\":1690:1693   */\n  dup3\n    /* \"#utility.yul\":1686:1698   */\n  add\n    /* \"#utility.yul\":1679:1698   */\n  swap1\n  pop\n    /* \"#utility.yul\":1338:1704   */\n  swap2\n  swap1\n  pop\n  jump\t// out\n    /* \"#utility.yul\":1710:2129   */\ntag_21:\n    /* \"#utility.yul\":1876:1880   */\n  0x00\n    /* \"#utility.yul\":1914:1916   */\n  0x20\n    /* \"#utility.yul\":1903:1912   */\n  dup3\n    /* \"#utility.yul\":1899:1917   */\n  add\n    /* \"#utility.yul\":1891:1917   */\n  swap1\n  pop\n    /* \"#utility.yul\":1963:1972   */\n  dup2\n    /* \"#utility.yul\":1957:1961   */\n  dup2\n    /* \"#utility.yul\":1953:1973   */\n  sub\n    /* \"#utility.yul\":1949:1950   */\n  0x00\n    /* \"#utility.yul\":1938:1947   */\n  dup4\n    /* \"#utility.yul\":1934:1951   */\n  add\n    /* \"#utility.yul\":1927:1974   */\n  mstore\n    /* \"#utility.yul\":1991:2122   */\n  tag_40\n    /* \"#utility.yul\":2117:2121   */\n  dup2\n    /* \"#utility.yul\":1991:2122   */\n  tag_26\n  jump\t// in\ntag_40:\n    /* \"#utility.yul\":1983:2122   */\n  swap1\n  pop\n    /* \"#utility.yul\":1710:2129   */\n  swap2\n  swap1\n  pop\n  jump\t// out\n    /* \"contract/contracts/4_random.sol\":800:6743  contract VRFD20 is VRFConsumerBaseV2Plus {... */\ntag_17:\n  dataSize(sub_0)\n  dup1\n  dataOffset(sub_0)\n  0x00\n  codecopy\n  0x00\n  return\nstop\n\nsub_0: assembly {\n        /* \"contract/contracts/4_random.sol\":800:6743  contract VRFD20 is VRFConsumerBaseV2Plus {... */\n      mstore(0x40, 0x80)\n      callvalue\n      dup1\n      iszero\n      tag_1\n      jumpi\n      0x00\n      dup1\n      revert\n    tag_1:\n      pop\n      jumpi(tag_2, lt(calldatasize, 0x04))\n      shr(0xe0, calldataload(0x00))\n      dup1\n      0x8ea98117\n      gt\n      tag_19\n      jumpi\n      dup1\n      0xb1cad5e3\n      gt\n      tag_20\n      jumpi\n      dup1\n      0xb1cad5e3\n      eq\n      tag_15\n      jumpi\n      dup1\n      0xdd02d9e5\n      eq\n      tag_16\n      jumpi\n      dup1\n      0xedde8349\n      eq\n      tag_17\n      jumpi\n      dup1\n      0xf2fde38b\n      eq\n      tag_18\n      jumpi\n      jump(tag_2)\n    tag_20:\n      dup1\n      0x8ea98117\n      eq\n      tag_11\n      jumpi\n      dup1\n      0x9eccacf6\n      eq\n      tag_12\n      jumpi\n      dup1\n      0xa3e56fa8\n      eq\n      tag_13\n      jumpi\n      dup1\n      0xb0fb162f\n      eq\n      tag_14\n      jumpi\n      jump(tag_2)\n    tag_19:\n      dup1\n      0x79ba5097\n      gt\n      tag_21\n      jumpi\n      dup1\n      0x79ba5097\n      eq\n      tag_7\n      jumpi\n      dup1\n      0x7ccfd7fc\n      eq\n      tag_8\n      jumpi\n      dup1\n      0x8ac00021\n      eq\n      tag_9\n      jumpi\n      dup1\n      0x8da5cb5b\n      eq\n      tag_10\n      jumpi\n      jump(tag_2)\n    tag_21:\n      dup1\n      0x1f7b6d32\n      eq\n      tag_3\n      jumpi\n      dup1\n      0x1fe543e3\n      eq\n      tag_4\n      jumpi\n      dup1\n      0x24f74697\n      eq\n      tag_5\n      jumpi\n      dup1\n      0x45bb327b\n      eq\n      tag_6\n      jumpi\n    tag_2:\n      0x00\n      dup1\n      revert\n        /* \"contract/contracts/4_random.sol\":2374:2401  uint256 public length = 100 */\n    tag_3:\n      tag_22\n      tag_23\n      jump\t// in\n    tag_22:\n      mload(0x40)\n      tag_24\n      swap2\n      swap1\n      tag_25\n      jump\t// in\n    tag_24:\n      mload(0x40)\n      dup1\n      swap2\n      sub\n      swap1\n      return\n        /* \"@chainlink/contracts@1.1.1/src/v0.8/vrf/dev/VRFConsumerBaseV2Plus.sol\":7489:7769  function rawFulfillRandomWords(uint256 requestId, uint256[] calldata randomWords) external {... */\n    tag_4:\n      tag_26\n      0x04\n      dup1\n      calldatasize\n      sub\n      dup2\n      add\n      swap1\n      tag_27\n      swap2\n      swap1\n      tag_28\n      jump\t// in\n    tag_27:\n      tag_29\n      jump\t// in\n    tag_26:\n      stop\n        /* \"contract/contracts/4_random.sol\":2068:2106  uint32 public callbackGasLimit = 40000 */\n    tag_5:\n      tag_30\n      tag_31\n      jump\t// in\n    tag_30:\n      mload(0x40)\n      tag_32\n      swap2\n      swap1\n      tag_33\n      jump\t// in\n    tag_32:\n      mload(0x40)\n      dup1\n      swap2\n      sub\n      swap1\n      return\n        /* \"contract/contracts/4_random.sol\":1542:1644  bytes32 public s_keyHash =... */\n    tag_6:\n      tag_34\n      tag_35\n      jump\t// in\n    tag_34:\n      mload(0x40)\n      tag_36\n      swap2\n      swap1\n      tag_37\n      jump\t// in\n    tag_36:\n      mload(0x40)\n      dup1\n      swap2\n      sub\n      swap1\n      return\n        /* \"@chainlink/contracts@1.1.1/src/v0.8/shared/access/ConfirmedOwnerWithProposal.sol\":1026:1342  function acceptOwnership() external override {... */\n    tag_7:\n      tag_38\n      tag_39\n      jump\t// in\n    tag_38:\n      stop\n        /* \"contract/contracts/4_random.sol\":2339:2365  uint32 public numWords = 1 */\n    tag_8:\n      tag_40\n      tag_41\n      jump\t// in\n    tag_40:\n      mload(0x40)\n      tag_42\n      swap2\n      swap1\n      tag_33\n      jump\t// in\n    tag_42:\n      mload(0x40)\n      dup1\n      swap2\n      sub\n      swap1\n      return\n        /* \"contract/contracts/4_random.sol\":1074:1105  uint256 public s_subscriptionId */\n    tag_9:\n      tag_43\n      tag_44\n      jump\t// in\n    tag_43:\n      mload(0x40)\n      tag_45\n      swap2\n      swap1\n      tag_25\n      jump\t// in\n    tag_45:\n      mload(0x40)\n      dup1\n      swap2\n      sub\n      swap1\n      return\n        /* \"@chainlink/contracts@1.1.1/src/v0.8/shared/access/ConfirmedOwnerWithProposal.sol\":1382:1463  function owner() public view override returns (address) {... */\n    tag_10:\n      tag_46\n      tag_47\n      jump\t// in\n    tag_46:\n      mload(0x40)\n      tag_48\n      swap2\n      swap1\n      tag_49\n      jump\t// in\n    tag_48:\n      mload(0x40)\n      dup1\n      swap2\n      sub\n      swap1\n      return\n        /* \"@chainlink/contracts@1.1.1/src/v0.8/vrf/dev/VRFConsumerBaseV2Plus.sol\":7831:8107  function setCoordinator(address _vrfCoordinator) external override onlyOwnerOrCoordinator {... */\n    tag_11:\n      tag_50\n      0x04\n      dup1\n      calldatasize\n      sub\n      dup2\n      add\n      swap1\n      tag_51\n      swap2\n      swap1\n      tag_52\n      jump\t// in\n    tag_51:\n      tag_53\n      jump\t// in\n    tag_50:\n      stop\n        /* \"@chainlink/contracts@1.1.1/src/v0.8/vrf/dev/VRFConsumerBaseV2Plus.sol\":6077:6122  IVRFCoordinatorV2Plus public s_vrfCoordinator */\n    tag_12:\n      tag_54\n      tag_55\n      jump\t// in\n    tag_54:\n      mload(0x40)\n      tag_56\n      swap2\n      swap1\n      tag_57\n      jump\t// in\n    tag_56:\n      mload(0x40)\n      dup1\n      swap2\n      sub\n      swap1\n      return\n        /* \"contract/contracts/4_random.sol\":1242:1316  address public vrfCoordinator = 0x9DdfaCa8183c41ad55329BdeeD9F6A8d53168B1B */\n    tag_13:\n      tag_58\n      tag_59\n      jump\t// in\n    tag_58:\n      mload(0x40)\n      tag_60\n      swap2\n      swap1\n      tag_49\n      jump\t// in\n    tag_60:\n      mload(0x40)\n      dup1\n      swap2\n      sub\n      swap1\n      return\n        /* \"contract/contracts/4_random.sol\":2170:2208  uint16 public requestConfirmations = 3 */\n    tag_14:\n      tag_61\n      tag_62\n      jump\t// in\n    tag_61:\n      mload(0x40)\n      tag_63\n      swap2\n      swap1\n      tag_64\n      jump\t// in\n    tag_63:\n      mload(0x40)\n      dup1\n      swap2\n      sub\n      swap1\n      return\n        /* \"contract/contracts/4_random.sol\":5703:5966  function house(address player) public view returns (string memory) {... */\n    tag_15:\n      tag_65\n      0x04\n      dup1\n      calldatasize\n      sub\n      dup2\n      add\n      swap1\n      tag_66\n      swap2\n      swap1\n      tag_52\n      jump\t// in\n    tag_66:\n      tag_67\n      jump\t// in\n    tag_65:\n      mload(0x40)\n      tag_68\n      swap2\n      swap1\n      tag_69\n      jump\t// in\n    tag_68:\n      mload(0x40)\n      dup1\n      swap2\n      sub\n      swap1\n      return\n        /* \"contract/contracts/4_random.sol\":3324:4307  function rollDice(... */\n    tag_16:\n      tag_70\n      0x04\n      dup1\n      calldatasize\n      sub\n      dup2\n      add\n      swap1\n      tag_71\n      swap2\n      swap1\n      tag_52\n      jump\t// in\n    tag_71:\n      tag_72\n      jump\t// in\n    tag_70:\n      mload(0x40)\n      tag_73\n      swap2\n      swap1\n      tag_25\n      jump\t// in\n    tag_73:\n      mload(0x40)\n      dup1\n      swap2\n      sub\n      swap1\n      return\n        /* \"contract/contracts/4_random.sol\":2408:2437  uint256 public random_num = 0 */\n    tag_17:\n      tag_74\n      tag_75\n      jump\t// in\n    tag_74:\n      mload(0x40)\n      tag_76\n      swap2\n      swap1\n      tag_25\n      jump\t// in\n    tag_76:\n      mload(0x40)\n      dup1\n      swap2\n      sub\n      swap1\n      return\n        /* \"@chainlink/contracts@1.1.1/src/v0.8/shared/access/ConfirmedOwnerWithProposal.sol\":847:945  function transferOwnership(address to) public override onlyOwner {... */\n    tag_18:\n      tag_77\n      0x04\n      dup1\n      calldatasize\n      sub\n      dup2\n      add\n      swap1\n      tag_78\n      swap2\n      swap1\n      tag_52\n      jump\t// in\n    tag_78:\n      tag_79\n      jump\t// in\n    tag_77:\n      stop\n        /* \"contract/contracts/4_random.sol\":2374:2401  uint256 public length = 100 */\n    tag_23:\n      sload(0x07)\n      dup2\n      jump\t// out\n        /* \"@chainlink/contracts@1.1.1/src/v0.8/vrf/dev/VRFConsumerBaseV2Plus.sol\":7489:7769  function rawFulfillRandomWords(uint256 requestId, uint256[] calldata randomWords) external {... */\n    tag_29:\n        /* \"@chainlink/contracts@1.1.1/src/v0.8/vrf/dev/VRFConsumerBaseV2Plus.sol\":7612:7628  s_vrfCoordinator */\n      0x02\n      0x00\n      swap1\n      sload\n      swap1\n      0x0100\n      exp\n      swap1\n      div\n      0xffffffffffffffffffffffffffffffffffffffff\n      and\n        /* \"@chainlink/contracts@1.1.1/src/v0.8/vrf/dev/VRFConsumerBaseV2Plus.sol\":7590:7629  msg.sender != address(s_vrfCoordinator) */\n      0xffffffffffffffffffffffffffffffffffffffff\n      and\n        /* \"@chainlink/contracts@1.1.1/src/v0.8/vrf/dev/VRFConsumerBaseV2Plus.sol\":7590:7600  msg.sender */\n      caller\n        /* \"@chainlink/contracts@1.1.1/src/v0.8/vrf/dev/VRFConsumerBaseV2Plus.sol\":7590:7629  msg.sender != address(s_vrfCoordinator) */\n      0xffffffffffffffffffffffffffffffffffffffff\n      and\n      eq\n        /* \"@chainlink/contracts@1.1.1/src/v0.8/vrf/dev/VRFConsumerBaseV2Plus.sol\":7586:7717  if (msg.sender != address(s_vrfCoordinator)) {... */\n      tag_81\n      jumpi\n        /* \"@chainlink/contracts@1.1.1/src/v0.8/vrf/dev/VRFConsumerBaseV2Plus.sol\":7672:7682  msg.sender */\n      caller\n        /* \"@chainlink/contracts@1.1.1/src/v0.8/vrf/dev/VRFConsumerBaseV2Plus.sol\":7692:7708  s_vrfCoordinator */\n      0x02\n      0x00\n      swap1\n      sload\n      swap1\n      0x0100\n      exp\n      swap1\n      div\n      0xffffffffffffffffffffffffffffffffffffffff\n      and\n        /* \"@chainlink/contracts@1.1.1/src/v0.8/vrf/dev/VRFConsumerBaseV2Plus.sol\":7646:7710  OnlyCoordinatorCanFulfill(msg.sender, address(s_vrfCoordinator)) */\n      mload(0x40)\n      0x1cf993f400000000000000000000000000000000000000000000000000000000\n      dup2\n      mstore\n      0x04\n      add\n      tag_82\n      swap3\n      swap2\n      swap1\n      tag_83\n      jump\t// in\n    tag_82:\n      mload(0x40)\n      dup1\n      swap2\n      sub\n      swap1\n      revert\n        /* \"@chainlink/contracts@1.1.1/src/v0.8/vrf/dev/VRFConsumerBaseV2Plus.sol\":7586:7717  if (msg.sender != address(s_vrfCoordinator)) {... */\n    tag_81:\n        /* \"@chainlink/contracts@1.1.1/src/v0.8/vrf/dev/VRFConsumerBaseV2Plus.sol\":7722:7764  fulfillRandomWords(requestId, randomWords) */\n      tag_84\n        /* \"@chainlink/contracts@1.1.1/src/v0.8/vrf/dev/VRFConsumerBaseV2Plus.sol\":7741:7750  requestId */\n      dup4\n        /* \"@chainlink/contracts@1.1.1/src/v0.8/vrf/dev/VRFConsumerBaseV2Plus.sol\":7752:7763  randomWords */\n      dup4\n      dup4\n        /* \"@chainlink/contracts@1.1.1/src/v0.8/vrf/dev/VRFConsumerBaseV2Plus.sol\":7722:7740  fulfillRandomWords */\n      tag_85\n        /* \"@chainlink/contracts@1.1.1/src/v0.8/vrf/dev/VRFConsumerBaseV2Plus.sol\":7722:7764  fulfillRandomWords(requestId, randomWords) */\n      jump\t// in\n    tag_84:\n        /* \"@chainlink/contracts@1.1.1/src/v0.8/vrf/dev/VRFConsumerBaseV2Plus.sol\":7489:7769  function rawFulfillRandomWords(uint256 requestId, uint256[] calldata randomWords) external {... */\n      pop\n      pop\n      pop\n      jump\t// out\n        /* \"contract/contracts/4_random.sol\":2068:2106  uint32 public callbackGasLimit = 40000 */\n    tag_31:\n      0x06\n      0x00\n      swap1\n      sload\n      swap1\n      0x0100\n      exp\n      swap1\n      div\n      0xffffffff\n      and\n      dup2\n      jump\t// out\n        /* \"contract/contracts/4_random.sol\":1542:1644  bytes32 public s_keyHash =... */\n    tag_35:\n      sload(0x05)\n      dup2\n      jump\t// out\n        /* \"@chainlink/contracts@1.1.1/src/v0.8/shared/access/ConfirmedOwnerWithProposal.sol\":1026:1342  function acceptOwnership() external override {... */\n    tag_39:\n        /* \"@chainlink/contracts@1.1.1/src/v0.8/shared/access/ConfirmedOwnerWithProposal.sol\":1150:1164  s_pendingOwner */\n      0x01\n      0x00\n      swap1\n      sload\n      swap1\n      0x0100\n      exp\n      swap1\n      div\n      0xffffffffffffffffffffffffffffffffffffffff\n      and\n        /* \"@chainlink/contracts@1.1.1/src/v0.8/shared/access/ConfirmedOwnerWithProposal.sol\":1136:1164  msg.sender == s_pendingOwner */\n      0xffffffffffffffffffffffffffffffffffffffff\n      and\n        /* \"@chainlink/contracts@1.1.1/src/v0.8/shared/access/ConfirmedOwnerWithProposal.sol\":1136:1146  msg.sender */\n      caller\n        /* \"@chainlink/contracts@1.1.1/src/v0.8/shared/access/ConfirmedOwnerWithProposal.sol\":1136:1164  msg.sender == s_pendingOwner */\n      0xffffffffffffffffffffffffffffffffffffffff\n      and\n      eq\n        /* \"@chainlink/contracts@1.1.1/src/v0.8/shared/access/ConfirmedOwnerWithProposal.sol\":1128:1191  require(msg.sender == s_pendingOwner, \"Must be proposed owner\") */\n      tag_87\n      jumpi\n      mload(0x40)\n      0x08c379a000000000000000000000000000000000000000000000000000000000\n      dup2\n      mstore\n      0x04\n      add\n      tag_88\n      swap1\n      tag_89\n      jump\t// in\n    tag_88:\n      mload(0x40)\n      dup1\n      swap2\n      sub\n      swap1\n      revert\n    tag_87:\n        /* \"@chainlink/contracts@1.1.1/src/v0.8/shared/access/ConfirmedOwnerWithProposal.sol\":1198:1214  address oldOwner */\n      0x00\n        /* \"@chainlink/contracts@1.1.1/src/v0.8/shared/access/ConfirmedOwnerWithProposal.sol\":1217:1224  s_owner */\n      dup1\n      0x00\n      swap1\n      sload\n      swap1\n      0x0100\n      exp\n      swap1\n      div\n      0xffffffffffffffffffffffffffffffffffffffff\n      and\n        /* \"@chainlink/contracts@1.1.1/src/v0.8/shared/access/ConfirmedOwnerWithProposal.sol\":1198:1224  address oldOwner = s_owner */\n      swap1\n      pop\n        /* \"@chainlink/contracts@1.1.1/src/v0.8/shared/access/ConfirmedOwnerWithProposal.sol\":1240:1250  msg.sender */\n      caller\n        /* \"@chainlink/contracts@1.1.1/src/v0.8/shared/access/ConfirmedOwnerWithProposal.sol\":1230:1237  s_owner */\n      0x00\n      dup1\n        /* \"@chainlink/contracts@1.1.1/src/v0.8/shared/access/ConfirmedOwnerWithProposal.sol\":1230:1250  s_owner = msg.sender */\n      0x0100\n      exp\n      dup2\n      sload\n      dup2\n      0xffffffffffffffffffffffffffffffffffffffff\n      mul\n      not\n      and\n      swap1\n      dup4\n      0xffffffffffffffffffffffffffffffffffffffff\n      and\n      mul\n      or\n      swap1\n      sstore\n      pop\n        /* \"@chainlink/contracts@1.1.1/src/v0.8/shared/access/ConfirmedOwnerWithProposal.sol\":1281:1282  0 */\n      0x00\n        /* \"@chainlink/contracts@1.1.1/src/v0.8/shared/access/ConfirmedOwnerWithProposal.sol\":1256:1270  s_pendingOwner */\n      0x01\n      0x00\n        /* \"@chainlink/contracts@1.1.1/src/v0.8/shared/access/ConfirmedOwnerWithProposal.sol\":1256:1283  s_pendingOwner = address(0) */\n      0x0100\n      exp\n      dup2\n      sload\n      dup2\n      0xffffffffffffffffffffffffffffffffffffffff\n      mul\n      not\n      and\n      swap1\n      dup4\n      0xffffffffffffffffffffffffffffffffffffffff\n      and\n      mul\n      or\n      swap1\n      sstore\n      pop\n        /* \"@chainlink/contracts@1.1.1/src/v0.8/shared/access/ConfirmedOwnerWithProposal.sol\":1326:1336  msg.sender */\n      caller\n        /* \"@chainlink/contracts@1.1.1/src/v0.8/shared/access/ConfirmedOwnerWithProposal.sol\":1295:1337  OwnershipTransferred(oldOwner, msg.sender) */\n      0xffffffffffffffffffffffffffffffffffffffff\n      and\n        /* \"@chainlink/contracts@1.1.1/src/v0.8/shared/access/ConfirmedOwnerWithProposal.sol\":1316:1324  oldOwner */\n      dup2\n        /* \"@chainlink/contracts@1.1.1/src/v0.8/shared/access/ConfirmedOwnerWithProposal.sol\":1295:1337  OwnershipTransferred(oldOwner, msg.sender) */\n      0xffffffffffffffffffffffffffffffffffffffff\n      and\n      0x8be0079c531659141344cd1fd0a4f28419497f9722a3daafe3b4186f6b6457e0\n      mload(0x40)\n      mload(0x40)\n      dup1\n      swap2\n      sub\n      swap1\n      log3\n        /* \"@chainlink/contracts@1.1.1/src/v0.8/shared/access/ConfirmedOwnerWithProposal.sol\":1071:1342  {... */\n      pop\n        /* \"@chainlink/contracts@1.1.1/src/v0.8/shared/access/ConfirmedOwnerWithProposal.sol\":1026:1342  function acceptOwnership() external override {... */\n      jump\t// out\n        /* \"contract/contracts/4_random.sol\":2339:2365  uint32 public numWords = 1 */\n    tag_41:\n      0x06\n      dup1\n      sload\n      swap1\n      0x0100\n      exp\n      swap1\n      div\n      0xffffffff\n      and\n      dup2\n      jump\t// out\n        /* \"contract/contracts/4_random.sol\":1074:1105  uint256 public s_subscriptionId */\n    tag_44:\n      sload(0x03)\n      dup2\n      jump\t// out\n        /* \"@chainlink/contracts@1.1.1/src/v0.8/shared/access/ConfirmedOwnerWithProposal.sol\":1382:1463  function owner() public view override returns (address) {... */\n    tag_47:\n        /* \"@chainlink/contracts@1.1.1/src/v0.8/shared/access/ConfirmedOwnerWithProposal.sol\":1429:1436  address */\n      0x00\n        /* \"@chainlink/contracts@1.1.1/src/v0.8/shared/access/ConfirmedOwnerWithProposal.sol\":1451:1458  s_owner */\n      dup1\n      0x00\n      swap1\n      sload\n      swap1\n      0x0100\n      exp\n      swap1\n      div\n      0xffffffffffffffffffffffffffffffffffffffff\n      and\n        /* \"@chainlink/contracts@1.1.1/src/v0.8/shared/access/ConfirmedOwnerWithProposal.sol\":1444:1458  return s_owner */\n      swap1\n      pop\n        /* \"@chainlink/contracts@1.1.1/src/v0.8/shared/access/ConfirmedOwnerWithProposal.sol\":1382:1463  function owner() public view override returns (address) {... */\n      swap1\n      jump\t// out\n        /* \"@chainlink/contracts@1.1.1/src/v0.8/vrf/dev/VRFConsumerBaseV2Plus.sol\":7831:8107  function setCoordinator(address _vrfCoordinator) external override onlyOwnerOrCoordinator {... */\n    tag_53:\n        /* \"@chainlink/contracts@1.1.1/src/v0.8/vrf/dev/VRFConsumerBaseV2Plus.sol\":8169:8176  owner() */\n      tag_92\n        /* \"@chainlink/contracts@1.1.1/src/v0.8/vrf/dev/VRFConsumerBaseV2Plus.sol\":8169:8174  owner */\n      tag_47\n        /* \"@chainlink/contracts@1.1.1/src/v0.8/vrf/dev/VRFConsumerBaseV2Plus.sol\":8169:8176  owner() */\n      jump\t// in\n    tag_92:\n        /* \"@chainlink/contracts@1.1.1/src/v0.8/vrf/dev/VRFConsumerBaseV2Plus.sol\":8155:8176  msg.sender != owner() */\n      0xffffffffffffffffffffffffffffffffffffffff\n      and\n        /* \"@chainlink/contracts@1.1.1/src/v0.8/vrf/dev/VRFConsumerBaseV2Plus.sol\":8155:8165  msg.sender */\n      caller\n        /* \"@chainlink/contracts@1.1.1/src/v0.8/vrf/dev/VRFConsumerBaseV2Plus.sol\":8155:8176  msg.sender != owner() */\n      0xffffffffffffffffffffffffffffffffffffffff\n      and\n      eq\n      iszero\n        /* \"@chainlink/contracts@1.1.1/src/v0.8/vrf/dev/VRFConsumerBaseV2Plus.sol\":8155:8219  msg.sender != owner() && msg.sender != address(s_vrfCoordinator) */\n      dup1\n      iszero\n      tag_93\n      jumpi\n      pop\n        /* \"@chainlink/contracts@1.1.1/src/v0.8/vrf/dev/VRFConsumerBaseV2Plus.sol\":8202:8218  s_vrfCoordinator */\n      0x02\n      0x00\n      swap1\n      sload\n      swap1\n      0x0100\n      exp\n      swap1\n      div\n      0xffffffffffffffffffffffffffffffffffffffff\n      and\n        /* \"@chainlink/contracts@1.1.1/src/v0.8/vrf/dev/VRFConsumerBaseV2Plus.sol\":8180:8219  msg.sender != address(s_vrfCoordinator) */\n      0xffffffffffffffffffffffffffffffffffffffff\n      and\n        /* \"@chainlink/contracts@1.1.1/src/v0.8/vrf/dev/VRFConsumerBaseV2Plus.sol\":8180:8190  msg.sender */\n      caller\n        /* \"@chainlink/contracts@1.1.1/src/v0.8/vrf/dev/VRFConsumerBaseV2Plus.sol\":8180:8219  msg.sender != address(s_vrfCoordinator) */\n      0xffffffffffffffffffffffffffffffffffffffff\n      and\n      eq\n      iszero\n        /* \"@chainlink/contracts@1.1.1/src/v0.8/vrf/dev/VRFConsumerBaseV2Plus.sol\":8155:8219  msg.sender != owner() && msg.sender != address(s_vrfCoordinator) */\n    tag_93:\n        /* \"@chainlink/contracts@1.1.1/src/v0.8/vrf/dev/VRFConsumerBaseV2Plus.sol\":8151:8313  if (msg.sender != owner() && msg.sender != address(s_vrfCoordinator)) {... */\n      iszero\n      tag_94\n      jumpi\n        /* \"@chainlink/contracts@1.1.1/src/v0.8/vrf/dev/VRFConsumerBaseV2Plus.sol\":8259:8269  msg.sender */\n      caller\n        /* \"@chainlink/contracts@1.1.1/src/v0.8/vrf/dev/VRFConsumerBaseV2Plus.sol\":8271:8278  owner() */\n      tag_95\n        /* \"@chainlink/contracts@1.1.1/src/v0.8/vrf/dev/VRFConsumerBaseV2Plus.sol\":8271:8276  owner */\n      tag_47\n        /* \"@chainlink/contracts@1.1.1/src/v0.8/vrf/dev/VRFConsumerBaseV2Plus.sol\":8271:8278  owner() */\n      jump\t// in\n    tag_95:\n        /* \"@chainlink/contracts@1.1.1/src/v0.8/vrf/dev/VRFConsumerBaseV2Plus.sol\":8288:8304  s_vrfCoordinator */\n      0x02\n      0x00\n      swap1\n      sload\n      swap1\n      0x0100\n      exp\n      swap1\n      div\n      0xffffffffffffffffffffffffffffffffffffffff\n      and\n        /* \"@chainlink/contracts@1.1.1/src/v0.8/vrf/dev/VRFConsumerBaseV2Plus.sol\":8236:8306  OnlyOwnerOrCoordinator(msg.sender, owner(), address(s_vrfCoordinator)) */\n      mload(0x40)\n      0x061db9c100000000000000000000000000000000000000000000000000000000\n      dup2\n      mstore\n      0x04\n      add\n      tag_96\n      swap4\n      swap3\n      swap2\n      swap1\n      tag_97\n      jump\t// in\n    tag_96:\n      mload(0x40)\n      dup1\n      swap2\n      sub\n      swap1\n      revert\n        /* \"@chainlink/contracts@1.1.1/src/v0.8/vrf/dev/VRFConsumerBaseV2Plus.sol\":8151:8313  if (msg.sender != owner() && msg.sender != address(s_vrfCoordinator)) {... */\n    tag_94:\n        /* \"@chainlink/contracts@1.1.1/src/v0.8/vrf/dev/VRFConsumerBaseV2Plus.sol\":7958:7959  0 */\n      0x00\n        /* \"@chainlink/contracts@1.1.1/src/v0.8/vrf/dev/VRFConsumerBaseV2Plus.sol\":7931:7960  _vrfCoordinator == address(0) */\n      0xffffffffffffffffffffffffffffffffffffffff\n      and\n        /* \"@chainlink/contracts@1.1.1/src/v0.8/vrf/dev/VRFConsumerBaseV2Plus.sol\":7931:7946  _vrfCoordinator */\n      dup2\n        /* \"@chainlink/contracts@1.1.1/src/v0.8/vrf/dev/VRFConsumerBaseV2Plus.sol\":7931:7960  _vrfCoordinator == address(0) */\n      0xffffffffffffffffffffffffffffffffffffffff\n      and\n      sub\n        /* \"@chainlink/contracts@1.1.1/src/v0.8/vrf/dev/VRFConsumerBaseV2Plus.sol\":7927:7997  if (_vrfCoordinator == address(0)) {... */\n      tag_99\n      jumpi\n        /* \"@chainlink/contracts@1.1.1/src/v0.8/vrf/dev/VRFConsumerBaseV2Plus.sol\":7977:7990  ZeroAddress() */\n      mload(0x40)\n      0xd92e233d00000000000000000000000000000000000000000000000000000000\n      dup2\n      mstore\n      0x04\n      add\n      mload(0x40)\n      dup1\n      swap2\n      sub\n      swap1\n      revert\n        /* \"@chainlink/contracts@1.1.1/src/v0.8/vrf/dev/VRFConsumerBaseV2Plus.sol\":7927:7997  if (_vrfCoordinator == address(0)) {... */\n    tag_99:\n        /* \"@chainlink/contracts@1.1.1/src/v0.8/vrf/dev/VRFConsumerBaseV2Plus.sol\":8043:8058  _vrfCoordinator */\n      dup1\n        /* \"@chainlink/contracts@1.1.1/src/v0.8/vrf/dev/VRFConsumerBaseV2Plus.sol\":8002:8018  s_vrfCoordinator */\n      0x02\n      0x00\n        /* \"@chainlink/contracts@1.1.1/src/v0.8/vrf/dev/VRFConsumerBaseV2Plus.sol\":8002:8059  s_vrfCoordinator = IVRFCoordinatorV2Plus(_vrfCoordinator) */\n      0x0100\n      exp\n      dup2\n      sload\n      dup2\n      0xffffffffffffffffffffffffffffffffffffffff\n      mul\n      not\n      and\n      swap1\n      dup4\n      0xffffffffffffffffffffffffffffffffffffffff\n      and\n      mul\n      or\n      swap1\n      sstore\n      pop\n        /* \"@chainlink/contracts@1.1.1/src/v0.8/vrf/dev/VRFConsumerBaseV2Plus.sol\":8071:8102  CoordinatorSet(_vrfCoordinator) */\n      0xd1a6a14209a385a964d036e404cb5cfb71f4000cdb03c9366292430787261be6\n        /* \"@chainlink/contracts@1.1.1/src/v0.8/vrf/dev/VRFConsumerBaseV2Plus.sol\":8086:8101  _vrfCoordinator */\n      dup2\n        /* \"@chainlink/contracts@1.1.1/src/v0.8/vrf/dev/VRFConsumerBaseV2Plus.sol\":8071:8102  CoordinatorSet(_vrfCoordinator) */\n      mload(0x40)\n      tag_100\n      swap2\n      swap1\n      tag_49\n      jump\t// in\n    tag_100:\n      mload(0x40)\n      dup1\n      swap2\n      sub\n      swap1\n      log1\n        /* \"@chainlink/contracts@1.1.1/src/v0.8/vrf/dev/VRFConsumerBaseV2Plus.sol\":7831:8107  function setCoordinator(address _vrfCoordinator) external override onlyOwnerOrCoordinator {... */\n      pop\n      jump\t// out\n        /* \"@chainlink/contracts@1.1.1/src/v0.8/vrf/dev/VRFConsumerBaseV2Plus.sol\":6077:6122  IVRFCoordinatorV2Plus public s_vrfCoordinator */\n    tag_55:\n      0x02\n      0x00\n      swap1\n      sload\n      swap1\n      0x0100\n      exp\n      swap1\n      div\n      0xffffffffffffffffffffffffffffffffffffffff\n      and\n      dup2\n      jump\t// out\n        /* \"contract/contracts/4_random.sol\":1242:1316  address public vrfCoordinator = 0x9DdfaCa8183c41ad55329BdeeD9F6A8d53168B1B */\n    tag_59:\n      0x04\n      0x00\n      swap1\n      sload\n      swap1\n      0x0100\n      exp\n      swap1\n      div\n      0xffffffffffffffffffffffffffffffffffffffff\n      and\n      dup2\n      jump\t// out\n        /* \"contract/contracts/4_random.sol\":2170:2208  uint16 public requestConfirmations = 3 */\n    tag_62:\n      0x06\n      0x04\n      swap1\n      sload\n      swap1\n      0x0100\n      exp\n      swap1\n      div\n      0xffff\n      and\n      dup2\n      jump\t// out\n        /* \"contract/contracts/4_random.sol\":5703:5966  function house(address player) public view returns (string memory) {... */\n    tag_67:\n        /* \"contract/contracts/4_random.sol\":5755:5768  string memory */\n      0x60\n        /* \"contract/contracts/4_random.sol\":5810:5811  0 */\n      0x00\n        /* \"contract/contracts/4_random.sol\":5789:5798  s_results */\n      0x0a\n        /* \"contract/contracts/4_random.sol\":5789:5806  s_results[player] */\n      0x00\n        /* \"contract/contracts/4_random.sol\":5799:5805  player */\n      dup5\n        /* \"contract/contracts/4_random.sol\":5789:5806  s_results[player] */\n      0xffffffffffffffffffffffffffffffffffffffff\n      and\n      0xffffffffffffffffffffffffffffffffffffffff\n      and\n      dup2\n      mstore\n      0x20\n      add\n      swap1\n      dup2\n      mstore\n      0x20\n      add\n      0x00\n      keccak256\n      sload\n        /* \"contract/contracts/4_random.sol\":5789:5811  s_results[player] != 0 */\n      sub\n        /* \"contract/contracts/4_random.sol\":5781:5831  require(s_results[player] != 0, \"Dice not rolled\") */\n      tag_102\n      jumpi\n      mload(0x40)\n      0x08c379a000000000000000000000000000000000000000000000000000000000\n      dup2\n      mstore\n      0x04\n      add\n      tag_103\n      swap1\n      tag_104\n      jump\t// in\n    tag_103:\n      mload(0x40)\n      dup1\n      swap2\n      sub\n      swap1\n      revert\n    tag_102:\n        /* \"contract/contracts/4_random.sol\":892:894  42 */\n      0x2a\n        /* \"contract/contracts/4_random.sol\":5850:5859  s_results */\n      0x0a\n        /* \"contract/contracts/4_random.sol\":5850:5867  s_results[player] */\n      0x00\n        /* \"contract/contracts/4_random.sol\":5860:5866  player */\n      dup5\n        /* \"contract/contracts/4_random.sol\":5850:5867  s_results[player] */\n      0xffffffffffffffffffffffffffffffffffffffff\n      and\n      0xffffffffffffffffffffffffffffffffffffffff\n      and\n      dup2\n      mstore\n      0x20\n      add\n      swap1\n      dup2\n      mstore\n      0x20\n      add\n      0x00\n      keccak256\n      sload\n        /* \"contract/contracts/4_random.sol\":5850:5887  s_results[player] != ROLL_IN_PROGRESS */\n      sub\n        /* \"contract/contracts/4_random.sol\":5842:5908  require(s_results[player] != ROLL_IN_PROGRESS, \"Roll in progress\") */\n      tag_105\n      jumpi\n      mload(0x40)\n      0x08c379a000000000000000000000000000000000000000000000000000000000\n      dup2\n      mstore\n      0x04\n      add\n      tag_106\n      swap1\n      tag_107\n      jump\t// in\n    tag_106:\n      mload(0x40)\n      dup1\n      swap2\n      sub\n      swap1\n      revert\n    tag_105:\n        /* \"contract/contracts/4_random.sol\":5926:5958  _getHouseName(s_results[player]) */\n      tag_108\n        /* \"contract/contracts/4_random.sol\":5940:5949  s_results */\n      0x0a\n        /* \"contract/contracts/4_random.sol\":5940:5957  s_results[player] */\n      0x00\n        /* \"contract/contracts/4_random.sol\":5950:5956  player */\n      dup5\n        /* \"contract/contracts/4_random.sol\":5940:5957  s_results[player] */\n      0xffffffffffffffffffffffffffffffffffffffff\n      and\n      0xffffffffffffffffffffffffffffffffffffffff\n      and\n      dup2\n      mstore\n      0x20\n      add\n      swap1\n      dup2\n      mstore\n      0x20\n      add\n      0x00\n      keccak256\n      sload\n        /* \"contract/contracts/4_random.sol\":5926:5939  _getHouseName */\n      tag_109\n        /* \"contract/contracts/4_random.sol\":5926:5958  _getHouseName(s_results[player]) */\n      jump\t// in\n    tag_108:\n        /* \"contract/contracts/4_random.sol\":5919:5958  return _getHouseName(s_results[player]) */\n      swap1\n      pop\n        /* \"contract/contracts/4_random.sol\":5703:5966  function house(address player) public view returns (string memory) {... */\n      swap2\n      swap1\n      pop\n      jump\t// out\n        /* \"contract/contracts/4_random.sol\":3324:4307  function rollDice(... */\n    tag_72:\n        /* \"contract/contracts/4_random.sol\":3400:3417  uint256 requestId */\n      0x00\n        /* \"@chainlink/contracts@1.1.1/src/v0.8/shared/access/ConfirmedOwnerWithProposal.sol\":2075:2095  _validateOwnership() */\n      tag_111\n        /* \"@chainlink/contracts@1.1.1/src/v0.8/shared/access/ConfirmedOwnerWithProposal.sol\":2075:2093  _validateOwnership */\n      tag_112\n        /* \"@chainlink/contracts@1.1.1/src/v0.8/shared/access/ConfirmedOwnerWithProposal.sol\":2075:2095  _validateOwnership() */\n      jump\t// in\n    tag_111:\n        /* \"contract/contracts/4_random.sol\":3459:3460  0 */\n      0x00\n        /* \"contract/contracts/4_random.sol\":3438:3447  s_results */\n      0x0a\n        /* \"contract/contracts/4_random.sol\":3438:3455  s_results[roller] */\n      0x00\n        /* \"contract/contracts/4_random.sol\":3448:3454  roller */\n      dup5\n        /* \"contract/contracts/4_random.sol\":3438:3455  s_results[roller] */\n      0xffffffffffffffffffffffffffffffffffffffff\n      and\n      0xffffffffffffffffffffffffffffffffffffffff\n      and\n      dup2\n      mstore\n      0x20\n      add\n      swap1\n      dup2\n      mstore\n      0x20\n      add\n      0x00\n      keccak256\n      sload\n        /* \"contract/contracts/4_random.sol\":3438:3460  s_results[roller] == 0 */\n      eq\n        /* \"contract/contracts/4_random.sol\":3430:3479  require(s_results[roller] == 0, \"Already rolled\") */\n      tag_114\n      jumpi\n      mload(0x40)\n      0x08c379a000000000000000000000000000000000000000000000000000000000\n      dup2\n      mstore\n      0x04\n      add\n      tag_115\n      swap1\n      tag_116\n      jump\t// in\n    tag_115:\n      mload(0x40)\n      dup1\n      swap2\n      sub\n      swap1\n      revert\n    tag_114:\n        /* \"contract/contracts/4_random.sol\":3565:3581  s_vrfCoordinator */\n      0x02\n      0x00\n      swap1\n      sload\n      swap1\n      0x0100\n      exp\n      swap1\n      div\n      0xffffffffffffffffffffffffffffffffffffffff\n      and\n        /* \"contract/contracts/4_random.sol\":3565:3600  s_vrfCoordinator.requestRandomWords */\n      0xffffffffffffffffffffffffffffffffffffffff\n      and\n      0x9b1c385e\n        /* \"contract/contracts/4_random.sol\":3615:4154  VRFV2PlusClient.RandomWordsRequest({... */\n      mload(0x40)\n      dup1\n      0xc0\n      add\n      0x40\n      mstore\n      dup1\n        /* \"contract/contracts/4_random.sol\":3678:3687  s_keyHash */\n      sload(0x05)\n        /* \"contract/contracts/4_random.sol\":3615:4154  VRFV2PlusClient.RandomWordsRequest({... */\n      dup2\n      mstore\n      0x20\n      add\n        /* \"contract/contracts/4_random.sol\":3713:3729  s_subscriptionId */\n      sload(0x03)\n        /* \"contract/contracts/4_random.sol\":3615:4154  VRFV2PlusClient.RandomWordsRequest({... */\n      dup2\n      mstore\n      0x20\n      add\n        /* \"contract/contracts/4_random.sol\":3770:3790  requestConfirmations */\n      0x06\n      0x04\n      swap1\n      sload\n      swap1\n      0x0100\n      exp\n      swap1\n      div\n      0xffff\n      and\n        /* \"contract/contracts/4_random.sol\":3615:4154  VRFV2PlusClient.RandomWordsRequest({... */\n      0xffff\n      and\n      dup2\n      mstore\n      0x20\n      add\n        /* \"contract/contracts/4_random.sol\":3827:3843  callbackGasLimit */\n      0x06\n      0x00\n      swap1\n      sload\n      swap1\n      0x0100\n      exp\n      swap1\n      div\n      0xffffffff\n      and\n        /* \"contract/contracts/4_random.sol\":3615:4154  VRFV2PlusClient.RandomWordsRequest({... */\n      0xffffffff\n      and\n      dup2\n      mstore\n      0x20\n      add\n        /* \"contract/contracts/4_random.sol\":3872:3880  numWords */\n      0x06\n      dup1\n      sload\n      swap1\n      0x0100\n      exp\n      swap1\n      div\n      0xffffffff\n      and\n        /* \"contract/contracts/4_random.sol\":3615:4154  VRFV2PlusClient.RandomWordsRequest({... */\n      0xffffffff\n      and\n      dup2\n      mstore\n      0x20\n      add\n        /* \"contract/contracts/4_random.sol\":3910:4138  VRFV2PlusClient._argsToBytes(... */\n      tag_117\n        /* \"contract/contracts/4_random.sol\":4068:4119  VRFV2PlusClient.ExtraArgsV1({nativePayment: false}) */\n      mload(0x40)\n      dup1\n      0x20\n      add\n      0x40\n      mstore\n      dup1\n        /* \"contract/contracts/4_random.sol\":4112:4117  false */\n      0x00\n        /* \"contract/contracts/4_random.sol\":4068:4119  VRFV2PlusClient.ExtraArgsV1({nativePayment: false}) */\n      iszero\n      iszero\n      dup2\n      mstore\n      pop\n        /* \"contract/contracts/4_random.sol\":3910:3938  VRFV2PlusClient._argsToBytes */\n      tag_118\n        /* \"contract/contracts/4_random.sol\":3910:4138  VRFV2PlusClient._argsToBytes(... */\n      jump\t// in\n    tag_117:\n        /* \"contract/contracts/4_random.sol\":3615:4154  VRFV2PlusClient.RandomWordsRequest({... */\n      dup2\n      mstore\n      pop\n        /* \"contract/contracts/4_random.sol\":3565:4165  s_vrfCoordinator.requestRandomWords(... */\n      mload(0x40)\n      dup3\n      0xffffffff\n      and\n      0xe0\n      shl\n      dup2\n      mstore\n      0x04\n      add\n      tag_119\n      swap2\n      swap1\n      tag_120\n      jump\t// in\n    tag_119:\n      0x20\n      mload(0x40)\n      dup1\n      dup4\n      sub\n      dup2\n      0x00\n      dup8\n      gas\n      call\n      iszero\n      dup1\n      iszero\n      tag_122\n      jumpi\n      returndatasize\n      0x00\n      dup1\n      returndatacopy\n      revert(0x00, returndatasize)\n    tag_122:\n      pop\n      pop\n      pop\n      pop\n      mload(0x40)\n      returndatasize\n      not(0x1f)\n      0x1f\n      dup3\n      add\n      and\n      dup3\n      add\n      dup1\n      0x40\n      mstore\n      pop\n      dup2\n      add\n      swap1\n      tag_123\n      swap2\n      swap1\n      tag_124\n      jump\t// in\n    tag_123:\n        /* \"contract/contracts/4_random.sol\":3553:4165  requestId = s_vrfCoordinator.requestRandomWords(... */\n      swap1\n      pop\n        /* \"contract/contracts/4_random.sol\":4201:4207  roller */\n      dup2\n        /* \"contract/contracts/4_random.sol\":4178:4187  s_rollers */\n      0x09\n        /* \"contract/contracts/4_random.sol\":4178:4198  s_rollers[requestId] */\n      0x00\n        /* \"contract/contracts/4_random.sol\":4188:4197  requestId */\n      dup4\n        /* \"contract/contracts/4_random.sol\":4178:4198  s_rollers[requestId] */\n      dup2\n      mstore\n      0x20\n      add\n      swap1\n      dup2\n      mstore\n      0x20\n      add\n      0x00\n      keccak256\n      0x00\n        /* \"contract/contracts/4_random.sol\":4178:4207  s_rollers[requestId] = roller */\n      0x0100\n      exp\n      dup2\n      sload\n      dup2\n      0xffffffffffffffffffffffffffffffffffffffff\n      mul\n      not\n      and\n      swap1\n      dup4\n      0xffffffffffffffffffffffffffffffffffffffff\n      and\n      mul\n      or\n      swap1\n      sstore\n      pop\n        /* \"contract/contracts/4_random.sol\":892:894  42 */\n      0x2a\n        /* \"contract/contracts/4_random.sol\":4218:4227  s_results */\n      0x0a\n        /* \"contract/contracts/4_random.sol\":4218:4235  s_results[roller] */\n      0x00\n        /* \"contract/contracts/4_random.sol\":4228:4234  roller */\n      dup5\n        /* \"contract/contracts/4_random.sol\":4218:4235  s_results[roller] */\n      0xffffffffffffffffffffffffffffffffffffffff\n      and\n      0xffffffffffffffffffffffffffffffffffffffff\n      and\n      dup2\n      mstore\n      0x20\n      add\n      swap1\n      dup2\n      mstore\n      0x20\n      add\n      0x00\n      keccak256\n        /* \"contract/contracts/4_random.sol\":4218:4254  s_results[roller] = ROLL_IN_PROGRESS */\n      dup2\n      swap1\n      sstore\n      pop\n        /* \"contract/contracts/4_random.sol\":4292:4298  roller */\n      dup2\n        /* \"contract/contracts/4_random.sol\":4270:4299  DiceRolled(requestId, roller) */\n      0xffffffffffffffffffffffffffffffffffffffff\n      and\n        /* \"contract/contracts/4_random.sol\":4281:4290  requestId */\n      dup2\n        /* \"contract/contracts/4_random.sol\":4270:4299  DiceRolled(requestId, roller) */\n      0x3e7fdeab84c01ce5308321caa0b460e1c4ec3c7099223d79634d9a71d99932e3\n      mload(0x40)\n      mload(0x40)\n      dup1\n      swap2\n      sub\n      swap1\n      log3\n        /* \"contract/contracts/4_random.sol\":3324:4307  function rollDice(... */\n      swap2\n      swap1\n      pop\n      jump\t// out\n        /* \"contract/contracts/4_random.sol\":2408:2437  uint256 public random_num = 0 */\n    tag_75:\n      sload(0x08)\n      dup2\n      jump\t// out\n        /* \"@chainlink/contracts@1.1.1/src/v0.8/shared/access/ConfirmedOwnerWithProposal.sol\":847:945  function transferOwnership(address to) public override onlyOwner {... */\n    tag_79:\n        /* \"@chainlink/contracts@1.1.1/src/v0.8/shared/access/ConfirmedOwnerWithProposal.sol\":2075:2095  _validateOwnership() */\n      tag_126\n        /* \"@chainlink/contracts@1.1.1/src/v0.8/shared/access/ConfirmedOwnerWithProposal.sol\":2075:2093  _validateOwnership */\n      tag_112\n        /* \"@chainlink/contracts@1.1.1/src/v0.8/shared/access/ConfirmedOwnerWithProposal.sol\":2075:2095  _validateOwnership() */\n      jump\t// in\n    tag_126:\n        /* \"@chainlink/contracts@1.1.1/src/v0.8/shared/access/ConfirmedOwnerWithProposal.sol\":918:940  _transferOwnership(to) */\n      tag_128\n        /* \"@chainlink/contracts@1.1.1/src/v0.8/shared/access/ConfirmedOwnerWithProposal.sol\":937:939  to */\n      dup2\n        /* \"@chainlink/contracts@1.1.1/src/v0.8/shared/access/ConfirmedOwnerWithProposal.sol\":918:936  _transferOwnership */\n      tag_129\n        /* \"@chainlink/contracts@1.1.1/src/v0.8/shared/access/ConfirmedOwnerWithProposal.sol\":918:940  _transferOwnership(to) */\n      jump\t// in\n    tag_128:\n        /* \"@chainlink/contracts@1.1.1/src/v0.8/shared/access/ConfirmedOwnerWithProposal.sol\":847:945  function transferOwnership(address to) public override onlyOwner {... */\n      pop\n      jump\t// out\n        /* \"contract/contracts/4_random.sol\":5147:5532  function fulfillRandomWords(... */\n    tag_85:\n        /* \"contract/contracts/4_random.sol\":5280:5296  uint256 d20Value */\n      0x00\n        /* \"contract/contracts/4_random.sol\":5323:5324  1 */\n      0x01\n        /* \"contract/contracts/4_random.sol\":5317:5319  20 */\n      0x14\n        /* \"contract/contracts/4_random.sol\":5300:5311  randomWords */\n      dup5\n      dup5\n        /* \"contract/contracts/4_random.sol\":5312:5313  0 */\n      0x00\n        /* \"contract/contracts/4_random.sol\":5300:5314  randomWords[0] */\n      dup2\n      dup2\n      lt\n      tag_131\n      jumpi\n      tag_132\n      tag_133\n      jump\t// in\n    tag_132:\n    tag_131:\n      swap1\n      pop\n      0x20\n      mul\n      add\n      calldataload\n        /* \"contract/contracts/4_random.sol\":5300:5319  randomWords[0] % 20 */\n      tag_134\n      swap2\n      swap1\n      tag_135\n      jump\t// in\n    tag_134:\n        /* \"contract/contracts/4_random.sol\":5299:5324  (randomWords[0] % 20) + 1 */\n      tag_136\n      swap2\n      swap1\n      tag_137\n      jump\t// in\n    tag_136:\n        /* \"contract/contracts/4_random.sol\":5280:5324  uint256 d20Value = (randomWords[0] % 20) + 1 */\n      swap1\n      pop\n        /* \"contract/contracts/4_random.sol\":5369:5377  d20Value */\n      dup1\n        /* \"contract/contracts/4_random.sol\":5335:5344  s_results */\n      0x0a\n        /* \"contract/contracts/4_random.sol\":5335:5366  s_results[s_rollers[requestId]] */\n      0x00\n        /* \"contract/contracts/4_random.sol\":5345:5354  s_rollers */\n      0x09\n        /* \"contract/contracts/4_random.sol\":5345:5365  s_rollers[requestId] */\n      0x00\n        /* \"contract/contracts/4_random.sol\":5355:5364  requestId */\n      dup9\n        /* \"contract/contracts/4_random.sol\":5345:5365  s_rollers[requestId] */\n      dup2\n      mstore\n      0x20\n      add\n      swap1\n      dup2\n      mstore\n      0x20\n      add\n      0x00\n      keccak256\n      0x00\n      swap1\n      sload\n      swap1\n      0x0100\n      exp\n      swap1\n      div\n      0xffffffffffffffffffffffffffffffffffffffff\n      and\n        /* \"contract/contracts/4_random.sol\":5335:5366  s_results[s_rollers[requestId]] */\n      0xffffffffffffffffffffffffffffffffffffffff\n      and\n      0xffffffffffffffffffffffffffffffffffffffff\n      and\n      dup2\n      mstore\n      0x20\n      add\n      swap1\n      dup2\n      mstore\n      0x20\n      add\n      0x00\n      keccak256\n        /* \"contract/contracts/4_random.sol\":5335:5377  s_results[s_rollers[requestId]] = d20Value */\n      dup2\n      swap1\n      sstore\n      pop\n        /* \"contract/contracts/4_random.sol\":5415:5423  d20Value */\n      dup1\n        /* \"contract/contracts/4_random.sol\":5404:5413  requestId */\n      dup5\n        /* \"contract/contracts/4_random.sol\":5393:5424  DiceLanded(requestId, d20Value) */\n      0x54d97c1f7e5abad75bd421455cd4dd296852a52e1ea721f2cdb66d06fa2082a9\n      mload(0x40)\n      mload(0x40)\n      dup1\n      swap2\n      sub\n      swap1\n      log3\n        /* \"contract/contracts/4_random.sol\":5468:5474  length */\n      sload(0x07)\n        /* \"contract/contracts/4_random.sol\":5451:5462  randomWords */\n      dup4\n      dup4\n        /* \"contract/contracts/4_random.sol\":5463:5464  0 */\n      0x00\n        /* \"contract/contracts/4_random.sol\":5451:5465  randomWords[0] */\n      dup2\n      dup2\n      lt\n      tag_138\n      jumpi\n      tag_139\n      tag_133\n      jump\t// in\n    tag_139:\n    tag_138:\n      swap1\n      pop\n      0x20\n      mul\n      add\n      calldataload\n        /* \"contract/contracts/4_random.sol\":5451:5474  randomWords[0] % length */\n      tag_140\n      swap2\n      swap1\n      tag_135\n      jump\t// in\n    tag_140:\n        /* \"contract/contracts/4_random.sol\":5437:5447  random_num */\n      0x08\n        /* \"contract/contracts/4_random.sol\":5437:5475  random_num = (randomWords[0] % length) */\n      dup2\n      swap1\n      sstore\n      pop\n        /* \"contract/contracts/4_random.sol\":5513:5523  random_num */\n      sload(0x08)\n        /* \"contract/contracts/4_random.sol\":5491:5524  RandomNumberGenerated(random_num) */\n      0xacb85192b17e57cdd6ffdc2af021cc70c3a2269771b37b82dd36695fec903af5\n      mload(0x40)\n      mload(0x40)\n      dup1\n      swap2\n      sub\n      swap1\n      log2\n        /* \"contract/contracts/4_random.sol\":5269:5532  {... */\n      pop\n        /* \"contract/contracts/4_random.sol\":5147:5532  function fulfillRandomWords(... */\n      pop\n      pop\n      pop\n      jump\t// out\n        /* \"contract/contracts/4_random.sol\":6099:6740  function _getHouseName(uint256 id) private pure returns (string memory) {... */\n    tag_109:\n        /* \"contract/contracts/4_random.sol\":6156:6169  string memory */\n      0x60\n        /* \"contract/contracts/4_random.sol\":6182:6210  string[20] memory houseNames */\n      0x00\n        /* \"contract/contracts/4_random.sol\":6182:6696  string[20] memory houseNames = [... */\n      mload(0x40)\n      dup1\n      0x0280\n      add\n      0x40\n      mstore\n      dup1\n      mload(0x40)\n      dup1\n      0x40\n      add\n      0x40\n      mstore\n      dup1\n      0x09\n      dup2\n      mstore\n      0x20\n      add\n      0x54617267617279656e0000000000000000000000000000000000000000000000\n      dup2\n      mstore\n      pop\n      dup2\n      mstore\n      0x20\n      add\n      mload(0x40)\n      dup1\n      0x40\n      add\n      0x40\n      mstore\n      dup1\n      0x09\n      dup2\n      mstore\n      0x20\n      add\n      0x4c616e6e69737465720000000000000000000000000000000000000000000000\n      dup2\n      mstore\n      pop\n      dup2\n      mstore\n      0x20\n      add\n      mload(0x40)\n      dup1\n      0x40\n      add\n      0x40\n      mstore\n      dup1\n      0x05\n      dup2\n      mstore\n      0x20\n      add\n      0x537461726b000000000000000000000000000000000000000000000000000000\n      dup2\n      mstore\n      pop\n      dup2\n      mstore\n      0x20\n      add\n      mload(0x40)\n      dup1\n      0x40\n      add\n      0x40\n      mstore\n      dup1\n      0x06\n      dup2\n      mstore\n      0x20\n      add\n      0x547972656c6c0000000000000000000000000000000000000000000000000000\n      dup2\n      mstore\n      pop\n      dup2\n      mstore\n      0x20\n      add\n      mload(0x40)\n      dup1\n      0x40\n      add\n      0x40\n      mstore\n      dup1\n      0x09\n      dup2\n      mstore\n      0x20\n      add\n      0x426172617468656f6e0000000000000000000000000000000000000000000000\n      dup2\n      mstore\n      pop\n      dup2\n      mstore\n      0x20\n      add\n      mload(0x40)\n      dup1\n      0x40\n      add\n      0x40\n      mstore\n      dup1\n      0x07\n      dup2\n      mstore\n      0x20\n      add\n      0x4d617274656c6c00000000000000000000000000000000000000000000000000\n      dup2\n      mstore\n      pop\n      dup2\n      mstore\n      0x20\n      add\n      mload(0x40)\n      dup1\n      0x40\n      add\n      0x40\n      mstore\n      dup1\n      0x05\n      dup2\n      mstore\n      0x20\n      add\n      0x54756c6c79000000000000000000000000000000000000000000000000000000\n      dup2\n      mstore\n      pop\n      dup2\n      mstore\n      0x20\n      add\n      mload(0x40)\n      dup1\n      0x40\n      add\n      0x40\n      mstore\n      dup1\n      0x06\n      dup2\n      mstore\n      0x20\n      add\n      0x426f6c746f6e0000000000000000000000000000000000000000000000000000\n      dup2\n      mstore\n      pop\n      dup2\n      mstore\n      0x20\n      add\n      mload(0x40)\n      dup1\n      0x40\n      add\n      0x40\n      mstore\n      dup1\n      0x07\n      dup2\n      mstore\n      0x20\n      add\n      0x477265796a6f7900000000000000000000000000000000000000000000000000\n      dup2\n      mstore\n      pop\n      dup2\n      mstore\n      0x20\n      add\n      mload(0x40)\n      dup1\n      0x40\n      add\n      0x40\n      mstore\n      dup1\n      0x05\n      dup2\n      mstore\n      0x20\n      add\n      0x417272796e000000000000000000000000000000000000000000000000000000\n      dup2\n      mstore\n      pop\n      dup2\n      mstore\n      0x20\n      add\n      mload(0x40)\n      dup1\n      0x40\n      add\n      0x40\n      mstore\n      dup1\n      0x04\n      dup2\n      mstore\n      0x20\n      add\n      0x4672657900000000000000000000000000000000000000000000000000000000\n      dup2\n      mstore\n      pop\n      dup2\n      mstore\n      0x20\n      add\n      mload(0x40)\n      dup1\n      0x40\n      add\n      0x40\n      mstore\n      dup1\n      0x07\n      dup2\n      mstore\n      0x20\n      add\n      0x4d6f726d6f6e7400000000000000000000000000000000000000000000000000\n      dup2\n      mstore\n      pop\n      dup2\n      mstore\n      0x20\n      add\n      mload(0x40)\n      dup1\n      0x40\n      add\n      0x40\n      mstore\n      dup1\n      0x06\n      dup2\n      mstore\n      0x20\n      add\n      0x5461726c65790000000000000000000000000000000000000000000000000000\n      dup2\n      mstore\n      pop\n      dup2\n      mstore\n      0x20\n      add\n      mload(0x40)\n      dup1\n      0x40\n      add\n      0x40\n      mstore\n      dup1\n      0x05\n      dup2\n      mstore\n      0x20\n      add\n      0x4461796e65000000000000000000000000000000000000000000000000000000\n      dup2\n      mstore\n      pop\n      dup2\n      mstore\n      0x20\n      add\n      mload(0x40)\n      dup1\n      0x40\n      add\n      0x40\n      mstore\n      dup1\n      0x05\n      dup2\n      mstore\n      0x20\n      add\n      0x556d626572000000000000000000000000000000000000000000000000000000\n      dup2\n      mstore\n      pop\n      dup2\n      mstore\n      0x20\n      add\n      mload(0x40)\n      dup1\n      0x40\n      add\n      0x40\n      mstore\n      dup1\n      0x08\n      dup2\n      mstore\n      0x20\n      add\n      0x56616c6572796f6e000000000000000000000000000000000000000000000000\n      dup2\n      mstore\n      pop\n      dup2\n      mstore\n      0x20\n      add\n      mload(0x40)\n      dup1\n      0x40\n      add\n      0x40\n      mstore\n      dup1\n      0x08\n      dup2\n      mstore\n      0x20\n      add\n      0x4d616e6465726c79000000000000000000000000000000000000000000000000\n      dup2\n      mstore\n      pop\n      dup2\n      mstore\n      0x20\n      add\n      mload(0x40)\n      dup1\n      0x40\n      add\n      0x40\n      mstore\n      dup1\n      0x07\n      dup2\n      mstore\n      0x20\n      add\n      0x436c6567616e6500000000000000000000000000000000000000000000000000\n      dup2\n      mstore\n      pop\n      dup2\n      mstore\n      0x20\n      add\n      mload(0x40)\n      dup1\n      0x40\n      add\n      0x40\n      mstore\n      dup1\n      0x06\n      dup2\n      mstore\n      0x20\n      add\n      0x476c6f7665720000000000000000000000000000000000000000000000000000\n      dup2\n      mstore\n      pop\n      dup2\n      mstore\n      0x20\n      add\n      mload(0x40)\n      dup1\n      0x40\n      add\n      0x40\n      mstore\n      dup1\n      0x08\n      dup2\n      mstore\n      0x20\n      add\n      0x4b6172737461726b000000000000000000000000000000000000000000000000\n      dup2\n      mstore\n      pop\n      dup2\n      mstore\n      pop\n      swap1\n      pop\n        /* \"contract/contracts/4_random.sol\":6714:6724  houseNames */\n      dup1\n        /* \"contract/contracts/4_random.sol\":6730:6731  1 */\n      0x01\n        /* \"contract/contracts/4_random.sol\":6725:6727  id */\n      dup5\n        /* \"contract/contracts/4_random.sol\":6725:6731  id - 1 */\n      tag_142\n      swap2\n      swap1\n      tag_143\n      jump\t// in\n    tag_142:\n        /* \"contract/contracts/4_random.sol\":6714:6732  houseNames[id - 1] */\n      0x14\n      dup2\n      lt\n      tag_144\n      jumpi\n      tag_145\n      tag_133\n      jump\t// in\n    tag_145:\n    tag_144:\n      0x20\n      mul\n      add\n      mload\n        /* \"contract/contracts/4_random.sol\":6707:6732  return houseNames[id - 1] */\n      swap2\n      pop\n      pop\n        /* \"contract/contracts/4_random.sol\":6099:6740  function _getHouseName(uint256 id) private pure returns (string memory) {... */\n      swap2\n      swap1\n      pop\n      jump\t// out\n        /* \"@chainlink/contracts@1.1.1/src/v0.8/shared/access/ConfirmedOwnerWithProposal.sol\":1809:1971  function _validateOwnership() internal view {... */\n    tag_112:\n        /* \"@chainlink/contracts@1.1.1/src/v0.8/shared/access/ConfirmedOwnerWithProposal.sol\":1932:1939  s_owner */\n      0x00\n      dup1\n      sload\n      swap1\n      0x0100\n      exp\n      swap1\n      div\n      0xffffffffffffffffffffffffffffffffffffffff\n      and\n        /* \"@chainlink/contracts@1.1.1/src/v0.8/shared/access/ConfirmedOwnerWithProposal.sol\":1918:1939  msg.sender == s_owner */\n      0xffffffffffffffffffffffffffffffffffffffff\n      and\n        /* \"@chainlink/contracts@1.1.1/src/v0.8/shared/access/ConfirmedOwnerWithProposal.sol\":1918:1928  msg.sender */\n      caller\n        /* \"@chainlink/contracts@1.1.1/src/v0.8/shared/access/ConfirmedOwnerWithProposal.sol\":1918:1939  msg.sender == s_owner */\n      0xffffffffffffffffffffffffffffffffffffffff\n      and\n      eq\n        /* \"@chainlink/contracts@1.1.1/src/v0.8/shared/access/ConfirmedOwnerWithProposal.sol\":1910:1966  require(msg.sender == s_owner, \"Only callable by owner\") */\n      tag_147\n      jumpi\n      mload(0x40)\n      0x08c379a000000000000000000000000000000000000000000000000000000000\n      dup2\n      mstore\n      0x04\n      add\n      tag_148\n      swap1\n      tag_149\n      jump\t// in\n    tag_148:\n      mload(0x40)\n      dup1\n      swap2\n      sub\n      swap1\n      revert\n    tag_147:\n        /* \"@chainlink/contracts@1.1.1/src/v0.8/shared/access/ConfirmedOwnerWithProposal.sol\":1809:1971  function _validateOwnership() internal view {... */\n      jump\t// out\n        /* \"@chainlink/contracts@1.1.1/src/v0.8/vrf/dev/libraries/VRFV2PlusClient.sol\":475:638  function _argsToBytes(ExtraArgsV1 memory extraArgs) internal pure returns (bytes memory bts) {... */\n    tag_118:\n        /* \"@chainlink/contracts@1.1.1/src/v0.8/vrf/dev/libraries/VRFV2PlusClient.sol\":550:566  bytes memory bts */\n      0x60\n        /* \"@chainlink/contracts@1.1.1/src/v0.8/vrf/dev/libraries/VRFV2PlusClient.sol\":211:239  keccak256(\"VRF ExtraArgsV1\") */\n      0x92fd13387c7fe7befbc38d303d6468778fb9731bc4583f17d92989c6fcfdeaaa\n        /* \"@chainlink/contracts@1.1.1/src/v0.8/vrf/dev/libraries/VRFV2PlusClient.sol\":623:632  extraArgs */\n      dup3\n        /* \"@chainlink/contracts@1.1.1/src/v0.8/vrf/dev/libraries/VRFV2PlusClient.sol\":581:633  abi.encodeWithSelector(EXTRA_ARGS_V1_TAG, extraArgs) */\n      add(0x24, mload(0x40))\n      tag_151\n      swap2\n      swap1\n      tag_152\n      jump\t// in\n    tag_151:\n      mload(0x40)\n      0x20\n      dup2\n      dup4\n      sub\n      sub\n      dup2\n      mstore\n      swap1\n      0x40\n      mstore\n      swap1\n      not(0xffffffffffffffffffffffffffffffffffffffffffffffffffffffff)\n      and\n      0x20\n      dup3\n      add\n      dup1\n      mload\n      0xffffffffffffffffffffffffffffffffffffffffffffffffffffffff\n      dup4\n      dup2\n      dup4\n      and\n      or\n      dup4\n      mstore\n      pop\n      pop\n      pop\n      pop\n        /* \"@chainlink/contracts@1.1.1/src/v0.8/vrf/dev/libraries/VRFV2PlusClient.sol\":574:633  return abi.encodeWithSelector(EXTRA_ARGS_V1_TAG, extraArgs) */\n      swap1\n      pop\n        /* \"@chainlink/contracts@1.1.1/src/v0.8/vrf/dev/libraries/VRFV2PlusClient.sol\":475:638  function _argsToBytes(ExtraArgsV1 memory extraArgs) internal pure returns (bytes memory bts) {... */\n      swap2\n      swap1\n      pop\n      jump\t// out\n        /* \"@chainlink/contracts@1.1.1/src/v0.8/shared/access/ConfirmedOwnerWithProposal.sol\":1536:1775  function _transferOwnership(address to) private {... */\n    tag_129:\n        /* \"@chainlink/contracts@1.1.1/src/v0.8/shared/access/ConfirmedOwnerWithProposal.sol\":1655:1665  msg.sender */\n      caller\n        /* \"@chainlink/contracts@1.1.1/src/v0.8/shared/access/ConfirmedOwnerWithProposal.sol\":1649:1665  to != msg.sender */\n      0xffffffffffffffffffffffffffffffffffffffff\n      and\n        /* \"@chainlink/contracts@1.1.1/src/v0.8/shared/access/ConfirmedOwnerWithProposal.sol\":1649:1651  to */\n      dup2\n        /* \"@chainlink/contracts@1.1.1/src/v0.8/shared/access/ConfirmedOwnerWithProposal.sol\":1649:1665  to != msg.sender */\n      0xffffffffffffffffffffffffffffffffffffffff\n      and\n      sub\n        /* \"@chainlink/contracts@1.1.1/src/v0.8/shared/access/ConfirmedOwnerWithProposal.sol\":1641:1693  require(to != msg.sender, \"Cannot transfer to self\") */\n      tag_154\n      jumpi\n      mload(0x40)\n      0x08c379a000000000000000000000000000000000000000000000000000000000\n      dup2\n      mstore\n      0x04\n      add\n      tag_155\n      swap1\n      tag_156\n      jump\t// in\n    tag_155:\n      mload(0x40)\n      dup1\n      swap2\n      sub\n      swap1\n      revert\n    tag_154:\n        /* \"@chainlink/contracts@1.1.1/src/v0.8/shared/access/ConfirmedOwnerWithProposal.sol\":1717:1719  to */\n      dup1\n        /* \"@chainlink/contracts@1.1.1/src/v0.8/shared/access/ConfirmedOwnerWithProposal.sol\":1700:1714  s_pendingOwner */\n      0x01\n      0x00\n        /* \"@chainlink/contracts@1.1.1/src/v0.8/shared/access/ConfirmedOwnerWithProposal.sol\":1700:1719  s_pendingOwner = to */\n      0x0100\n      exp\n      dup2\n      sload\n      dup2\n      0xffffffffffffffffffffffffffffffffffffffff\n      mul\n      not\n      and\n      swap1\n      dup4\n      0xffffffffffffffffffffffffffffffffffffffff\n      and\n      mul\n      or\n      swap1\n      sstore\n      pop\n        /* \"@chainlink/contracts@1.1.1/src/v0.8/shared/access/ConfirmedOwnerWithProposal.sol\":1767:1769  to */\n      dup1\n        /* \"@chainlink/contracts@1.1.1/src/v0.8/shared/access/ConfirmedOwnerWithProposal.sol\":1731:1770  OwnershipTransferRequested(s_owner, to) */\n      0xffffffffffffffffffffffffffffffffffffffff\n      and\n        /* \"@chainlink/contracts@1.1.1/src/v0.8/shared/access/ConfirmedOwnerWithProposal.sol\":1758:1765  s_owner */\n      0x00\n      dup1\n      sload\n      swap1\n      0x0100\n      exp\n      swap1\n      div\n      0xffffffffffffffffffffffffffffffffffffffff\n      and\n        /* \"@chainlink/contracts@1.1.1/src/v0.8/shared/access/ConfirmedOwnerWithProposal.sol\":1731:1770  OwnershipTransferRequested(s_owner, to) */\n      0xffffffffffffffffffffffffffffffffffffffff\n      and\n      0xed8889f560326eb138920d842192f0eb3dd22b4f139c87a2c57538e05bae1278\n      mload(0x40)\n      mload(0x40)\n      dup1\n      swap2\n      sub\n      swap1\n      log3\n        /* \"@chainlink/contracts@1.1.1/src/v0.8/shared/access/ConfirmedOwnerWithProposal.sol\":1536:1775  function _transferOwnership(address to) private {... */\n      pop\n      jump\t// out\n        /* \"#utility.yul\":7:84   */\n    tag_157:\n        /* \"#utility.yul\":44:51   */\n      0x00\n        /* \"#utility.yul\":73:78   */\n      dup2\n        /* \"#utility.yul\":62:78   */\n      swap1\n      pop\n        /* \"#utility.yul\":7:84   */\n      swap2\n      swap1\n      pop\n      jump\t// out\n        /* \"#utility.yul\":90:208   */\n    tag_158:\n        /* \"#utility.yul\":177:201   */\n      tag_218\n        /* \"#utility.yul\":195:200   */\n      dup2\n        /* \"#utility.yul\":177:201   */\n      tag_157\n      jump\t// in\n    tag_218:\n        /* \"#utility.yul\":172:175   */\n      dup3\n        /* \"#utility.yul\":165:202   */\n      mstore\n        /* \"#utility.yul\":90:208   */\n      pop\n      pop\n      jump\t// out\n        /* \"#utility.yul\":214:436   */\n    tag_25:\n        /* \"#utility.yul\":307:311   */\n      0x00\n        /* \"#utility.yul\":345:347   */\n      0x20\n        /* \"#utility.yul\":334:343   */\n      dup3\n        /* \"#utility.yul\":330:348   */\n      add\n        /* \"#utility.yul\":322:348   */\n      swap1\n      pop\n        /* \"#utility.yul\":358:429   */\n      tag_220\n        /* \"#utility.yul\":426:427   */\n      0x00\n        /* \"#utility.yul\":415:424   */\n      dup4\n        /* \"#utility.yul\":411:428   */\n      add\n        /* \"#utility.yul\":402:408   */\n      dup5\n        /* \"#utility.yul\":358:429   */\n      tag_158\n      jump\t// in\n    tag_220:\n        /* \"#utility.yul\":214:436   */\n      swap3\n      swap2\n      pop\n      pop\n      jump\t// out\n        /* \"#utility.yul\":523:640   */\n    tag_160:\n        /* \"#utility.yul\":632:633   */\n      0x00\n        /* \"#utility.yul\":629:630   */\n      dup1\n        /* \"#utility.yul\":622:634   */\n      revert\n        /* \"#utility.yul\":646:763   */\n    tag_161:\n        /* \"#utility.yul\":755:756   */\n      0x00\n        /* \"#utility.yul\":752:753   */\n      dup1\n        /* \"#utility.yul\":745:757   */\n      revert\n        /* \"#utility.yul\":769:891   */\n    tag_162:\n        /* \"#utility.yul\":842:866   */\n      tag_225\n        /* \"#utility.yul\":860:865   */\n      dup2\n        /* \"#utility.yul\":842:866   */\n      tag_157\n      jump\t// in\n    tag_225:\n        /* \"#utility.yul\":835:840   */\n      dup2\n        /* \"#utility.yul\":832:867   */\n      eq\n        /* \"#utility.yul\":822:885   */\n      tag_226\n      jumpi\n        /* \"#utility.yul\":881:882   */\n      0x00\n        /* \"#utility.yul\":878:879   */\n      dup1\n        /* \"#utility.yul\":871:883   */\n      revert\n        /* \"#utility.yul\":822:885   */\n    tag_226:\n        /* \"#utility.yul\":769:891   */\n      pop\n      jump\t// out\n        /* \"#utility.yul\":897:1036   */\n    tag_163:\n        /* \"#utility.yul\":943:948   */\n      0x00\n        /* \"#utility.yul\":981:987   */\n      dup2\n        /* \"#utility.yul\":968:988   */\n      calldataload\n        /* \"#utility.yul\":959:988   */\n      swap1\n      pop\n        /* \"#utility.yul\":997:1030   */\n      tag_228\n        /* \"#utility.yul\":1024:1029   */\n      dup2\n        /* \"#utility.yul\":997:1030   */\n      tag_162\n      jump\t// in\n    tag_228:\n        /* \"#utility.yul\":897:1036   */\n      swap3\n      swap2\n      pop\n      pop\n      jump\t// out\n        /* \"#utility.yul\":1042:1159   */\n    tag_164:\n        /* \"#utility.yul\":1151:1152   */\n      0x00\n        /* \"#utility.yul\":1148:1149   */\n      dup1\n        /* \"#utility.yul\":1141:1153   */\n      revert\n        /* \"#utility.yul\":1165:1282   */\n    tag_165:\n        /* \"#utility.yul\":1274:1275   */\n      0x00\n        /* \"#utility.yul\":1271:1272   */\n      dup1\n        /* \"#utility.yul\":1264:1276   */\n      revert\n        /* \"#utility.yul\":1288:1405   */\n    tag_166:\n        /* \"#utility.yul\":1397:1398   */\n      0x00\n        /* \"#utility.yul\":1394:1395   */\n      dup1\n        /* \"#utility.yul\":1387:1399   */\n      revert\n        /* \"#utility.yul\":1428:1996   */\n    tag_167:\n        /* \"#utility.yul\":1501:1509   */\n      0x00\n        /* \"#utility.yul\":1511:1517   */\n      dup1\n        /* \"#utility.yul\":1561:1564   */\n      dup4\n        /* \"#utility.yul\":1554:1558   */\n      0x1f\n        /* \"#utility.yul\":1546:1552   */\n      dup5\n        /* \"#utility.yul\":1542:1559   */\n      add\n        /* \"#utility.yul\":1538:1565   */\n      slt\n        /* \"#utility.yul\":1528:1650   */\n      tag_233\n      jumpi\n        /* \"#utility.yul\":1569:1648   */\n      tag_234\n      tag_164\n      jump\t// in\n    tag_234:\n        /* \"#utility.yul\":1528:1650   */\n    tag_233:\n        /* \"#utility.yul\":1682:1688   */\n      dup3\n        /* \"#utility.yul\":1669:1689   */\n      calldataload\n        /* \"#utility.yul\":1659:1689   */\n      swap1\n      pop\n        /* \"#utility.yul\":1712:1730   */\n      0xffffffffffffffff\n        /* \"#utility.yul\":1704:1710   */\n      dup2\n        /* \"#utility.yul\":1701:1731   */\n      gt\n        /* \"#utility.yul\":1698:1815   */\n      iszero\n      tag_235\n      jumpi\n        /* \"#utility.yul\":1734:1813   */\n      tag_236\n      tag_165\n      jump\t// in\n    tag_236:\n        /* \"#utility.yul\":1698:1815   */\n    tag_235:\n        /* \"#utility.yul\":1848:1852   */\n      0x20\n        /* \"#utility.yul\":1840:1846   */\n      dup4\n        /* \"#utility.yul\":1836:1853   */\n      add\n        /* \"#utility.yul\":1824:1853   */\n      swap2\n      pop\n        /* \"#utility.yul\":1902:1905   */\n      dup4\n        /* \"#utility.yul\":1894:1898   */\n      0x20\n        /* \"#utility.yul\":1886:1892   */\n      dup3\n        /* \"#utility.yul\":1882:1899   */\n      mul\n        /* \"#utility.yul\":1872:1880   */\n      dup4\n        /* \"#utility.yul\":1868:1900   */\n      add\n        /* \"#utility.yul\":1865:1906   */\n      gt\n        /* \"#utility.yul\":1862:1990   */\n      iszero\n      tag_237\n      jumpi\n        /* \"#utility.yul\":1909:1988   */\n      tag_238\n      tag_166\n      jump\t// in\n    tag_238:\n        /* \"#utility.yul\":1862:1990   */\n    tag_237:\n        /* \"#utility.yul\":1428:1996   */\n      swap3\n      pop\n      swap3\n      swap1\n      pop\n      jump\t// out\n        /* \"#utility.yul\":2002:2706   */\n    tag_28:\n        /* \"#utility.yul\":2097:2103   */\n      0x00\n        /* \"#utility.yul\":2105:2111   */\n      dup1\n        /* \"#utility.yul\":2113:2119   */\n      0x00\n        /* \"#utility.yul\":2162:2164   */\n      0x40\n        /* \"#utility.yul\":2150:2159   */\n      dup5\n        /* \"#utility.yul\":2141:2148   */\n      dup7\n        /* \"#utility.yul\":2137:2160   */\n      sub\n        /* \"#utility.yul\":2133:2165   */\n      slt\n        /* \"#utility.yul\":2130:2249   */\n      iszero\n      tag_240\n      jumpi\n        /* \"#utility.yul\":2168:2247   */\n      tag_241\n      tag_160\n      jump\t// in\n    tag_241:\n        /* \"#utility.yul\":2130:2249   */\n    tag_240:\n        /* \"#utility.yul\":2288:2289   */\n      0x00\n        /* \"#utility.yul\":2313:2366   */\n      tag_242\n        /* \"#utility.yul\":2358:2365   */\n      dup7\n        /* \"#utility.yul\":2349:2355   */\n      dup3\n        /* \"#utility.yul\":2338:2347   */\n      dup8\n        /* \"#utility.yul\":2334:2356   */\n      add\n        /* \"#utility.yul\":2313:2366   */\n      tag_163\n      jump\t// in\n    tag_242:\n        /* \"#utility.yul\":2303:2366   */\n      swap4\n      pop\n        /* \"#utility.yul\":2259:2376   */\n      pop\n        /* \"#utility.yul\":2443:2445   */\n      0x20\n        /* \"#utility.yul\":2432:2441   */\n      dup5\n        /* \"#utility.yul\":2428:2446   */\n      add\n        /* \"#utility.yul\":2415:2447   */\n      calldataload\n        /* \"#utility.yul\":2474:2492   */\n      0xffffffffffffffff\n        /* \"#utility.yul\":2466:2472   */\n      dup2\n        /* \"#utility.yul\":2463:2493   */\n      gt\n        /* \"#utility.yul\":2460:2577   */\n      iszero\n      tag_243\n      jumpi\n        /* \"#utility.yul\":2496:2575   */\n      tag_244\n      tag_161\n      jump\t// in\n    tag_244:\n        /* \"#utility.yul\":2460:2577   */\n    tag_243:\n        /* \"#utility.yul\":2609:2689   */\n      tag_245\n        /* \"#utility.yul\":2681:2688   */\n      dup7\n        /* \"#utility.yul\":2672:2678   */\n      dup3\n        /* \"#utility.yul\":2661:2670   */\n      dup8\n        /* \"#utility.yul\":2657:2679   */\n      add\n        /* \"#utility.yul\":2609:2689   */\n      tag_167\n      jump\t// in\n    tag_245:\n        /* \"#utility.yul\":2591:2689   */\n      swap3\n      pop\n      swap3\n      pop\n        /* \"#utility.yul\":2386:2699   */\n      pop\n        /* \"#utility.yul\":2002:2706   */\n      swap3\n      pop\n      swap3\n      pop\n      swap3\n      jump\t// out\n        /* \"#utility.yul\":2712:2805   */\n    tag_168:\n        /* \"#utility.yul\":2748:2755   */\n      0x00\n        /* \"#utility.yul\":2788:2798   */\n      0xffffffff\n        /* \"#utility.yul\":2781:2786   */\n      dup3\n        /* \"#utility.yul\":2777:2799   */\n      and\n        /* \"#utility.yul\":2766:2799   */\n      swap1\n      pop\n        /* \"#utility.yul\":2712:2805   */\n      swap2\n      swap1\n      pop\n      jump\t// out\n        /* \"#utility.yul\":2811:2926   */\n    tag_169:\n        /* \"#utility.yul\":2896:2919   */\n      tag_248\n        /* \"#utility.yul\":2913:2918   */\n      dup2\n        /* \"#utility.yul\":2896:2919   */\n      tag_168\n      jump\t// in\n    tag_248:\n        /* \"#utility.yul\":2891:2894   */\n      dup3\n        /* \"#utility.yul\":2884:2920   */\n      mstore\n        /* \"#utility.yul\":2811:2926   */\n      pop\n      pop\n      jump\t// out\n        /* \"#utility.yul\":2932:3150   */\n    tag_33:\n        /* \"#utility.yul\":3023:3027   */\n      0x00\n        /* \"#utility.yul\":3061:3063   */\n      0x20\n        /* \"#utility.yul\":3050:3059   */\n      dup3\n        /* \"#utility.yul\":3046:3064   */\n      add\n        /* \"#utility.yul\":3038:3064   */\n      swap1\n      pop\n        /* \"#utility.yul\":3074:3143   */\n      tag_250\n        /* \"#utility.yul\":3140:3141   */\n      0x00\n        /* \"#utility.yul\":3129:3138   */\n      dup4\n        /* \"#utility.yul\":3125:3142   */\n      add\n        /* \"#utility.yul\":3116:3122   */\n      dup5\n        /* \"#utility.yul\":3074:3143   */\n      tag_169\n      jump\t// in\n    tag_250:\n        /* \"#utility.yul\":2932:3150   */\n      swap3\n      swap2\n      pop\n      pop\n      jump\t// out\n        /* \"#utility.yul\":3156:3233   */\n    tag_170:\n        /* \"#utility.yul\":3193:3200   */\n      0x00\n        /* \"#utility.yul\":3222:3227   */\n      dup2\n        /* \"#utility.yul\":3211:3227   */\n      swap1\n      pop\n        /* \"#utility.yul\":3156:3233   */\n      swap2\n      swap1\n      pop\n      jump\t// out\n        /* \"#utility.yul\":3239:3357   */\n    tag_171:\n        /* \"#utility.yul\":3326:3350   */\n      tag_253\n        /* \"#utility.yul\":3344:3349   */\n      dup2\n        /* \"#utility.yul\":3326:3350   */\n      tag_170\n      jump\t// in\n    tag_253:\n        /* \"#utility.yul\":3321:3324   */\n      dup3\n        /* \"#utility.yul\":3314:3351   */\n      mstore\n        /* \"#utility.yul\":3239:3357   */\n      pop\n      pop\n      jump\t// out\n        /* \"#utility.yul\":3363:3585   */\n    tag_37:\n        /* \"#utility.yul\":3456:3460   */\n      0x00\n        /* \"#utility.yul\":3494:3496   */\n      0x20\n        /* \"#utility.yul\":3483:3492   */\n      dup3\n        /* \"#utility.yul\":3479:3497   */\n      add\n        /* \"#utility.yul\":3471:3497   */\n      swap1\n      pop\n        /* \"#utility.yul\":3507:3578   */\n      tag_255\n        /* \"#utility.yul\":3575:3576   */\n      0x00\n        /* \"#utility.yul\":3564:3573   */\n      dup4\n        /* \"#utility.yul\":3560:3577   */\n      add\n        /* \"#utility.yul\":3551:3557   */\n      dup5\n        /* \"#utility.yul\":3507:3578   */\n      tag_171\n      jump\t// in\n    tag_255:\n        /* \"#utility.yul\":3363:3585   */\n      swap3\n      swap2\n      pop\n      pop\n      jump\t// out\n        /* \"#utility.yul\":3591:3717   */\n    tag_172:\n        /* \"#utility.yul\":3628:3635   */\n      0x00\n        /* \"#utility.yul\":3668:3710   */\n      0xffffffffffffffffffffffffffffffffffffffff\n        /* \"#utility.yul\":3661:3666   */\n      dup3\n        /* \"#utility.yul\":3657:3711   */\n      and\n        /* \"#utility.yul\":3646:3711   */\n      swap1\n      pop\n        /* \"#utility.yul\":3591:3717   */\n      swap2\n      swap1\n      pop\n      jump\t// out\n        /* \"#utility.yul\":3723:3819   */\n    tag_173:\n        /* \"#utility.yul\":3760:3767   */\n      0x00\n        /* \"#utility.yul\":3789:3813   */\n      tag_258\n        /* \"#utility.yul\":3807:3812   */\n      dup3\n        /* \"#utility.yul\":3789:3813   */\n      tag_172\n      jump\t// in\n    tag_258:\n        /* \"#utility.yul\":3778:3813   */\n      swap1\n      pop\n        /* \"#utility.yul\":3723:3819   */\n      swap2\n      swap1\n      pop\n      jump\t// out\n        /* \"#utility.yul\":3825:3943   */\n    tag_174:\n        /* \"#utility.yul\":3912:3936   */\n      tag_260\n        /* \"#utility.yul\":3930:3935   */\n      dup2\n        /* \"#utility.yul\":3912:3936   */\n      tag_173\n      jump\t// in\n    tag_260:\n        /* \"#utility.yul\":3907:3910   */\n      dup3\n        /* \"#utility.yul\":3900:3937   */\n      mstore\n        /* \"#utility.yul\":3825:3943   */\n      pop\n      pop\n      jump\t// out\n        /* \"#utility.yul\":3949:4171   */\n    tag_49:\n        /* \"#utility.yul\":4042:4046   */\n      0x00\n        /* \"#utility.yul\":4080:4082   */\n      0x20\n        /* \"#utility.yul\":4069:4078   */\n      dup3\n        /* \"#utility.yul\":4065:4083   */\n      add\n        /* \"#utility.yul\":4057:4083   */\n      swap1\n      pop\n        /* \"#utility.yul\":4093:4164   */\n      tag_262\n        /* \"#utility.yul\":4161:4162   */\n      0x00\n        /* \"#utility.yul\":4150:4159   */\n      dup4\n        /* \"#utility.yul\":4146:4163   */\n      add\n        /* \"#utility.yul\":4137:4143   */\n      dup5\n        /* \"#utility.yul\":4093:4164   */\n      tag_174\n      jump\t// in\n    tag_262:\n        /* \"#utility.yul\":3949:4171   */\n      swap3\n      swap2\n      pop\n      pop\n      jump\t// out\n        /* \"#utility.yul\":4177:4299   */\n    tag_175:\n        /* \"#utility.yul\":4250:4274   */\n      tag_264\n        /* \"#utility.yul\":4268:4273   */\n      dup2\n        /* \"#utility.yul\":4250:4274   */\n      tag_173\n      jump\t// in\n    tag_264:\n        /* \"#utility.yul\":4243:4248   */\n      dup2\n        /* \"#utility.yul\":4240:4275   */\n      eq\n        /* \"#utility.yul\":4230:4293   */\n      tag_265\n      jumpi\n        /* \"#utility.yul\":4289:4290   */\n      0x00\n        /* \"#utility.yul\":4286:4287   */\n      dup1\n        /* \"#utility.yul\":4279:4291   */\n      revert\n        /* \"#utility.yul\":4230:4293   */\n    tag_265:\n        /* \"#utility.yul\":4177:4299   */\n      pop\n      jump\t// out\n        /* \"#utility.yul\":4305:4444   */\n    tag_176:\n        /* \"#utility.yul\":4351:4356   */\n      0x00\n        /* \"#utility.yul\":4389:4395   */\n      dup2\n        /* \"#utility.yul\":4376:4396   */\n      calldataload\n        /* \"#utility.yul\":4367:4396   */\n      swap1\n      pop\n        /* \"#utility.yul\":4405:4438   */\n      tag_267\n        /* \"#utility.yul\":4432:4437   */\n      dup2\n        /* \"#utility.yul\":4405:4438   */\n      tag_175\n      jump\t// in\n    tag_267:\n        /* \"#utility.yul\":4305:4444   */\n      swap3\n      swap2\n      pop\n      pop\n      jump\t// out\n        /* \"#utility.yul\":4450:4779   */\n    tag_52:\n        /* \"#utility.yul\":4509:4515   */\n      0x00\n        /* \"#utility.yul\":4558:4560   */\n      0x20\n        /* \"#utility.yul\":4546:4555   */\n      dup3\n        /* \"#utility.yul\":4537:4544   */\n      dup5\n        /* \"#utility.yul\":4533:4556   */\n      sub\n        /* \"#utility.yul\":4529:4561   */\n      slt\n        /* \"#utility.yul\":4526:4645   */\n      iszero\n      tag_269\n      jumpi\n        /* \"#utility.yul\":4564:4643   */\n      tag_270\n      tag_160\n      jump\t// in\n    tag_270:\n        /* \"#utility.yul\":4526:4645   */\n    tag_269:\n        /* \"#utility.yul\":4684:4685   */\n      0x00\n        /* \"#utility.yul\":4709:4762   */\n      tag_271\n        /* \"#utility.yul\":4754:4761   */\n      dup5\n        /* \"#utility.yul\":4745:4751   */\n      dup3\n        /* \"#utility.yul\":4734:4743   */\n      dup6\n        /* \"#utility.yul\":4730:4752   */\n      add\n        /* \"#utility.yul\":4709:4762   */\n      tag_176\n      jump\t// in\n    tag_271:\n        /* \"#utility.yul\":4699:4762   */\n      swap2\n      pop\n        /* \"#utility.yul\":4655:4772   */\n      pop\n        /* \"#utility.yul\":4450:4779   */\n      swap3\n      swap2\n      pop\n      pop\n      jump\t// out\n        /* \"#utility.yul\":4785:4845   */\n    tag_177:\n        /* \"#utility.yul\":4813:4816   */\n      0x00\n        /* \"#utility.yul\":4834:4839   */\n      dup2\n        /* \"#utility.yul\":4827:4839   */\n      swap1\n      pop\n        /* \"#utility.yul\":4785:4845   */\n      swap2\n      swap1\n      pop\n      jump\t// out\n        /* \"#utility.yul\":4851:4993   */\n    tag_178:\n        /* \"#utility.yul\":4901:4910   */\n      0x00\n        /* \"#utility.yul\":4934:4987   */\n      tag_274\n        /* \"#utility.yul\":4952:4986   */\n      tag_275\n        /* \"#utility.yul\":4961:4985   */\n      tag_276\n        /* \"#utility.yul\":4979:4984   */\n      dup5\n        /* \"#utility.yul\":4961:4985   */\n      tag_172\n      jump\t// in\n    tag_276:\n        /* \"#utility.yul\":4952:4986   */\n      tag_177\n      jump\t// in\n    tag_275:\n        /* \"#utility.yul\":4934:4987   */\n      tag_172\n      jump\t// in\n    tag_274:\n        /* \"#utility.yul\":4921:4987   */\n      swap1\n      pop\n        /* \"#utility.yul\":4851:4993   */\n      swap2\n      swap1\n      pop\n      jump\t// out\n        /* \"#utility.yul\":4999:5125   */\n    tag_179:\n        /* \"#utility.yul\":5049:5058   */\n      0x00\n        /* \"#utility.yul\":5082:5119   */\n      tag_278\n        /* \"#utility.yul\":5113:5118   */\n      dup3\n        /* \"#utility.yul\":5082:5119   */\n      tag_178\n      jump\t// in\n    tag_278:\n        /* \"#utility.yul\":5069:5119   */\n      swap1\n      pop\n        /* \"#utility.yul\":4999:5125   */\n      swap2\n      swap1\n      pop\n      jump\t// out\n        /* \"#utility.yul\":5131:5286   */\n    tag_180:\n        /* \"#utility.yul\":5210:5219   */\n      0x00\n        /* \"#utility.yul\":5243:5280   */\n      tag_280\n        /* \"#utility.yul\":5274:5279   */\n      dup3\n        /* \"#utility.yul\":5243:5280   */\n      tag_179\n      jump\t// in\n    tag_280:\n        /* \"#utility.yul\":5230:5280   */\n      swap1\n      pop\n        /* \"#utility.yul\":5131:5286   */\n      swap2\n      swap1\n      pop\n      jump\t// out\n        /* \"#utility.yul\":5292:5481   */\n    tag_181:\n        /* \"#utility.yul\":5408:5474   */\n      tag_282\n        /* \"#utility.yul\":5468:5473   */\n      dup2\n        /* \"#utility.yul\":5408:5474   */\n      tag_180\n      jump\t// in\n    tag_282:\n        /* \"#utility.yul\":5403:5406   */\n      dup3\n        /* \"#utility.yul\":5396:5475   */\n      mstore\n        /* \"#utility.yul\":5292:5481   */\n      pop\n      pop\n      jump\t// out\n        /* \"#utility.yul\":5487:5767   */\n    tag_57:\n        /* \"#utility.yul\":5609:5613   */\n      0x00\n        /* \"#utility.yul\":5647:5649   */\n      0x20\n        /* \"#utility.yul\":5636:5645   */\n      dup3\n        /* \"#utility.yul\":5632:5650   */\n      add\n        /* \"#utility.yul\":5624:5650   */\n      swap1\n      pop\n        /* \"#utility.yul\":5660:5760   */\n      tag_284\n        /* \"#utility.yul\":5757:5758   */\n      0x00\n        /* \"#utility.yul\":5746:5755   */\n      dup4\n        /* \"#utility.yul\":5742:5759   */\n      add\n        /* \"#utility.yul\":5733:5739   */\n      dup5\n        /* \"#utility.yul\":5660:5760   */\n      tag_181\n      jump\t// in\n    tag_284:\n        /* \"#utility.yul\":5487:5767   */\n      swap3\n      swap2\n      pop\n      pop\n      jump\t// out\n        /* \"#utility.yul\":5773:5862   */\n    tag_182:\n        /* \"#utility.yul\":5809:5816   */\n      0x00\n        /* \"#utility.yul\":5849:5855   */\n      0xffff\n        /* \"#utility.yul\":5842:5847   */\n      dup3\n        /* \"#utility.yul\":5838:5856   */\n      and\n        /* \"#utility.yul\":5827:5856   */\n      swap1\n      pop\n        /* \"#utility.yul\":5773:5862   */\n      swap2\n      swap1\n      pop\n      jump\t// out\n        /* \"#utility.yul\":5868:5983   */\n    tag_183:\n        /* \"#utility.yul\":5953:5976   */\n      tag_287\n        /* \"#utility.yul\":5970:5975   */\n      dup2\n        /* \"#utility.yul\":5953:5976   */\n      tag_182\n      jump\t// in\n    tag_287:\n        /* \"#utility.yul\":5948:5951   */\n      dup3\n        /* \"#utility.yul\":5941:5977   */\n      mstore\n        /* \"#utility.yul\":5868:5983   */\n      pop\n      pop\n      jump\t// out\n        /* \"#utility.yul\":5989:6207   */\n    tag_64:\n        /* \"#utility.yul\":6080:6084   */\n      0x00\n        /* \"#utility.yul\":6118:6120   */\n      0x20\n        /* \"#utility.yul\":6107:6116   */\n      dup3\n        /* \"#utility.yul\":6103:6121   */\n      add\n        /* \"#utility.yul\":6095:6121   */\n      swap1\n      pop\n        /* \"#utility.yul\":6131:6200   */\n      tag_289\n        /* \"#utility.yul\":6197:6198   */\n      0x00\n        /* \"#utility.yul\":6186:6195   */\n      dup4\n        /* \"#utility.yul\":6182:6199   */\n      add\n        /* \"#utility.yul\":6173:6179   */\n      dup5\n        /* \"#utility.yul\":6131:6200   */\n      tag_183\n      jump\t// in\n    tag_289:\n        /* \"#utility.yul\":5989:6207   */\n      swap3\n      swap2\n      pop\n      pop\n      jump\t// out\n        /* \"#utility.yul\":6213:6312   */\n    tag_184:\n        /* \"#utility.yul\":6265:6271   */\n      0x00\n        /* \"#utility.yul\":6299:6304   */\n      dup2\n        /* \"#utility.yul\":6293:6305   */\n      mload\n        /* \"#utility.yul\":6283:6305   */\n      swap1\n      pop\n        /* \"#utility.yul\":6213:6312   */\n      swap2\n      swap1\n      pop\n      jump\t// out\n        /* \"#utility.yul\":6318:6487   */\n    tag_185:\n        /* \"#utility.yul\":6402:6413   */\n      0x00\n        /* \"#utility.yul\":6436:6442   */\n      dup3\n        /* \"#utility.yul\":6431:6434   */\n      dup3\n        /* \"#utility.yul\":6424:6443   */\n      mstore\n        /* \"#utility.yul\":6476:6480   */\n      0x20\n        /* \"#utility.yul\":6471:6474   */\n      dup3\n        /* \"#utility.yul\":6467:6481   */\n      add\n        /* \"#utility.yul\":6452:6481   */\n      swap1\n      pop\n        /* \"#utility.yul\":6318:6487   */\n      swap3\n      swap2\n      pop\n      pop\n      jump\t// out\n        /* \"#utility.yul\":6493:6632   */\n    tag_186:\n        /* \"#utility.yul\":6582:6588   */\n      dup3\n        /* \"#utility.yul\":6577:6580   */\n      dup2\n        /* \"#utility.yul\":6572:6575   */\n      dup4\n        /* \"#utility.yul\":6566:6589   */\n      mcopy\n        /* \"#utility.yul\":6623:6624   */\n      0x00\n        /* \"#utility.yul\":6614:6620   */\n      dup4\n        /* \"#utility.yul\":6609:6612   */\n      dup4\n        /* \"#utility.yul\":6605:6621   */\n      add\n        /* \"#utility.yul\":6598:6625   */\n      mstore\n        /* \"#utility.yul\":6493:6632   */\n      pop\n      pop\n      pop\n      jump\t// out\n        /* \"#utility.yul\":6638:6740   */\n    tag_187:\n        /* \"#utility.yul\":6679:6685   */\n      0x00\n        /* \"#utility.yul\":6730:6732   */\n      0x1f\n        /* \"#utility.yul\":6726:6733   */\n      not\n        /* \"#utility.yul\":6721:6723   */\n      0x1f\n        /* \"#utility.yul\":6714:6719   */\n      dup4\n        /* \"#utility.yul\":6710:6724   */\n      add\n        /* \"#utility.yul\":6706:6734   */\n      and\n        /* \"#utility.yul\":6696:6734   */\n      swap1\n      pop\n        /* \"#utility.yul\":6638:6740   */\n      swap2\n      swap1\n      pop\n      jump\t// out\n        /* \"#utility.yul\":6746:7123   */\n    tag_188:\n        /* \"#utility.yul\":6834:6837   */\n      0x00\n        /* \"#utility.yul\":6862:6901   */\n      tag_295\n        /* \"#utility.yul\":6895:6900   */\n      dup3\n        /* \"#utility.yul\":6862:6901   */\n      tag_184\n      jump\t// in\n    tag_295:\n        /* \"#utility.yul\":6917:6988   */\n      tag_296\n        /* \"#utility.yul\":6981:6987   */\n      dup2\n        /* \"#utility.yul\":6976:6979   */\n      dup6\n        /* \"#utility.yul\":6917:6988   */\n      tag_185\n      jump\t// in\n    tag_296:\n        /* \"#utility.yul\":6910:6988   */\n      swap4\n      pop\n        /* \"#utility.yul\":6997:7062   */\n      tag_297\n        /* \"#utility.yul\":7055:7061   */\n      dup2\n        /* \"#utility.yul\":7050:7053   */\n      dup6\n        /* \"#utility.yul\":7043:7047   */\n      0x20\n        /* \"#utility.yul\":7036:7041   */\n      dup7\n        /* \"#utility.yul\":7032:7048   */\n      add\n        /* \"#utility.yul\":6997:7062   */\n      tag_186\n      jump\t// in\n    tag_297:\n        /* \"#utility.yul\":7087:7116   */\n      tag_298\n        /* \"#utility.yul\":7109:7115   */\n      dup2\n        /* \"#utility.yul\":7087:7116   */\n      tag_187\n      jump\t// in\n    tag_298:\n        /* \"#utility.yul\":7082:7085   */\n      dup5\n        /* \"#utility.yul\":7078:7117   */\n      add\n        /* \"#utility.yul\":7071:7117   */\n      swap2\n      pop\n        /* \"#utility.yul\":6838:7123   */\n      pop\n        /* \"#utility.yul\":6746:7123   */\n      swap3\n      swap2\n      pop\n      pop\n      jump\t// out\n        /* \"#utility.yul\":7129:7442   */\n    tag_69:\n        /* \"#utility.yul\":7242:7246   */\n      0x00\n        /* \"#utility.yul\":7280:7282   */\n      0x20\n        /* \"#utility.yul\":7269:7278   */\n      dup3\n        /* \"#utility.yul\":7265:7283   */\n      add\n        /* \"#utility.yul\":7257:7283   */\n      swap1\n      pop\n        /* \"#utility.yul\":7329:7338   */\n      dup2\n        /* \"#utility.yul\":7323:7327   */\n      dup2\n        /* \"#utility.yul\":7319:7339   */\n      sub\n        /* \"#utility.yul\":7315:7316   */\n      0x00\n        /* \"#utility.yul\":7304:7313   */\n      dup4\n        /* \"#utility.yul\":7300:7317   */\n      add\n        /* \"#utility.yul\":7293:7340   */\n      mstore\n        /* \"#utility.yul\":7357:7435   */\n      tag_300\n        /* \"#utility.yul\":7430:7434   */\n      dup2\n        /* \"#utility.yul\":7421:7427   */\n      dup5\n        /* \"#utility.yul\":7357:7435   */\n      tag_188\n      jump\t// in\n    tag_300:\n        /* \"#utility.yul\":7349:7435   */\n      swap1\n      pop\n        /* \"#utility.yul\":7129:7442   */\n      swap3\n      swap2\n      pop\n      pop\n      jump\t// out\n        /* \"#utility.yul\":7448:7780   */\n    tag_83:\n        /* \"#utility.yul\":7569:7573   */\n      0x00\n        /* \"#utility.yul\":7607:7609   */\n      0x40\n        /* \"#utility.yul\":7596:7605   */\n      dup3\n        /* \"#utility.yul\":7592:7610   */\n      add\n        /* \"#utility.yul\":7584:7610   */\n      swap1\n      pop\n        /* \"#utility.yul\":7620:7691   */\n      tag_302\n        /* \"#utility.yul\":7688:7689   */\n      0x00\n        /* \"#utility.yul\":7677:7686   */\n      dup4\n        /* \"#utility.yul\":7673:7690   */\n      add\n        /* \"#utility.yul\":7664:7670   */\n      dup6\n        /* \"#utility.yul\":7620:7691   */\n      tag_174\n      jump\t// in\n    tag_302:\n        /* \"#utility.yul\":7701:7773   */\n      tag_303\n        /* \"#utility.yul\":7769:7771   */\n      0x20\n        /* \"#utility.yul\":7758:7767   */\n      dup4\n        /* \"#utility.yul\":7754:7772   */\n      add\n        /* \"#utility.yul\":7745:7751   */\n      dup5\n        /* \"#utility.yul\":7701:7773   */\n      tag_174\n      jump\t// in\n    tag_303:\n        /* \"#utility.yul\":7448:7780   */\n      swap4\n      swap3\n      pop\n      pop\n      pop\n      jump\t// out\n        /* \"#utility.yul\":7786:7958   */\n    tag_189:\n        /* \"#utility.yul\":7926:7950   */\n      0x4d7573742062652070726f706f736564206f776e657200000000000000000000\n        /* \"#utility.yul\":7922:7923   */\n      0x00\n        /* \"#utility.yul\":7914:7920   */\n      dup3\n        /* \"#utility.yul\":7910:7924   */\n      add\n        /* \"#utility.yul\":7903:7951   */\n      mstore\n        /* \"#utility.yul\":7786:7958   */\n      pop\n      jump\t// out\n        /* \"#utility.yul\":7964:8330   */\n    tag_190:\n        /* \"#utility.yul\":8106:8109   */\n      0x00\n        /* \"#utility.yul\":8127:8194   */\n      tag_306\n        /* \"#utility.yul\":8191:8193   */\n      0x16\n        /* \"#utility.yul\":8186:8189   */\n      dup4\n        /* \"#utility.yul\":8127:8194   */\n      tag_185\n      jump\t// in\n    tag_306:\n        /* \"#utility.yul\":8120:8194   */\n      swap2\n      pop\n        /* \"#utility.yul\":8203:8296   */\n      tag_307\n        /* \"#utility.yul\":8292:8295   */\n      dup3\n        /* \"#utility.yul\":8203:8296   */\n      tag_189\n      jump\t// in\n    tag_307:\n        /* \"#utility.yul\":8321:8323   */\n      0x20\n        /* \"#utility.yul\":8316:8319   */\n      dup3\n        /* \"#utility.yul\":8312:8324   */\n      add\n        /* \"#utility.yul\":8305:8324   */\n      swap1\n      pop\n        /* \"#utility.yul\":7964:8330   */\n      swap2\n      swap1\n      pop\n      jump\t// out\n        /* \"#utility.yul\":8336:8755   */\n    tag_89:\n        /* \"#utility.yul\":8502:8506   */\n      0x00\n        /* \"#utility.yul\":8540:8542   */\n      0x20\n        /* \"#utility.yul\":8529:8538   */\n      dup3\n        /* \"#utility.yul\":8525:8543   */\n      add\n        /* \"#utility.yul\":8517:8543   */\n      swap1\n      pop\n        /* \"#utility.yul\":8589:8598   */\n      dup2\n        /* \"#utility.yul\":8583:8587   */\n      dup2\n        /* \"#utility.yul\":8579:8599   */\n      sub\n        /* \"#utility.yul\":8575:8576   */\n      0x00\n        /* \"#utility.yul\":8564:8573   */\n      dup4\n        /* \"#utility.yul\":8560:8577   */\n      add\n        /* \"#utility.yul\":8553:8600   */\n      mstore\n        /* \"#utility.yul\":8617:8748   */\n      tag_309\n        /* \"#utility.yul\":8743:8747   */\n      dup2\n        /* \"#utility.yul\":8617:8748   */\n      tag_190\n      jump\t// in\n    tag_309:\n        /* \"#utility.yul\":8609:8748   */\n      swap1\n      pop\n        /* \"#utility.yul\":8336:8755   */\n      swap2\n      swap1\n      pop\n      jump\t// out\n        /* \"#utility.yul\":8761:9203   */\n    tag_97:\n        /* \"#utility.yul\":8910:8914   */\n      0x00\n        /* \"#utility.yul\":8948:8950   */\n      0x60\n        /* \"#utility.yul\":8937:8946   */\n      dup3\n        /* \"#utility.yul\":8933:8951   */\n      add\n        /* \"#utility.yul\":8925:8951   */\n      swap1\n      pop\n        /* \"#utility.yul\":8961:9032   */\n      tag_311\n        /* \"#utility.yul\":9029:9030   */\n      0x00\n        /* \"#utility.yul\":9018:9027   */\n      dup4\n        /* \"#utility.yul\":9014:9031   */\n      add\n        /* \"#utility.yul\":9005:9011   */\n      dup7\n        /* \"#utility.yul\":8961:9032   */\n      tag_174\n      jump\t// in\n    tag_311:\n        /* \"#utility.yul\":9042:9114   */\n      tag_312\n        /* \"#utility.yul\":9110:9112   */\n      0x20\n        /* \"#utility.yul\":9099:9108   */\n      dup4\n        /* \"#utility.yul\":9095:9113   */\n      add\n        /* \"#utility.yul\":9086:9092   */\n      dup6\n        /* \"#utility.yul\":9042:9114   */\n      tag_174\n      jump\t// in\n    tag_312:\n        /* \"#utility.yul\":9124:9196   */\n      tag_313\n        /* \"#utility.yul\":9192:9194   */\n      0x40\n        /* \"#utility.yul\":9181:9190   */\n      dup4\n        /* \"#utility.yul\":9177:9195   */\n      add\n        /* \"#utility.yul\":9168:9174   */\n      dup5\n        /* \"#utility.yul\":9124:9196   */\n      tag_174\n      jump\t// in\n    tag_313:\n        /* \"#utility.yul\":8761:9203   */\n      swap5\n      swap4\n      pop\n      pop\n      pop\n      pop\n      jump\t// out\n        /* \"#utility.yul\":9209:9374   */\n    tag_191:\n        /* \"#utility.yul\":9349:9366   */\n      0x44696365206e6f7420726f6c6c65640000000000000000000000000000000000\n        /* \"#utility.yul\":9345:9346   */\n      0x00\n        /* \"#utility.yul\":9337:9343   */\n      dup3\n        /* \"#utility.yul\":9333:9347   */\n      add\n        /* \"#utility.yul\":9326:9367   */\n      mstore\n        /* \"#utility.yul\":9209:9374   */\n      pop\n      jump\t// out\n        /* \"#utility.yul\":9380:9746   */\n    tag_192:\n        /* \"#utility.yul\":9522:9525   */\n      0x00\n        /* \"#utility.yul\":9543:9610   */\n      tag_316\n        /* \"#utility.yul\":9607:9609   */\n      0x0f\n        /* \"#utility.yul\":9602:9605   */\n      dup4\n        /* \"#utility.yul\":9543:9610   */\n      tag_185\n      jump\t// in\n    tag_316:\n        /* \"#utility.yul\":9536:9610   */\n      swap2\n      pop\n        /* \"#utility.yul\":9619:9712   */\n      tag_317\n        /* \"#utility.yul\":9708:9711   */\n      dup3\n        /* \"#utility.yul\":9619:9712   */\n      tag_191\n      jump\t// in\n    tag_317:\n        /* \"#utility.yul\":9737:9739   */\n      0x20\n        /* \"#utility.yul\":9732:9735   */\n      dup3\n        /* \"#utility.yul\":9728:9740   */\n      add\n        /* \"#utility.yul\":9721:9740   */\n      swap1\n      pop\n        /* \"#utility.yul\":9380:9746   */\n      swap2\n      swap1\n      pop\n      jump\t// out\n        /* \"#utility.yul\":9752:10171   */\n    tag_104:\n        /* \"#utility.yul\":9918:9922   */\n      0x00\n        /* \"#utility.yul\":9956:9958   */\n      0x20\n        /* \"#utility.yul\":9945:9954   */\n      dup3\n        /* \"#utility.yul\":9941:9959   */\n      add\n        /* \"#utility.yul\":9933:9959   */\n      swap1\n      pop\n        /* \"#utility.yul\":10005:10014   */\n      dup2\n        /* \"#utility.yul\":9999:10003   */\n      dup2\n        /* \"#utility.yul\":9995:10015   */\n      sub\n        /* \"#utility.yul\":9991:9992   */\n      0x00\n        /* \"#utility.yul\":9980:9989   */\n      dup4\n        /* \"#utility.yul\":9976:9993   */\n      add\n        /* \"#utility.yul\":9969:10016   */\n      mstore\n        /* \"#utility.yul\":10033:10164   */\n      tag_319\n        /* \"#utility.yul\":10159:10163   */\n      dup2\n        /* \"#utility.yul\":10033:10164   */\n      tag_192\n      jump\t// in\n    tag_319:\n        /* \"#utility.yul\":10025:10164   */\n      swap1\n      pop\n        /* \"#utility.yul\":9752:10171   */\n      swap2\n      swap1\n      pop\n      jump\t// out\n        /* \"#utility.yul\":10177:10343   */\n    tag_193:\n        /* \"#utility.yul\":10317:10335   */\n      0x526f6c6c20696e2070726f677265737300000000000000000000000000000000\n        /* \"#utility.yul\":10313:10314   */\n      0x00\n        /* \"#utility.yul\":10305:10311   */\n      dup3\n        /* \"#utility.yul\":10301:10315   */\n      add\n        /* \"#utility.yul\":10294:10336   */\n      mstore\n        /* \"#utility.yul\":10177:10343   */\n      pop\n      jump\t// out\n        /* \"#utility.yul\":10349:10715   */\n    tag_194:\n        /* \"#utility.yul\":10491:10494   */\n      0x00\n        /* \"#utility.yul\":10512:10579   */\n      tag_322\n        /* \"#utility.yul\":10576:10578   */\n      0x10\n        /* \"#utility.yul\":10571:10574   */\n      dup4\n        /* \"#utility.yul\":10512:10579   */\n      tag_185\n      jump\t// in\n    tag_322:\n        /* \"#utility.yul\":10505:10579   */\n      swap2\n      pop\n        /* \"#utility.yul\":10588:10681   */\n      tag_323\n        /* \"#utility.yul\":10677:10680   */\n      dup3\n        /* \"#utility.yul\":10588:10681   */\n      tag_193\n      jump\t// in\n    tag_323:\n        /* \"#utility.yul\":10706:10708   */\n      0x20\n        /* \"#utility.yul\":10701:10704   */\n      dup3\n        /* \"#utility.yul\":10697:10709   */\n      add\n        /* \"#utility.yul\":10690:10709   */\n      swap1\n      pop\n        /* \"#utility.yul\":10349:10715   */\n      swap2\n      swap1\n      pop\n      jump\t// out\n        /* \"#utility.yul\":10721:11140   */\n    tag_107:\n        /* \"#utility.yul\":10887:10891   */\n      0x00\n        /* \"#utility.yul\":10925:10927   */\n      0x20\n        /* \"#utility.yul\":10914:10923   */\n      dup3\n        /* \"#utility.yul\":10910:10928   */\n      add\n        /* \"#utility.yul\":10902:10928   */\n      swap1\n      pop\n        /* \"#utility.yul\":10974:10983   */\n      dup2\n        /* \"#utility.yul\":10968:10972   */\n      dup2\n        /* \"#utility.yul\":10964:10984   */\n      sub\n        /* \"#utility.yul\":10960:10961   */\n      0x00\n        /* \"#utility.yul\":10949:10958   */\n      dup4\n        /* \"#utility.yul\":10945:10962   */\n      add\n        /* \"#utility.yul\":10938:10985   */\n      mstore\n        /* \"#utility.yul\":11002:11133   */\n      tag_325\n        /* \"#utility.yul\":11128:11132   */\n      dup2\n        /* \"#utility.yul\":11002:11133   */\n      tag_194\n      jump\t// in\n    tag_325:\n        /* \"#utility.yul\":10994:11133   */\n      swap1\n      pop\n        /* \"#utility.yul\":10721:11140   */\n      swap2\n      swap1\n      pop\n      jump\t// out\n        /* \"#utility.yul\":11146:11310   */\n    tag_195:\n        /* \"#utility.yul\":11286:11302   */\n      0x416c726561647920726f6c6c6564000000000000000000000000000000000000\n        /* \"#utility.yul\":11282:11283   */\n      0x00\n        /* \"#utility.yul\":11274:11280   */\n      dup3\n        /* \"#utility.yul\":11270:11284   */\n      add\n        /* \"#utility.yul\":11263:11303   */\n      mstore\n        /* \"#utility.yul\":11146:11310   */\n      pop\n      jump\t// out\n        /* \"#utility.yul\":11316:11682   */\n    tag_196:\n        /* \"#utility.yul\":11458:11461   */\n      0x00\n        /* \"#utility.yul\":11479:11546   */\n      tag_328\n        /* \"#utility.yul\":11543:11545   */\n      0x0e\n        /* \"#utility.yul\":11538:11541   */\n      dup4\n        /* \"#utility.yul\":11479:11546   */\n      tag_185\n      jump\t// in\n    tag_328:\n        /* \"#utility.yul\":11472:11546   */\n      swap2\n      pop\n        /* \"#utility.yul\":11555:11648   */\n      tag_329\n        /* \"#utility.yul\":11644:11647   */\n      dup3\n        /* \"#utility.yul\":11555:11648   */\n      tag_195\n      jump\t// in\n    tag_329:\n        /* \"#utility.yul\":11673:11675   */\n      0x20\n        /* \"#utility.yul\":11668:11671   */\n      dup3\n        /* \"#utility.yul\":11664:11676   */\n      add\n        /* \"#utility.yul\":11657:11676   */\n      swap1\n      pop\n        /* \"#utility.yul\":11316:11682   */\n      swap2\n      swap1\n      pop\n      jump\t// out\n        /* \"#utility.yul\":11688:12107   */\n    tag_116:\n        /* \"#utility.yul\":11854:11858   */\n      0x00\n        /* \"#utility.yul\":11892:11894   */\n      0x20\n        /* \"#utility.yul\":11881:11890   */\n      dup3\n        /* \"#utility.yul\":11877:11895   */\n      add\n        /* \"#utility.yul\":11869:11895   */\n      swap1\n      pop\n        /* \"#utility.yul\":11941:11950   */\n      dup2\n        /* \"#utility.yul\":11935:11939   */\n      dup2\n        /* \"#utility.yul\":11931:11951   */\n      sub\n        /* \"#utility.yul\":11927:11928   */\n      0x00\n        /* \"#utility.yul\":11916:11925   */\n      dup4\n        /* \"#utility.yul\":11912:11929   */\n      add\n        /* \"#utility.yul\":11905:11952   */\n      mstore\n        /* \"#utility.yul\":11969:12100   */\n      tag_331\n        /* \"#utility.yul\":12095:12099   */\n      dup2\n        /* \"#utility.yul\":11969:12100   */\n      tag_196\n      jump\t// in\n    tag_331:\n        /* \"#utility.yul\":11961:12100   */\n      swap1\n      pop\n        /* \"#utility.yul\":11688:12107   */\n      swap2\n      swap1\n      pop\n      jump\t// out\n        /* \"#utility.yul\":12113:12221   */\n    tag_197:\n        /* \"#utility.yul\":12190:12214   */\n      tag_333\n        /* \"#utility.yul\":12208:12213   */\n      dup2\n        /* \"#utility.yul\":12190:12214   */\n      tag_170\n      jump\t// in\n    tag_333:\n        /* \"#utility.yul\":12185:12188   */\n      dup3\n        /* \"#utility.yul\":12178:12215   */\n      mstore\n        /* \"#utility.yul\":12113:12221   */\n      pop\n      pop\n      jump\t// out\n        /* \"#utility.yul\":12227:12335   */\n    tag_198:\n        /* \"#utility.yul\":12304:12328   */\n      tag_335\n        /* \"#utility.yul\":12322:12327   */\n      dup2\n        /* \"#utility.yul\":12304:12328   */\n      tag_157\n      jump\t// in\n    tag_335:\n        /* \"#utility.yul\":12299:12302   */\n      dup3\n        /* \"#utility.yul\":12292:12329   */\n      mstore\n        /* \"#utility.yul\":12227:12335   */\n      pop\n      pop\n      jump\t// out\n        /* \"#utility.yul\":12341:12446   */\n    tag_199:\n        /* \"#utility.yul\":12416:12439   */\n      tag_337\n        /* \"#utility.yul\":12433:12438   */\n      dup2\n        /* \"#utility.yul\":12416:12439   */\n      tag_182\n      jump\t// in\n    tag_337:\n        /* \"#utility.yul\":12411:12414   */\n      dup3\n        /* \"#utility.yul\":12404:12440   */\n      mstore\n        /* \"#utility.yul\":12341:12446   */\n      pop\n      pop\n      jump\t// out\n        /* \"#utility.yul\":12452:12557   */\n    tag_200:\n        /* \"#utility.yul\":12527:12550   */\n      tag_339\n        /* \"#utility.yul\":12544:12549   */\n      dup2\n        /* \"#utility.yul\":12527:12550   */\n      tag_168\n      jump\t// in\n    tag_339:\n        /* \"#utility.yul\":12522:12525   */\n      dup3\n        /* \"#utility.yul\":12515:12551   */\n      mstore\n        /* \"#utility.yul\":12452:12557   */\n      pop\n      pop\n      jump\t// out\n        /* \"#utility.yul\":12563:12661   */\n    tag_201:\n        /* \"#utility.yul\":12614:12620   */\n      0x00\n        /* \"#utility.yul\":12648:12653   */\n      dup2\n        /* \"#utility.yul\":12642:12654   */\n      mload\n        /* \"#utility.yul\":12632:12654   */\n      swap1\n      pop\n        /* \"#utility.yul\":12563:12661   */\n      swap2\n      swap1\n      pop\n      jump\t// out\n        /* \"#utility.yul\":12667:12825   */\n    tag_202:\n        /* \"#utility.yul\":12740:12751   */\n      0x00\n        /* \"#utility.yul\":12774:12780   */\n      dup3\n        /* \"#utility.yul\":12769:12772   */\n      dup3\n        /* \"#utility.yul\":12762:12781   */\n      mstore\n        /* \"#utility.yul\":12814:12818   */\n      0x20\n        /* \"#utility.yul\":12809:12812   */\n      dup3\n        /* \"#utility.yul\":12805:12819   */\n      add\n        /* \"#utility.yul\":12790:12819   */\n      swap1\n      pop\n        /* \"#utility.yul\":12667:12825   */\n      swap3\n      swap2\n      pop\n      pop\n      jump\t// out\n        /* \"#utility.yul\":12831:13184   */\n    tag_203:\n        /* \"#utility.yul\":12907:12910   */\n      0x00\n        /* \"#utility.yul\":12935:12973   */\n      tag_343\n        /* \"#utility.yul\":12967:12972   */\n      dup3\n        /* \"#utility.yul\":12935:12973   */\n      tag_201\n      jump\t// in\n    tag_343:\n        /* \"#utility.yul\":12989:13049   */\n      tag_344\n        /* \"#utility.yul\":13042:13048   */\n      dup2\n        /* \"#utility.yul\":13037:13040   */\n      dup6\n        /* \"#utility.yul\":12989:13049   */\n      tag_202\n      jump\t// in\n    tag_344:\n        /* \"#utility.yul\":12982:13049   */\n      swap4\n      pop\n        /* \"#utility.yul\":13058:13123   */\n      tag_345\n        /* \"#utility.yul\":13116:13122   */\n      dup2\n        /* \"#utility.yul\":13111:13114   */\n      dup6\n        /* \"#utility.yul\":13104:13108   */\n      0x20\n        /* \"#utility.yul\":13097:13102   */\n      dup7\n        /* \"#utility.yul\":13093:13109   */\n      add\n        /* \"#utility.yul\":13058:13123   */\n      tag_186\n      jump\t// in\n    tag_345:\n        /* \"#utility.yul\":13148:13177   */\n      tag_346\n        /* \"#utility.yul\":13170:13176   */\n      dup2\n        /* \"#utility.yul\":13148:13177   */\n      tag_187\n      jump\t// in\n    tag_346:\n        /* \"#utility.yul\":13143:13146   */\n      dup5\n        /* \"#utility.yul\":13139:13178   */\n      add\n        /* \"#utility.yul\":13132:13178   */\n      swap2\n      pop\n        /* \"#utility.yul\":12911:13184   */\n      pop\n        /* \"#utility.yul\":12831:13184   */\n      swap3\n      swap2\n      pop\n      pop\n      jump\t// out\n        /* \"#utility.yul\":13284:14639   */\n    tag_204:\n        /* \"#utility.yul\":13423:13426   */\n      0x00\n        /* \"#utility.yul\":13459:13463   */\n      0xc0\n        /* \"#utility.yul\":13454:13457   */\n      dup4\n        /* \"#utility.yul\":13450:13464   */\n      add\n        /* \"#utility.yul\":13549:13553   */\n      0x00\n        /* \"#utility.yul\":13542:13547   */\n      dup4\n        /* \"#utility.yul\":13538:13554   */\n      add\n        /* \"#utility.yul\":13532:13555   */\n      mload\n        /* \"#utility.yul\":13568:13631   */\n      tag_348\n        /* \"#utility.yul\":13625:13629   */\n      0x00\n        /* \"#utility.yul\":13620:13623   */\n      dup7\n        /* \"#utility.yul\":13616:13630   */\n      add\n        /* \"#utility.yul\":13602:13614   */\n      dup3\n        /* \"#utility.yul\":13568:13631   */\n      tag_197\n      jump\t// in\n    tag_348:\n        /* \"#utility.yul\":13474:13641   */\n      pop\n        /* \"#utility.yul\":13724:13728   */\n      0x20\n        /* \"#utility.yul\":13717:13722   */\n      dup4\n        /* \"#utility.yul\":13713:13729   */\n      add\n        /* \"#utility.yul\":13707:13730   */\n      mload\n        /* \"#utility.yul\":13743:13806   */\n      tag_349\n        /* \"#utility.yul\":13800:13804   */\n      0x20\n        /* \"#utility.yul\":13795:13798   */\n      dup7\n        /* \"#utility.yul\":13791:13805   */\n      add\n        /* \"#utility.yul\":13777:13789   */\n      dup3\n        /* \"#utility.yul\":13743:13806   */\n      tag_198\n      jump\t// in\n    tag_349:\n        /* \"#utility.yul\":13651:13816   */\n      pop\n        /* \"#utility.yul\":13914:13918   */\n      0x40\n        /* \"#utility.yul\":13907:13912   */\n      dup4\n        /* \"#utility.yul\":13903:13919   */\n      add\n        /* \"#utility.yul\":13897:13920   */\n      mload\n        /* \"#utility.yul\":13933:13994   */\n      tag_350\n        /* \"#utility.yul\":13988:13992   */\n      0x40\n        /* \"#utility.yul\":13983:13986   */\n      dup7\n        /* \"#utility.yul\":13979:13993   */\n      add\n        /* \"#utility.yul\":13965:13977   */\n      dup3\n        /* \"#utility.yul\":13933:13994   */\n      tag_199\n      jump\t// in\n    tag_350:\n        /* \"#utility.yul\":13826:14004   */\n      pop\n        /* \"#utility.yul\":14098:14102   */\n      0x60\n        /* \"#utility.yul\":14091:14096   */\n      dup4\n        /* \"#utility.yul\":14087:14103   */\n      add\n        /* \"#utility.yul\":14081:14104   */\n      mload\n        /* \"#utility.yul\":14117:14178   */\n      tag_351\n        /* \"#utility.yul\":14172:14176   */\n      0x60\n        /* \"#utility.yul\":14167:14170   */\n      dup7\n        /* \"#utility.yul\":14163:14177   */\n      add\n        /* \"#utility.yul\":14149:14161   */\n      dup3\n        /* \"#utility.yul\":14117:14178   */\n      tag_200\n      jump\t// in\n    tag_351:\n        /* \"#utility.yul\":14014:14188   */\n      pop\n        /* \"#utility.yul\":14274:14278   */\n      0x80\n        /* \"#utility.yul\":14267:14272   */\n      dup4\n        /* \"#utility.yul\":14263:14279   */\n      add\n        /* \"#utility.yul\":14257:14280   */\n      mload\n        /* \"#utility.yul\":14293:14354   */\n      tag_352\n        /* \"#utility.yul\":14348:14352   */\n      0x80\n        /* \"#utility.yul\":14343:14346   */\n      dup7\n        /* \"#utility.yul\":14339:14353   */\n      add\n        /* \"#utility.yul\":14325:14337   */\n      dup3\n        /* \"#utility.yul\":14293:14354   */\n      tag_200\n      jump\t// in\n    tag_352:\n        /* \"#utility.yul\":14198:14364   */\n      pop\n        /* \"#utility.yul\":14451:14455   */\n      0xa0\n        /* \"#utility.yul\":14444:14449   */\n      dup4\n        /* \"#utility.yul\":14440:14456   */\n      add\n        /* \"#utility.yul\":14434:14457   */\n      mload\n        /* \"#utility.yul\":14504:14507   */\n      dup5\n        /* \"#utility.yul\":14498:14502   */\n      dup3\n        /* \"#utility.yul\":14494:14508   */\n      sub\n        /* \"#utility.yul\":14487:14491   */\n      0xa0\n        /* \"#utility.yul\":14482:14485   */\n      dup7\n        /* \"#utility.yul\":14478:14492   */\n      add\n        /* \"#utility.yul\":14471:14509   */\n      mstore\n        /* \"#utility.yul\":14530:14601   */\n      tag_353\n        /* \"#utility.yul\":14596:14600   */\n      dup3\n        /* \"#utility.yul\":14582:14594   */\n      dup3\n        /* \"#utility.yul\":14530:14601   */\n      tag_203\n      jump\t// in\n    tag_353:\n        /* \"#utility.yul\":14522:14601   */\n      swap2\n      pop\n        /* \"#utility.yul\":14374:14612   */\n      pop\n        /* \"#utility.yul\":14629:14633   */\n      dup1\n        /* \"#utility.yul\":14622:14633   */\n      swap2\n      pop\n        /* \"#utility.yul\":13428:14639   */\n      pop\n        /* \"#utility.yul\":13284:14639   */\n      swap3\n      swap2\n      pop\n      pop\n      jump\t// out\n        /* \"#utility.yul\":14645:15058   */\n    tag_120:\n        /* \"#utility.yul\":14808:14812   */\n      0x00\n        /* \"#utility.yul\":14846:14848   */\n      0x20\n        /* \"#utility.yul\":14835:14844   */\n      dup3\n        /* \"#utility.yul\":14831:14849   */\n      add\n        /* \"#utility.yul\":14823:14849   */\n      swap1\n      pop\n        /* \"#utility.yul\":14895:14904   */\n      dup2\n        /* \"#utility.yul\":14889:14893   */\n      dup2\n        /* \"#utility.yul\":14885:14905   */\n      sub\n        /* \"#utility.yul\":14881:14882   */\n      0x00\n        /* \"#utility.yul\":14870:14879   */\n      dup4\n        /* \"#utility.yul\":14866:14883   */\n      add\n        /* \"#utility.yul\":14859:14906   */\n      mstore\n        /* \"#utility.yul\":14923:15051   */\n      tag_355\n        /* \"#utility.yul\":15046:15050   */\n      dup2\n        /* \"#utility.yul\":15037:15043   */\n      dup5\n        /* \"#utility.yul\":14923:15051   */\n      tag_204\n      jump\t// in\n    tag_355:\n        /* \"#utility.yul\":14915:15051   */\n      swap1\n      pop\n        /* \"#utility.yul\":14645:15058   */\n      swap3\n      swap2\n      pop\n      pop\n      jump\t// out\n        /* \"#utility.yul\":15064:15207   */\n    tag_205:\n        /* \"#utility.yul\":15121:15126   */\n      0x00\n        /* \"#utility.yul\":15152:15158   */\n      dup2\n        /* \"#utility.yul\":15146:15159   */\n      mload\n        /* \"#utility.yul\":15137:15159   */\n      swap1\n      pop\n        /* \"#utility.yul\":15168:15201   */\n      tag_357\n        /* \"#utility.yul\":15195:15200   */\n      dup2\n        /* \"#utility.yul\":15168:15201   */\n      tag_162\n      jump\t// in\n    tag_357:\n        /* \"#utility.yul\":15064:15207   */\n      swap3\n      swap2\n      pop\n      pop\n      jump\t// out\n        /* \"#utility.yul\":15213:15564   */\n    tag_124:\n        /* \"#utility.yul\":15283:15289   */\n      0x00\n        /* \"#utility.yul\":15332:15334   */\n      0x20\n        /* \"#utility.yul\":15320:15329   */\n      dup3\n        /* \"#utility.yul\":15311:15318   */\n      dup5\n        /* \"#utility.yul\":15307:15330   */\n      sub\n        /* \"#utility.yul\":15303:15335   */\n      slt\n        /* \"#utility.yul\":15300:15419   */\n      iszero\n      tag_359\n      jumpi\n        /* \"#utility.yul\":15338:15417   */\n      tag_360\n      tag_160\n      jump\t// in\n    tag_360:\n        /* \"#utility.yul\":15300:15419   */\n    tag_359:\n        /* \"#utility.yul\":15458:15459   */\n      0x00\n        /* \"#utility.yul\":15483:15547   */\n      tag_361\n        /* \"#utility.yul\":15539:15546   */\n      dup5\n        /* \"#utility.yul\":15530:15536   */\n      dup3\n        /* \"#utility.yul\":15519:15528   */\n      dup6\n        /* \"#utility.yul\":15515:15537   */\n      add\n        /* \"#utility.yul\":15483:15547   */\n      tag_205\n      jump\t// in\n    tag_361:\n        /* \"#utility.yul\":15473:15547   */\n      swap2\n      pop\n        /* \"#utility.yul\":15429:15557   */\n      pop\n        /* \"#utility.yul\":15213:15564   */\n      swap3\n      swap2\n      pop\n      pop\n      jump\t// out\n        /* \"#utility.yul\":15570:15750   */\n    tag_133:\n        /* \"#utility.yul\":15618:15695   */\n      0x4e487b7100000000000000000000000000000000000000000000000000000000\n        /* \"#utility.yul\":15615:15616   */\n      0x00\n        /* \"#utility.yul\":15608:15696   */\n      mstore\n        /* \"#utility.yul\":15715:15719   */\n      0x32\n        /* \"#utility.yul\":15712:15713   */\n      0x04\n        /* \"#utility.yul\":15705:15720   */\n      mstore\n        /* \"#utility.yul\":15739:15743   */\n      0x24\n        /* \"#utility.yul\":15736:15737   */\n      0x00\n        /* \"#utility.yul\":15729:15744   */\n      revert\n        /* \"#utility.yul\":15756:15936   */\n    tag_206:\n        /* \"#utility.yul\":15804:15881   */\n      0x4e487b7100000000000000000000000000000000000000000000000000000000\n        /* \"#utility.yul\":15801:15802   */\n      0x00\n        /* \"#utility.yul\":15794:15882   */\n      mstore\n        /* \"#utility.yul\":15901:15905   */\n      0x12\n        /* \"#utility.yul\":15898:15899   */\n      0x04\n        /* \"#utility.yul\":15891:15906   */\n      mstore\n        /* \"#utility.yul\":15925:15929   */\n      0x24\n        /* \"#utility.yul\":15922:15923   */\n      0x00\n        /* \"#utility.yul\":15915:15930   */\n      revert\n        /* \"#utility.yul\":15942:16118   */\n    tag_135:\n        /* \"#utility.yul\":15974:15975   */\n      0x00\n        /* \"#utility.yul\":15991:16011   */\n      tag_365\n        /* \"#utility.yul\":16009:16010   */\n      dup3\n        /* \"#utility.yul\":15991:16011   */\n      tag_157\n      jump\t// in\n    tag_365:\n        /* \"#utility.yul\":15986:16011   */\n      swap2\n      pop\n        /* \"#utility.yul\":16025:16045   */\n      tag_366\n        /* \"#utility.yul\":16043:16044   */\n      dup4\n        /* \"#utility.yul\":16025:16045   */\n      tag_157\n      jump\t// in\n    tag_366:\n        /* \"#utility.yul\":16020:16045   */\n      swap3\n      pop\n        /* \"#utility.yul\":16064:16065   */\n      dup3\n        /* \"#utility.yul\":16054:16089   */\n      tag_367\n      jumpi\n        /* \"#utility.yul\":16069:16087   */\n      tag_368\n      tag_206\n      jump\t// in\n    tag_368:\n        /* \"#utility.yul\":16054:16089   */\n    tag_367:\n        /* \"#utility.yul\":16110:16111   */\n      dup3\n        /* \"#utility.yul\":16107:16108   */\n      dup3\n        /* \"#utility.yul\":16103:16112   */\n      mod\n        /* \"#utility.yul\":16098:16112   */\n      swap1\n      pop\n        /* \"#utility.yul\":15942:16118   */\n      swap3\n      swap2\n      pop\n      pop\n      jump\t// out\n        /* \"#utility.yul\":16124:16304   */\n    tag_207:\n        /* \"#utility.yul\":16172:16249   */\n      0x4e487b7100000000000000000000000000000000000000000000000000000000\n        /* \"#utility.yul\":16169:16170   */\n      0x00\n        /* \"#utility.yul\":16162:16250   */\n      mstore\n        /* \"#utility.yul\":16269:16273   */\n      0x11\n        /* \"#utility.yul\":16266:16267   */\n      0x04\n        /* \"#utility.yul\":16259:16274   */\n      mstore\n        /* \"#utility.yul\":16293:16297   */\n      0x24\n        /* \"#utility.yul\":16290:16291   */\n      0x00\n        /* \"#utility.yul\":16283:16298   */\n      revert\n        /* \"#utility.yul\":16310:16501   */\n    tag_137:\n        /* \"#utility.yul\":16350:16353   */\n      0x00\n        /* \"#utility.yul\":16369:16389   */\n      tag_371\n        /* \"#utility.yul\":16387:16388   */\n      dup3\n        /* \"#utility.yul\":16369:16389   */\n      tag_157\n      jump\t// in\n    tag_371:\n        /* \"#utility.yul\":16364:16389   */\n      swap2\n      pop\n        /* \"#utility.yul\":16403:16423   */\n      tag_372\n        /* \"#utility.yul\":16421:16422   */\n      dup4\n        /* \"#utility.yul\":16403:16423   */\n      tag_157\n      jump\t// in\n    tag_372:\n        /* \"#utility.yul\":16398:16423   */\n      swap3\n      pop\n        /* \"#utility.yul\":16446:16447   */\n      dup3\n        /* \"#utility.yul\":16443:16444   */\n      dup3\n        /* \"#utility.yul\":16439:16448   */\n      add\n        /* \"#utility.yul\":16432:16448   */\n      swap1\n      pop\n        /* \"#utility.yul\":16467:16470   */\n      dup1\n        /* \"#utility.yul\":16464:16465   */\n      dup3\n        /* \"#utility.yul\":16461:16471   */\n      gt\n        /* \"#utility.yul\":16458:16494   */\n      iszero\n      tag_373\n      jumpi\n        /* \"#utility.yul\":16474:16492   */\n      tag_374\n      tag_207\n      jump\t// in\n    tag_374:\n        /* \"#utility.yul\":16458:16494   */\n    tag_373:\n        /* \"#utility.yul\":16310:16501   */\n      swap3\n      swap2\n      pop\n      pop\n      jump\t// out\n        /* \"#utility.yul\":16507:16701   */\n    tag_143:\n        /* \"#utility.yul\":16547:16551   */\n      0x00\n        /* \"#utility.yul\":16567:16587   */\n      tag_376\n        /* \"#utility.yul\":16585:16586   */\n      dup3\n        /* \"#utility.yul\":16567:16587   */\n      tag_157\n      jump\t// in\n    tag_376:\n        /* \"#utility.yul\":16562:16587   */\n      swap2\n      pop\n        /* \"#utility.yul\":16601:16621   */\n      tag_377\n        /* \"#utility.yul\":16619:16620   */\n      dup4\n        /* \"#utility.yul\":16601:16621   */\n      tag_157\n      jump\t// in\n    tag_377:\n        /* \"#utility.yul\":16596:16621   */\n      swap3\n      pop\n        /* \"#utility.yul\":16645:16646   */\n      dup3\n        /* \"#utility.yul\":16642:16643   */\n      dup3\n        /* \"#utility.yul\":16638:16647   */\n      sub\n        /* \"#utility.yul\":16630:16647   */\n      swap1\n      pop\n        /* \"#utility.yul\":16669:16670   */\n      dup2\n        /* \"#utility.yul\":16663:16667   */\n      dup2\n        /* \"#utility.yul\":16660:16671   */\n      gt\n        /* \"#utility.yul\":16657:16694   */\n      iszero\n      tag_378\n      jumpi\n        /* \"#utility.yul\":16674:16692   */\n      tag_379\n      tag_207\n      jump\t// in\n    tag_379:\n        /* \"#utility.yul\":16657:16694   */\n    tag_378:\n        /* \"#utility.yul\":16507:16701   */\n      swap3\n      swap2\n      pop\n      pop\n      jump\t// out\n        /* \"#utility.yul\":16707:16879   */\n    tag_208:\n        /* \"#utility.yul\":16847:16871   */\n      0x4f6e6c792063616c6c61626c65206279206f776e657200000000000000000000\n        /* \"#utility.yul\":16843:16844   */\n      0x00\n        /* \"#utility.yul\":16835:16841   */\n      dup3\n        /* \"#utility.yul\":16831:16845   */\n      add\n        /* \"#utility.yul\":16824:16872   */\n      mstore\n        /* \"#utility.yul\":16707:16879   */\n      pop\n      jump\t// out\n        /* \"#utility.yul\":16885:17251   */\n    tag_209:\n        /* \"#utility.yul\":17027:17030   */\n      0x00\n        /* \"#utility.yul\":17048:17115   */\n      tag_382\n        /* \"#utility.yul\":17112:17114   */\n      0x16\n        /* \"#utility.yul\":17107:17110   */\n      dup4\n        /* \"#utility.yul\":17048:17115   */\n      tag_185\n      jump\t// in\n    tag_382:\n        /* \"#utility.yul\":17041:17115   */\n      swap2\n      pop\n        /* \"#utility.yul\":17124:17217   */\n      tag_383\n        /* \"#utility.yul\":17213:17216   */\n      dup3\n        /* \"#utility.yul\":17124:17217   */\n      tag_208\n      jump\t// in\n    tag_383:\n        /* \"#utility.yul\":17242:17244   */\n      0x20\n        /* \"#utility.yul\":17237:17240   */\n      dup3\n        /* \"#utility.yul\":17233:17245   */\n      add\n        /* \"#utility.yul\":17226:17245   */\n      swap1\n      pop\n        /* \"#utility.yul\":16885:17251   */\n      swap2\n      swap1\n      pop\n      jump\t// out\n        /* \"#utility.yul\":17257:17676   */\n    tag_149:\n        /* \"#utility.yul\":17423:17427   */\n      0x00\n        /* \"#utility.yul\":17461:17463   */\n      0x20\n        /* \"#utility.yul\":17450:17459   */\n      dup3\n        /* \"#utility.yul\":17446:17464   */\n      add\n        /* \"#utility.yul\":17438:17464   */\n      swap1\n      pop\n        /* \"#utility.yul\":17510:17519   */\n      dup2\n        /* \"#utility.yul\":17504:17508   */\n      dup2\n        /* \"#utility.yul\":17500:17520   */\n      sub\n        /* \"#utility.yul\":17496:17497   */\n      0x00\n        /* \"#utility.yul\":17485:17494   */\n      dup4\n        /* \"#utility.yul\":17481:17498   */\n      add\n        /* \"#utility.yul\":17474:17521   */\n      mstore\n        /* \"#utility.yul\":17538:17669   */\n      tag_385\n        /* \"#utility.yul\":17664:17668   */\n      dup2\n        /* \"#utility.yul\":17538:17669   */\n      tag_209\n      jump\t// in\n    tag_385:\n        /* \"#utility.yul\":17530:17669   */\n      swap1\n      pop\n        /* \"#utility.yul\":17257:17676   */\n      swap2\n      swap1\n      pop\n      jump\t// out\n        /* \"#utility.yul\":17682:17772   */\n    tag_210:\n        /* \"#utility.yul\":17716:17723   */\n      0x00\n        /* \"#utility.yul\":17759:17764   */\n      dup2\n        /* \"#utility.yul\":17752:17765   */\n      iszero\n        /* \"#utility.yul\":17745:17766   */\n      iszero\n        /* \"#utility.yul\":17734:17766   */\n      swap1\n      pop\n        /* \"#utility.yul\":17682:17772   */\n      swap2\n      swap1\n      pop\n      jump\t// out\n        /* \"#utility.yul\":17778:17877   */\n    tag_211:\n        /* \"#utility.yul\":17849:17870   */\n      tag_388\n        /* \"#utility.yul\":17864:17869   */\n      dup2\n        /* \"#utility.yul\":17849:17870   */\n      tag_210\n      jump\t// in\n    tag_388:\n        /* \"#utility.yul\":17844:17847   */\n      dup3\n        /* \"#utility.yul\":17837:17871   */\n      mstore\n        /* \"#utility.yul\":17778:17877   */\n      pop\n      pop\n      jump\t// out\n        /* \"#utility.yul\":17963:18305   */\n    tag_212:\n        /* \"#utility.yul\":18116:18120   */\n      0x20\n        /* \"#utility.yul\":18111:18114   */\n      dup3\n        /* \"#utility.yul\":18107:18121   */\n      add\n        /* \"#utility.yul\":18212:18216   */\n      0x00\n        /* \"#utility.yul\":18205:18210   */\n      dup3\n        /* \"#utility.yul\":18201:18217   */\n      add\n        /* \"#utility.yul\":18195:18218   */\n      mload\n        /* \"#utility.yul\":18231:18288   */\n      tag_390\n        /* \"#utility.yul\":18282:18286   */\n      0x00\n        /* \"#utility.yul\":18277:18280   */\n      dup6\n        /* \"#utility.yul\":18273:18287   */\n      add\n        /* \"#utility.yul\":18259:18271   */\n      dup3\n        /* \"#utility.yul\":18231:18288   */\n      tag_211\n      jump\t// in\n    tag_390:\n        /* \"#utility.yul\":18131:18298   */\n      pop\n        /* \"#utility.yul\":18085:18305   */\n      pop\n        /* \"#utility.yul\":17963:18305   */\n      pop\n      pop\n      jump\t// out\n        /* \"#utility.yul\":18311:18645   */\n    tag_152:\n        /* \"#utility.yul\":18460:18464   */\n      0x00\n        /* \"#utility.yul\":18498:18500   */\n      0x20\n        /* \"#utility.yul\":18487:18496   */\n      dup3\n        /* \"#utility.yul\":18483:18501   */\n      add\n        /* \"#utility.yul\":18475:18501   */\n      swap1\n      pop\n        /* \"#utility.yul\":18511:18638   */\n      tag_392\n        /* \"#utility.yul\":18635:18636   */\n      0x00\n        /* \"#utility.yul\":18624:18633   */\n      dup4\n        /* \"#utility.yul\":18620:18637   */\n      add\n        /* \"#utility.yul\":18611:18617   */\n      dup5\n        /* \"#utility.yul\":18511:18638   */\n      tag_212\n      jump\t// in\n    tag_392:\n        /* \"#utility.yul\":18311:18645   */\n      swap3\n      swap2\n      pop\n      pop\n      jump\t// out\n        /* \"#utility.yul\":18651:18824   */\n    tag_213:\n        /* \"#utility.yul\":18791:18816   */\n      0x43616e6e6f74207472616e7366657220746f2073656c66000000000000000000\n        /* \"#utility.yul\":18787:18788   */\n      0x00\n        /* \"#utility.yul\":18779:18785   */\n      dup3\n        /* \"#utility.yul\":18775:18789   */\n      add\n        /* \"#utility.yul\":18768:18817   */\n      mstore\n        /* \"#utility.yul\":18651:18824   */\n      pop\n      jump\t// out\n        /* \"#utility.yul\":18830:19196   */\n    tag_214:\n        /* \"#utility.yul\":18972:18975   */\n      0x00\n        /* \"#utility.yul\":18993:19060   */\n      tag_395\n        /* \"#utility.yul\":19057:19059   */\n      0x17\n        /* \"#utility.yul\":19052:19055   */\n      dup4\n        /* \"#utility.yul\":18993:19060   */\n      tag_185\n      jump\t// in\n    tag_395:\n        /* \"#utility.yul\":18986:19060   */\n      swap2\n      pop\n        /* \"#utility.yul\":19069:19162   */\n      tag_396\n        /* \"#utility.yul\":19158:19161   */\n      dup3\n        /* \"#utility.yul\":19069:19162   */\n      tag_213\n      jump\t// in\n    tag_396:\n        /* \"#utility.yul\":19187:19189   */\n      0x20\n        /* \"#utility.yul\":19182:19185   */\n      dup3\n        /* \"#utility.yul\":19178:19190   */\n      add\n        /* \"#utility.yul\":19171:19190   */\n      swap1\n      pop\n        /* \"#utility.yul\":18830:19196   */\n      swap2\n      swap1\n      pop\n      jump\t// out\n        /* \"#utility.yul\":19202:19621   */\n    tag_156:\n        /* \"#utility.yul\":19368:19372   */\n      0x00\n        /* \"#utility.yul\":19406:19408   */\n      0x20\n        /* \"#utility.yul\":19395:19404   */\n      dup3\n        /* \"#utility.yul\":19391:19409   */\n      add\n        /* \"#utility.yul\":19383:19409   */\n      swap1\n      pop\n        /* \"#utility.yul\":19455:19464   */\n      dup2\n        /* \"#utility.yul\":19449:19453   */\n      dup2\n        /* \"#utility.yul\":19445:19465   */\n      sub\n        /* \"#utility.yul\":19441:19442   */\n      0x00\n        /* \"#utility.yul\":19430:19439   */\n      dup4\n        /* \"#utility.yul\":19426:19443   */\n      add\n        /* \"#utility.yul\":19419:19466   */\n      mstore\n        /* \"#utility.yul\":19483:19614   */\n      tag_398\n        /* \"#utility.yul\":19609:19613   */\n      dup2\n        /* \"#utility.yul\":19483:19614   */\n      tag_214\n      jump\t// in\n    tag_398:\n        /* \"#utility.yul\":19475:19614   */\n      swap1\n      pop\n        /* \"#utility.yul\":19202:19621   */\n      swap2\n      swap1\n      pop\n      jump\t// out\n\n    auxdata: 0xa26469706673582212201fe1e4a86cd0940bb58ac8b9336e7d9aee4eb6cb016dec7b9fa7252f2a24bd4964736f6c63430008190033\n}\n",
				"bytecode": {
					"linkReferences": {},
					"object": "6080604052739ddfaca8183c41ad55329bdeed9f6a8d53168b1b60045f6101000a81548173ffffffffffffffffffffffffffffffffffffffff021916908373ffffffffffffffffffffffffffffffffffffffff1602179055507f787d74caea10b2b357790d5b5247c2f63d1d91572a9846f780606e4d953677ae5f1b600555619c4060065f6101000a81548163ffffffff021916908363ffffffff1602179055506003600660046101000a81548161ffff021916908361ffff16021790555060016006806101000a81548163ffffffff021916908363ffffffff16021790555060646007555f6008553480156100f3575f80fd5b5060045f9054906101000a900473ffffffffffffffffffffffffffffffffffffffff1633805f8073ffffffffffffffffffffffffffffffffffffffff168273ffffffffffffffffffffffffffffffffffffffff1603610187576040517f08c379a000000000000000000000000000000000000000000000000000000000815260040161017e90610462565b60405180910390fd5b815f806101000a81548173ffffffffffffffffffffffffffffffffffffffff021916908373ffffffffffffffffffffffffffffffffffffffff1602179055505f73ffffffffffffffffffffffffffffffffffffffff168173ffffffffffffffffffffffffffffffffffffffff161461020957610208816102de60201b60201c565b5b5050505f73ffffffffffffffffffffffffffffffffffffffff168173ffffffffffffffffffffffffffffffffffffffff1603610271576040517fd92e233d00000000000000000000000000000000000000000000000000000000815260040160405180910390fd5b8060025f6101000a81548173ffffffffffffffffffffffffffffffffffffffff021916908373ffffffffffffffffffffffffffffffffffffffff160217905550507fabf89ca84f4c56b7dce7f4462f7380c00ec1dfcc7b4d60d21ab591a059d5c15c6003819055506104e8565b3373ffffffffffffffffffffffffffffffffffffffff168173ffffffffffffffffffffffffffffffffffffffff160361034c576040517f08c379a0000000000000000000000000000000000000000000000000000000008152600401610343906104ca565b60405180910390fd5b8060015f6101000a81548173ffffffffffffffffffffffffffffffffffffffff021916908373ffffffffffffffffffffffffffffffffffffffff1602179055508073ffffffffffffffffffffffffffffffffffffffff165f8054906101000a900473ffffffffffffffffffffffffffffffffffffffff1673ffffffffffffffffffffffffffffffffffffffff167fed8889f560326eb138920d842192f0eb3dd22b4f139c87a2c57538e05bae127860405160405180910390a350565b5f82825260208201905092915050565b7f43616e6e6f7420736574206f776e657220746f207a65726f00000000000000005f82015250565b5f61044c601883610408565b915061045782610418565b602082019050919050565b5f6020820190508181035f83015261047981610440565b9050919050565b7f43616e6e6f74207472616e7366657220746f2073656c660000000000000000005f82015250565b5f6104b4601783610408565b91506104bf82610480565b602082019050919050565b5f6020820190508181035f8301526104e1816104a8565b9050919050565b611d79806104f55f395ff3fe608060405234801561000f575f80fd5b50600436106100fe575f3560e01c80638ea9811711610095578063b1cad5e311610064578063b1cad5e314610252578063dd02d9e514610282578063edde8349146102b2578063f2fde38b146102d0576100fe565b80638ea98117146101dc5780639eccacf6146101f8578063a3e56fa814610216578063b0fb162f14610234576100fe565b806379ba5097116100d157806379ba5097146101785780637ccfd7fc146101825780638ac00021146101a05780638da5cb5b146101be576100fe565b80631f7b6d32146101025780631fe543e31461012057806324f746971461013c57806345bb327b1461015a575b5f80fd5b61010a6102ec565b6040516101179190611443565b60405180910390f35b61013a600480360381019061013591906114ef565b6102f2565b005b6101446103b6565b604051610151919061156a565b60405180910390f35b6101626103cb565b60405161016f919061159b565b60405180910390f35b6101806103d1565b005b61018a610560565b604051610197919061156a565b60405180910390f35b6101a8610574565b6040516101b59190611443565b60405180910390f35b6101c661057a565b6040516101d391906115f3565b60405180910390f35b6101f660048036038101906101f19190611636565b6105a1565b005b61020061077e565b60405161020d91906116bc565b60405180910390f35b61021e6107a3565b60405161022b91906115f3565b60405180910390f35b61023c6107c8565b60405161024991906116f1565b60405180910390f35b61026c60048036038101906102679190611636565b6107dc565b604051610279919061177a565b60405180910390f35b61029c60048036038101906102979190611636565b61092a565b6040516102a99190611443565b60405180910390f35b6102ba610bb2565b6040516102c79190611443565b60405180910390f35b6102ea60048036038101906102e59190611636565b610bb8565b005b60075481565b60025f9054906101000a900473ffffffffffffffffffffffffffffffffffffffff1673ffffffffffffffffffffffffffffffffffffffff163373ffffffffffffffffffffffffffffffffffffffff16146103a6573360025f9054906101000a900473ffffffffffffffffffffffffffffffffffffffff166040517f1cf993f400000000000000000000000000000000000000000000000000000000815260040161039d92919061179a565b60405180910390fd5b6103b1838383610bcc565b505050565b60065f9054906101000a900463ffffffff1681565b60055481565b60015f9054906101000a900473ffffffffffffffffffffffffffffffffffffffff1673ffffffffffffffffffffffffffffffffffffffff163373ffffffffffffffffffffffffffffffffffffffff1614610460576040517f08c379a00000000000000000000000000000000000000000000000000000000081526004016104579061180b565b60405180910390fd5b5f805f9054906101000a900473ffffffffffffffffffffffffffffffffffffffff169050335f806101000a81548173ffffffffffffffffffffffffffffffffffffffff021916908373ffffffffffffffffffffffffffffffffffffffff1602179055505f60015f6101000a81548173ffffffffffffffffffffffffffffffffffffffff021916908373ffffffffffffffffffffffffffffffffffffffff1602179055503373ffffffffffffffffffffffffffffffffffffffff168173ffffffffffffffffffffffffffffffffffffffff167f8be0079c531659141344cd1fd0a4f28419497f9722a3daafe3b4186f6b6457e060405160405180910390a350565b60068054906101000a900463ffffffff1681565b60035481565b5f805f9054906101000a900473ffffffffffffffffffffffffffffffffffffffff16905090565b6105a961057a565b73ffffffffffffffffffffffffffffffffffffffff163373ffffffffffffffffffffffffffffffffffffffff1614158015610631575060025f9054906101000a900473ffffffffffffffffffffffffffffffffffffffff1673ffffffffffffffffffffffffffffffffffffffff163373ffffffffffffffffffffffffffffffffffffffff1614155b1561069f573361063f61057a565b60025f9054906101000a900473ffffffffffffffffffffffffffffffffffffffff166040517f061db9c100000000000000000000000000000000000000000000000000000000815260040161069693929190611829565b60405180910390fd5b5f73ffffffffffffffffffffffffffffffffffffffff168173ffffffffffffffffffffffffffffffffffffffff1603610704576040517fd92e233d00000000000000000000000000000000000000000000000000000000815260040160405180910390fd5b8060025f6101000a81548173ffffffffffffffffffffffffffffffffffffffff021916908373ffffffffffffffffffffffffffffffffffffffff1602179055507fd1a6a14209a385a964d036e404cb5cfb71f4000cdb03c9366292430787261be68160405161077391906115f3565b60405180910390a150565b60025f9054906101000a900473ffffffffffffffffffffffffffffffffffffffff1681565b60045f9054906101000a900473ffffffffffffffffffffffffffffffffffffffff1681565b600660049054906101000a900461ffff1681565b60605f600a5f8473ffffffffffffffffffffffffffffffffffffffff1673ffffffffffffffffffffffffffffffffffffffff1681526020019081526020015f20540361085d576040517f08c379a0000000000000000000000000000000000000000000000000000000008152600401610854906118a8565b60405180910390fd5b602a600a5f8473ffffffffffffffffffffffffffffffffffffffff1673ffffffffffffffffffffffffffffffffffffffff1681526020019081526020015f2054036108dd576040517f08c379a00000000000000000000000000000000000000000000000000000000081526004016108d490611910565b60405180910390fd5b610923600a5f8473ffffffffffffffffffffffffffffffffffffffff1673ffffffffffffffffffffffffffffffffffffffff1681526020019081526020015f2054610d03565b9050919050565b5f6109336111da565b5f600a5f8473ffffffffffffffffffffffffffffffffffffffff1673ffffffffffffffffffffffffffffffffffffffff1681526020019081526020015f2054146109b2576040517f08c379a00000000000000000000000000000000000000000000000000000000081526004016109a990611978565b60405180910390fd5b60025f9054906101000a900473ffffffffffffffffffffffffffffffffffffffff1673ffffffffffffffffffffffffffffffffffffffff16639b1c385e6040518060c0016040528060055481526020016003548152602001600660049054906101000a900461ffff1661ffff16815260200160065f9054906101000a900463ffffffff1663ffffffff16815260200160068054906101000a900463ffffffff1663ffffffff168152602001610a7660405180602001604052805f1515815250611269565b8152506040518263ffffffff1660e01b8152600401610a959190611aaa565b6020604051808303815f875af1158015610ab1573d5f803e3d5ffd5b505050506040513d601f19601f82011682018060405250810190610ad59190611ade565b90508160095f8381526020019081526020015f205f6101000a81548173ffffffffffffffffffffffffffffffffffffffff021916908373ffffffffffffffffffffffffffffffffffffffff160217905550602a600a5f8473ffffffffffffffffffffffffffffffffffffffff1673ffffffffffffffffffffffffffffffffffffffff1681526020019081526020015f20819055508173ffffffffffffffffffffffffffffffffffffffff16817f3e7fdeab84c01ce5308321caa0b460e1c4ec3c7099223d79634d9a71d99932e360405160405180910390a3919050565b60085481565b610bc06111da565b610bc981611301565b50565b5f6001601484845f818110610be457610be3611b09565b5b90506020020135610bf59190611b63565b610bff9190611bc0565b905080600a5f60095f8881526020019081526020015f205f9054906101000a900473ffffffffffffffffffffffffffffffffffffffff1673ffffffffffffffffffffffffffffffffffffffff1673ffffffffffffffffffffffffffffffffffffffff1681526020019081526020015f208190555080847f54d97c1f7e5abad75bd421455cd4dd296852a52e1ea721f2cdb66d06fa2082a960405160405180910390a360075483835f818110610cb757610cb6611b09565b5b90506020020135610cc89190611b63565b6008819055506008547facb85192b17e57cdd6ffdc2af021cc70c3a2269771b37b82dd36695fec903af560405160405180910390a250505050565b60605f6040518061028001604052806040518060400160405280600981526020017f54617267617279656e000000000000000000000000000000000000000000000081525081526020016040518060400160405280600981526020017f4c616e6e6973746572000000000000000000000000000000000000000000000081525081526020016040518060400160405280600581526020017f537461726b00000000000000000000000000000000000000000000000000000081525081526020016040518060400160405280600681526020017f547972656c6c000000000000000000000000000000000000000000000000000081525081526020016040518060400160405280600981526020017f426172617468656f6e000000000000000000000000000000000000000000000081525081526020016040518060400160405280600781526020017f4d617274656c6c0000000000000000000000000000000000000000000000000081525081526020016040518060400160405280600581526020017f54756c6c7900000000000000000000000000000000000000000000000000000081525081526020016040518060400160405280600681526020017f426f6c746f6e000000000000000000000000000000000000000000000000000081525081526020016040518060400160405280600781526020017f477265796a6f790000000000000000000000000000000000000000000000000081525081526020016040518060400160405280600581526020017f417272796e00000000000000000000000000000000000000000000000000000081525081526020016040518060400160405280600481526020017f467265790000000000000000000000000000000000000000000000000000000081525081526020016040518060400160405280600781526020017f4d6f726d6f6e740000000000000000000000000000000000000000000000000081525081526020016040518060400160405280600681526020017f5461726c6579000000000000000000000000000000000000000000000000000081525081526020016040518060400160405280600581526020017f4461796e6500000000000000000000000000000000000000000000000000000081525081526020016040518060400160405280600581526020017f556d62657200000000000000000000000000000000000000000000000000000081525081526020016040518060400160405280600881526020017f56616c6572796f6e00000000000000000000000000000000000000000000000081525081526020016040518060400160405280600881526020017f4d616e6465726c7900000000000000000000000000000000000000000000000081525081526020016040518060400160405280600781526020017f436c6567616e650000000000000000000000000000000000000000000000000081525081526020016040518060400160405280600681526020017f476c6f766572000000000000000000000000000000000000000000000000000081525081526020016040518060400160405280600881526020017f4b6172737461726b0000000000000000000000000000000000000000000000008152508152509050806001846111bc9190611bf3565b601481106111cd576111cc611b09565b5b6020020151915050919050565b5f8054906101000a900473ffffffffffffffffffffffffffffffffffffffff1673ffffffffffffffffffffffffffffffffffffffff163373ffffffffffffffffffffffffffffffffffffffff1614611267576040517f08c379a000000000000000000000000000000000000000000000000000000000815260040161125e90611c70565b60405180910390fd5b565b60607f92fd13387c7fe7befbc38d303d6468778fb9731bc4583f17d92989c6fcfdeaaa8260405160240161129d9190611cc2565b604051602081830303815290604052907bffffffffffffffffffffffffffffffffffffffffffffffffffffffff19166020820180517bffffffffffffffffffffffffffffffffffffffffffffffffffffffff83818316178352505050509050919050565b3373ffffffffffffffffffffffffffffffffffffffff168173ffffffffffffffffffffffffffffffffffffffff160361136f576040517f08c379a000000000000000000000000000000000000000000000000000000000815260040161136690611d25565b60405180910390fd5b8060015f6101000a81548173ffffffffffffffffffffffffffffffffffffffff021916908373ffffffffffffffffffffffffffffffffffffffff1602179055508073ffffffffffffffffffffffffffffffffffffffff165f8054906101000a900473ffffffffffffffffffffffffffffffffffffffff1673ffffffffffffffffffffffffffffffffffffffff167fed8889f560326eb138920d842192f0eb3dd22b4f139c87a2c57538e05bae127860405160405180910390a350565b5f819050919050565b61143d8161142b565b82525050565b5f6020820190506114565f830184611434565b92915050565b5f80fd5b5f80fd5b61146d8161142b565b8114611477575f80fd5b50565b5f8135905061148881611464565b92915050565b5f80fd5b5f80fd5b5f80fd5b5f8083601f8401126114af576114ae61148e565b5b8235905067ffffffffffffffff8111156114cc576114cb611492565b5b6020830191508360208202830111156114e8576114e7611496565b5b9250929050565b5f805f604084860312156115065761150561145c565b5b5f6115138682870161147a565b935050602084013567ffffffffffffffff81111561153457611533611460565b5b6115408682870161149a565b92509250509250925092565b5f63ffffffff82169050919050565b6115648161154c565b82525050565b5f60208201905061157d5f83018461155b565b92915050565b5f819050919050565b61159581611583565b82525050565b5f6020820190506115ae5f83018461158c565b92915050565b5f73ffffffffffffffffffffffffffffffffffffffff82169050919050565b5f6115dd826115b4565b9050919050565b6115ed816115d3565b82525050565b5f6020820190506116065f8301846115e4565b92915050565b611615816115d3565b811461161f575f80fd5b50565b5f813590506116308161160c565b92915050565b5f6020828403121561164b5761164a61145c565b5b5f61165884828501611622565b91505092915050565b5f819050919050565b5f61168461167f61167a846115b4565b611661565b6115b4565b9050919050565b5f6116958261166a565b9050919050565b5f6116a68261168b565b9050919050565b6116b68161169c565b82525050565b5f6020820190506116cf5f8301846116ad565b92915050565b5f61ffff82169050919050565b6116eb816116d5565b82525050565b5f6020820190506117045f8301846116e2565b92915050565b5f81519050919050565b5f82825260208201905092915050565b8281835e5f83830152505050565b5f601f19601f8301169050919050565b5f61174c8261170a565b6117568185611714565b9350611766818560208601611724565b61176f81611732565b840191505092915050565b5f6020820190508181035f8301526117928184611742565b905092915050565b5f6040820190506117ad5f8301856115e4565b6117ba60208301846115e4565b9392505050565b7f4d7573742062652070726f706f736564206f776e6572000000000000000000005f82015250565b5f6117f5601683611714565b9150611800826117c1565b602082019050919050565b5f6020820190508181035f830152611822816117e9565b9050919050565b5f60608201905061183c5f8301866115e4565b61184960208301856115e4565b61185660408301846115e4565b949350505050565b7f44696365206e6f7420726f6c6c656400000000000000000000000000000000005f82015250565b5f611892600f83611714565b915061189d8261185e565b602082019050919050565b5f6020820190508181035f8301526118bf81611886565b9050919050565b7f526f6c6c20696e2070726f6772657373000000000000000000000000000000005f82015250565b5f6118fa601083611714565b9150611905826118c6565b602082019050919050565b5f6020820190508181035f830152611927816118ee565b9050919050565b7f416c726561647920726f6c6c65640000000000000000000000000000000000005f82015250565b5f611962600e83611714565b915061196d8261192e565b602082019050919050565b5f6020820190508181035f83015261198f81611956565b9050919050565b61199f81611583565b82525050565b6119ae8161142b565b82525050565b6119bd816116d5565b82525050565b6119cc8161154c565b82525050565b5f81519050919050565b5f82825260208201905092915050565b5f6119f6826119d2565b611a0081856119dc565b9350611a10818560208601611724565b611a1981611732565b840191505092915050565b5f60c083015f830151611a395f860182611996565b506020830151611a4c60208601826119a5565b506040830151611a5f60408601826119b4565b506060830151611a7260608601826119c3565b506080830151611a8560808601826119c3565b5060a083015184820360a0860152611a9d82826119ec565b9150508091505092915050565b5f6020820190508181035f830152611ac28184611a24565b905092915050565b5f81519050611ad881611464565b92915050565b5f60208284031215611af357611af261145c565b5b5f611b0084828501611aca565b91505092915050565b7f4e487b71000000000000000000000000000000000000000000000000000000005f52603260045260245ffd5b7f4e487b71000000000000000000000000000000000000000000000000000000005f52601260045260245ffd5b5f611b6d8261142b565b9150611b788361142b565b925082611b8857611b87611b36565b5b828206905092915050565b7f4e487b71000000000000000000000000000000000000000000000000000000005f52601160045260245ffd5b5f611bca8261142b565b9150611bd58361142b565b9250828201905080821115611bed57611bec611b93565b5b92915050565b5f611bfd8261142b565b9150611c088361142b565b9250828203905081811115611c2057611c1f611b93565b5b92915050565b7f4f6e6c792063616c6c61626c65206279206f776e6572000000000000000000005f82015250565b5f611c5a601683611714565b9150611c6582611c26565b602082019050919050565b5f6020820190508181035f830152611c8781611c4e565b9050919050565b5f8115159050919050565b611ca281611c8e565b82525050565b602082015f820151611cbc5f850182611c99565b50505050565b5f602082019050611cd55f830184611ca8565b92915050565b7f43616e6e6f74207472616e7366657220746f2073656c660000000000000000005f82015250565b5f611d0f601783611714565b9150611d1a82611cdb565b602082019050919050565b5f6020820190508181035f830152611d3c81611d03565b905091905056fea26469706673582212201fe1e4a86cd0940bb58ac8b9336e7d9aee4eb6cb016dec7b9fa7252f2a24bd4964736f6c63430008190033",
					"opcodes": "PUSH1 0x80 PUSH1 0x40 MSTORE PUSH20 0x9DDFACA8183C41AD55329BDEED9F6A8D53168B1B PUSH1 0x4 PUSH0 PUSH2 0x100 EXP DUP2 SLOAD DUP2 PUSH20 0xFFFFFFFFFFFFFFFFFFFFFFFFFFFFFFFFFFFFFFFF MUL NOT AND SWAP1 DUP4 PUSH20 0xFFFFFFFFFFFFFFFFFFFFFFFFFFFFFFFFFFFFFFFF AND MUL OR SWAP1 SSTORE POP PUSH32 0x787D74CAEA10B2B357790D5B5247C2F63D1D91572A9846F780606E4D953677AE PUSH0 SHL PUSH1 0x5 SSTORE PUSH2 0x9C40 PUSH1 0x6 PUSH0 PUSH2 0x100 EXP DUP2 SLOAD DUP2 PUSH4 0xFFFFFFFF MUL NOT AND SWAP1 DUP4 PUSH4 0xFFFFFFFF AND MUL OR SWAP1 SSTORE POP PUSH1 0x3 PUSH1 0x6 PUSH1 0x4 PUSH2 0x100 EXP DUP2 SLOAD DUP2 PUSH2 0xFFFF MUL NOT AND SWAP1 DUP4 PUSH2 0xFFFF AND MUL OR SWAP1 SSTORE POP PUSH1 0x1 PUSH1 0x6 DUP1 PUSH2 0x100 EXP DUP2 SLOAD DUP2 PUSH4 0xFFFFFFFF MUL NOT AND SWAP1 DUP4 PUSH4 0xFFFFFFFF AND MUL OR SWAP1 SSTORE POP PUSH1 0x64 PUSH1 0x7 SSTORE PUSH0 PUSH1 0x8 SSTORE CALLVALUE DUP1 ISZERO PUSH2 0xF3 JUMPI PUSH0 DUP1 REVERT JUMPDEST POP PUSH1 0x4 PUSH0 SWAP1 SLOAD SWAP1 PUSH2 0x100 EXP SWAP1 DIV PUSH20 0xFFFFFFFFFFFFFFFFFFFFFFFFFFFFFFFFFFFFFFFF AND CALLER DUP1 PUSH0 DUP1 PUSH20 0xFFFFFFFFFFFFFFFFFFFFFFFFFFFFFFFFFFFFFFFF AND DUP3 PUSH20 0xFFFFFFFFFFFFFFFFFFFFFFFFFFFFFFFFFFFFFFFF AND SUB PUSH2 0x187 JUMPI PUSH1 0x40 MLOAD PUSH32 0x8C379A000000000000000000000000000000000000000000000000000000000 DUP2 MSTORE PUSH1 0x4 ADD PUSH2 0x17E SWAP1 PUSH2 0x462 JUMP JUMPDEST PUSH1 0x40 MLOAD DUP1 SWAP2 SUB SWAP1 REVERT JUMPDEST DUP2 PUSH0 DUP1 PUSH2 0x100 EXP DUP2 SLOAD DUP2 PUSH20 0xFFFFFFFFFFFFFFFFFFFFFFFFFFFFFFFFFFFFFFFF MUL NOT AND SWAP1 DUP4 PUSH20 0xFFFFFFFFFFFFFFFFFFFFFFFFFFFFFFFFFFFFFFFF AND MUL OR SWAP1 SSTORE POP PUSH0 PUSH20 0xFFFFFFFFFFFFFFFFFFFFFFFFFFFFFFFFFFFFFFFF AND DUP2 PUSH20 0xFFFFFFFFFFFFFFFFFFFFFFFFFFFFFFFFFFFFFFFF AND EQ PUSH2 0x209 JUMPI PUSH2 0x208 DUP2 PUSH2 0x2DE PUSH1 0x20 SHL PUSH1 0x20 SHR JUMP JUMPDEST JUMPDEST POP POP POP PUSH0 PUSH20 0xFFFFFFFFFFFFFFFFFFFFFFFFFFFFFFFFFFFFFFFF AND DUP2 PUSH20 0xFFFFFFFFFFFFFFFFFFFFFFFFFFFFFFFFFFFFFFFF AND SUB PUSH2 0x271 JUMPI PUSH1 0x40 MLOAD PUSH32 0xD92E233D00000000000000000000000000000000000000000000000000000000 DUP2 MSTORE PUSH1 0x4 ADD PUSH1 0x40 MLOAD DUP1 SWAP2 SUB SWAP1 REVERT JUMPDEST DUP1 PUSH1 0x2 PUSH0 PUSH2 0x100 EXP DUP2 SLOAD DUP2 PUSH20 0xFFFFFFFFFFFFFFFFFFFFFFFFFFFFFFFFFFFFFFFF MUL NOT AND SWAP1 DUP4 PUSH20 0xFFFFFFFFFFFFFFFFFFFFFFFFFFFFFFFFFFFFFFFF AND MUL OR SWAP1 SSTORE POP POP PUSH32 0xABF89CA84F4C56B7DCE7F4462F7380C00EC1DFCC7B4D60D21AB591A059D5C15C PUSH1 0x3 DUP2 SWAP1 SSTORE POP PUSH2 0x4E8 JUMP JUMPDEST CALLER PUSH20 0xFFFFFFFFFFFFFFFFFFFFFFFFFFFFFFFFFFFFFFFF AND DUP2 PUSH20 0xFFFFFFFFFFFFFFFFFFFFFFFFFFFFFFFFFFFFFFFF AND SUB PUSH2 0x34C JUMPI PUSH1 0x40 MLOAD PUSH32 0x8C379A000000000000000000000000000000000000000000000000000000000 DUP2 MSTORE PUSH1 0x4 ADD PUSH2 0x343 SWAP1 PUSH2 0x4CA JUMP JUMPDEST PUSH1 0x40 MLOAD DUP1 SWAP2 SUB SWAP1 REVERT JUMPDEST DUP1 PUSH1 0x1 PUSH0 PUSH2 0x100 EXP DUP2 SLOAD DUP2 PUSH20 0xFFFFFFFFFFFFFFFFFFFFFFFFFFFFFFFFFFFFFFFF MUL NOT AND SWAP1 DUP4 PUSH20 0xFFFFFFFFFFFFFFFFFFFFFFFFFFFFFFFFFFFFFFFF AND MUL OR SWAP1 SSTORE POP DUP1 PUSH20 0xFFFFFFFFFFFFFFFFFFFFFFFFFFFFFFFFFFFFFFFF AND PUSH0 DUP1 SLOAD SWAP1 PUSH2 0x100 EXP SWAP1 DIV PUSH20 0xFFFFFFFFFFFFFFFFFFFFFFFFFFFFFFFFFFFFFFFF AND PUSH20 0xFFFFFFFFFFFFFFFFFFFFFFFFFFFFFFFFFFFFFFFF AND PUSH32 0xED8889F560326EB138920D842192F0EB3DD22B4F139C87A2C57538E05BAE1278 PUSH1 0x40 MLOAD PUSH1 0x40 MLOAD DUP1 SWAP2 SUB SWAP1 LOG3 POP JUMP JUMPDEST PUSH0 DUP3 DUP3 MSTORE PUSH1 0x20 DUP3 ADD SWAP1 POP SWAP3 SWAP2 POP POP JUMP JUMPDEST PUSH32 0x43616E6E6F7420736574206F776E657220746F207A65726F0000000000000000 PUSH0 DUP3 ADD MSTORE POP JUMP JUMPDEST PUSH0 PUSH2 0x44C PUSH1 0x18 DUP4 PUSH2 0x408 JUMP JUMPDEST SWAP2 POP PUSH2 0x457 DUP3 PUSH2 0x418 JUMP JUMPDEST PUSH1 0x20 DUP3 ADD SWAP1 POP SWAP2 SWAP1 POP JUMP JUMPDEST PUSH0 PUSH1 0x20 DUP3 ADD SWAP1 POP DUP2 DUP2 SUB PUSH0 DUP4 ADD MSTORE PUSH2 0x479 DUP2 PUSH2 0x440 JUMP JUMPDEST SWAP1 POP SWAP2 SWAP1 POP JUMP JUMPDEST PUSH32 0x43616E6E6F74207472616E7366657220746F2073656C66000000000000000000 PUSH0 DUP3 ADD MSTORE POP JUMP JUMPDEST PUSH0 PUSH2 0x4B4 PUSH1 0x17 DUP4 PUSH2 0x408 JUMP JUMPDEST SWAP2 POP PUSH2 0x4BF DUP3 PUSH2 0x480 JUMP JUMPDEST PUSH1 0x20 DUP3 ADD SWAP1 POP SWAP2 SWAP1 POP JUMP JUMPDEST PUSH0 PUSH1 0x20 DUP3 ADD SWAP1 POP DUP2 DUP2 SUB PUSH0 DUP4 ADD MSTORE PUSH2 0x4E1 DUP2 PUSH2 0x4A8 JUMP JUMPDEST SWAP1 POP SWAP2 SWAP1 POP JUMP JUMPDEST PUSH2 0x1D79 DUP1 PUSH2 0x4F5 PUSH0 CODECOPY PUSH0 RETURN INVALID PUSH1 0x80 PUSH1 0x40 MSTORE CALLVALUE DUP1 ISZERO PUSH2 0xF JUMPI PUSH0 DUP1 REVERT JUMPDEST POP PUSH1 0x4 CALLDATASIZE LT PUSH2 0xFE JUMPI PUSH0 CALLDATALOAD PUSH1 0xE0 SHR DUP1 PUSH4 0x8EA98117 GT PUSH2 0x95 JUMPI DUP1 PUSH4 0xB1CAD5E3 GT PUSH2 0x64 JUMPI DUP1 PUSH4 0xB1CAD5E3 EQ PUSH2 0x252 JUMPI DUP1 PUSH4 0xDD02D9E5 EQ PUSH2 0x282 JUMPI DUP1 PUSH4 0xEDDE8349 EQ PUSH2 0x2B2 JUMPI DUP1 PUSH4 0xF2FDE38B EQ PUSH2 0x2D0 JUMPI PUSH2 0xFE JUMP JUMPDEST DUP1 PUSH4 0x8EA98117 EQ PUSH2 0x1DC JUMPI DUP1 PUSH4 0x9ECCACF6 EQ PUSH2 0x1F8 JUMPI DUP1 PUSH4 0xA3E56FA8 EQ PUSH2 0x216 JUMPI DUP1 PUSH4 0xB0FB162F EQ PUSH2 0x234 JUMPI PUSH2 0xFE JUMP JUMPDEST DUP1 PUSH4 0x79BA5097 GT PUSH2 0xD1 JUMPI DUP1 PUSH4 0x79BA5097 EQ PUSH2 0x178 JUMPI DUP1 PUSH4 0x7CCFD7FC EQ PUSH2 0x182 JUMPI DUP1 PUSH4 0x8AC00021 EQ PUSH2 0x1A0 JUMPI DUP1 PUSH4 0x8DA5CB5B EQ PUSH2 0x1BE JUMPI PUSH2 0xFE JUMP JUMPDEST DUP1 PUSH4 0x1F7B6D32 EQ PUSH2 0x102 JUMPI DUP1 PUSH4 0x1FE543E3 EQ PUSH2 0x120 JUMPI DUP1 PUSH4 0x24F74697 EQ PUSH2 0x13C JUMPI DUP1 PUSH4 0x45BB327B EQ PUSH2 0x15A JUMPI JUMPDEST PUSH0 DUP1 REVERT JUMPDEST PUSH2 0x10A PUSH2 0x2EC JUMP JUMPDEST PUSH1 0x40 MLOAD PUSH2 0x117 SWAP2 SWAP1 PUSH2 0x1443 JUMP JUMPDEST PUSH1 0x40 MLOAD DUP1 SWAP2 SUB SWAP1 RETURN JUMPDEST PUSH2 0x13A PUSH1 0x4 DUP1 CALLDATASIZE SUB DUP2 ADD SWAP1 PUSH2 0x135 SWAP2 SWAP1 PUSH2 0x14EF JUMP JUMPDEST PUSH2 0x2F2 JUMP JUMPDEST STOP JUMPDEST PUSH2 0x144 PUSH2 0x3B6 JUMP JUMPDEST PUSH1 0x40 MLOAD PUSH2 0x151 SWAP2 SWAP1 PUSH2 0x156A JUMP JUMPDEST PUSH1 0x40 MLOAD DUP1 SWAP2 SUB SWAP1 RETURN JUMPDEST PUSH2 0x162 PUSH2 0x3CB JUMP JUMPDEST PUSH1 0x40 MLOAD PUSH2 0x16F SWAP2 SWAP1 PUSH2 0x159B JUMP JUMPDEST PUSH1 0x40 MLOAD DUP1 SWAP2 SUB SWAP1 RETURN JUMPDEST PUSH2 0x180 PUSH2 0x3D1 JUMP JUMPDEST STOP JUMPDEST PUSH2 0x18A PUSH2 0x560 JUMP JUMPDEST PUSH1 0x40 MLOAD PUSH2 0x197 SWAP2 SWAP1 PUSH2 0x156A JUMP JUMPDEST PUSH1 0x40 MLOAD DUP1 SWAP2 SUB SWAP1 RETURN JUMPDEST PUSH2 0x1A8 PUSH2 0x574 JUMP JUMPDEST PUSH1 0x40 MLOAD PUSH2 0x1B5 SWAP2 SWAP1 PUSH2 0x1443 JUMP JUMPDEST PUSH1 0x40 MLOAD DUP1 SWAP2 SUB SWAP1 RETURN JUMPDEST PUSH2 0x1C6 PUSH2 0x57A JUMP JUMPDEST PUSH1 0x40 MLOAD PUSH2 0x1D3 SWAP2 SWAP1 PUSH2 0x15F3 JUMP JUMPDEST PUSH1 0x40 MLOAD DUP1 SWAP2 SUB SWAP1 RETURN JUMPDEST PUSH2 0x1F6 PUSH1 0x4 DUP1 CALLDATASIZE SUB DUP2 ADD SWAP1 PUSH2 0x1F1 SWAP2 SWAP1 PUSH2 0x1636 JUMP JUMPDEST PUSH2 0x5A1 JUMP JUMPDEST STOP JUMPDEST PUSH2 0x200 PUSH2 0x77E JUMP JUMPDEST PUSH1 0x40 MLOAD PUSH2 0x20D SWAP2 SWAP1 PUSH2 0x16BC JUMP JUMPDEST PUSH1 0x40 MLOAD DUP1 SWAP2 SUB SWAP1 RETURN JUMPDEST PUSH2 0x21E PUSH2 0x7A3 JUMP JUMPDEST PUSH1 0x40 MLOAD PUSH2 0x22B SWAP2 SWAP1 PUSH2 0x15F3 JUMP JUMPDEST PUSH1 0x40 MLOAD DUP1 SWAP2 SUB SWAP1 RETURN JUMPDEST PUSH2 0x23C PUSH2 0x7C8 JUMP JUMPDEST PUSH1 0x40 MLOAD PUSH2 0x249 SWAP2 SWAP1 PUSH2 0x16F1 JUMP JUMPDEST PUSH1 0x40 MLOAD DUP1 SWAP2 SUB SWAP1 RETURN JUMPDEST PUSH2 0x26C PUSH1 0x4 DUP1 CALLDATASIZE SUB DUP2 ADD SWAP1 PUSH2 0x267 SWAP2 SWAP1 PUSH2 0x1636 JUMP JUMPDEST PUSH2 0x7DC JUMP JUMPDEST PUSH1 0x40 MLOAD PUSH2 0x279 SWAP2 SWAP1 PUSH2 0x177A JUMP JUMPDEST PUSH1 0x40 MLOAD DUP1 SWAP2 SUB SWAP1 RETURN JUMPDEST PUSH2 0x29C PUSH1 0x4 DUP1 CALLDATASIZE SUB DUP2 ADD SWAP1 PUSH2 0x297 SWAP2 SWAP1 PUSH2 0x1636 JUMP JUMPDEST PUSH2 0x92A JUMP JUMPDEST PUSH1 0x40 MLOAD PUSH2 0x2A9 SWAP2 SWAP1 PUSH2 0x1443 JUMP JUMPDEST PUSH1 0x40 MLOAD DUP1 SWAP2 SUB SWAP1 RETURN JUMPDEST PUSH2 0x2BA PUSH2 0xBB2 JUMP JUMPDEST PUSH1 0x40 MLOAD PUSH2 0x2C7 SWAP2 SWAP1 PUSH2 0x1443 JUMP JUMPDEST PUSH1 0x40 MLOAD DUP1 SWAP2 SUB SWAP1 RETURN JUMPDEST PUSH2 0x2EA PUSH1 0x4 DUP1 CALLDATASIZE SUB DUP2 ADD SWAP1 PUSH2 0x2E5 SWAP2 SWAP1 PUSH2 0x1636 JUMP JUMPDEST PUSH2 0xBB8 JUMP JUMPDEST STOP JUMPDEST PUSH1 0x7 SLOAD DUP2 JUMP JUMPDEST PUSH1 0x2 PUSH0 SWAP1 SLOAD SWAP1 PUSH2 0x100 EXP SWAP1 DIV PUSH20 0xFFFFFFFFFFFFFFFFFFFFFFFFFFFFFFFFFFFFFFFF AND PUSH20 0xFFFFFFFFFFFFFFFFFFFFFFFFFFFFFFFFFFFFFFFF AND CALLER PUSH20 0xFFFFFFFFFFFFFFFFFFFFFFFFFFFFFFFFFFFFFFFF AND EQ PUSH2 0x3A6 JUMPI CALLER PUSH1 0x2 PUSH0 SWAP1 SLOAD SWAP1 PUSH2 0x100 EXP SWAP1 DIV PUSH20 0xFFFFFFFFFFFFFFFFFFFFFFFFFFFFFFFFFFFFFFFF AND PUSH1 0x40 MLOAD PUSH32 0x1CF993F400000000000000000000000000000000000000000000000000000000 DUP2 MSTORE PUSH1 0x4 ADD PUSH2 0x39D SWAP3 SWAP2 SWAP1 PUSH2 0x179A JUMP JUMPDEST PUSH1 0x40 MLOAD DUP1 SWAP2 SUB SWAP1 REVERT JUMPDEST PUSH2 0x3B1 DUP4 DUP4 DUP4 PUSH2 0xBCC JUMP JUMPDEST POP POP POP JUMP JUMPDEST PUSH1 0x6 PUSH0 SWAP1 SLOAD SWAP1 PUSH2 0x100 EXP SWAP1 DIV PUSH4 0xFFFFFFFF AND DUP2 JUMP JUMPDEST PUSH1 0x5 SLOAD DUP2 JUMP JUMPDEST PUSH1 0x1 PUSH0 SWAP1 SLOAD SWAP1 PUSH2 0x100 EXP SWAP1 DIV PUSH20 0xFFFFFFFFFFFFFFFFFFFFFFFFFFFFFFFFFFFFFFFF AND PUSH20 0xFFFFFFFFFFFFFFFFFFFFFFFFFFFFFFFFFFFFFFFF AND CALLER PUSH20 0xFFFFFFFFFFFFFFFFFFFFFFFFFFFFFFFFFFFFFFFF AND EQ PUSH2 0x460 JUMPI PUSH1 0x40 MLOAD PUSH32 0x8C379A000000000000000000000000000000000000000000000000000000000 DUP2 MSTORE PUSH1 0x4 ADD PUSH2 0x457 SWAP1 PUSH2 0x180B JUMP JUMPDEST PUSH1 0x40 MLOAD DUP1 SWAP2 SUB SWAP1 REVERT JUMPDEST PUSH0 DUP1 PUSH0 SWAP1 SLOAD SWAP1 PUSH2 0x100 EXP SWAP1 DIV PUSH20 0xFFFFFFFFFFFFFFFFFFFFFFFFFFFFFFFFFFFFFFFF AND SWAP1 POP CALLER PUSH0 DUP1 PUSH2 0x100 EXP DUP2 SLOAD DUP2 PUSH20 0xFFFFFFFFFFFFFFFFFFFFFFFFFFFFFFFFFFFFFFFF MUL NOT AND SWAP1 DUP4 PUSH20 0xFFFFFFFFFFFFFFFFFFFFFFFFFFFFFFFFFFFFFFFF AND MUL OR SWAP1 SSTORE POP PUSH0 PUSH1 0x1 PUSH0 PUSH2 0x100 EXP DUP2 SLOAD DUP2 PUSH20 0xFFFFFFFFFFFFFFFFFFFFFFFFFFFFFFFFFFFFFFFF MUL NOT AND SWAP1 DUP4 PUSH20 0xFFFFFFFFFFFFFFFFFFFFFFFFFFFFFFFFFFFFFFFF AND MUL OR SWAP1 SSTORE POP CALLER PUSH20 0xFFFFFFFFFFFFFFFFFFFFFFFFFFFFFFFFFFFFFFFF AND DUP2 PUSH20 0xFFFFFFFFFFFFFFFFFFFFFFFFFFFFFFFFFFFFFFFF AND PUSH32 0x8BE0079C531659141344CD1FD0A4F28419497F9722A3DAAFE3B4186F6B6457E0 PUSH1 0x40 MLOAD PUSH1 0x40 MLOAD DUP1 SWAP2 SUB SWAP1 LOG3 POP JUMP JUMPDEST PUSH1 0x6 DUP1 SLOAD SWAP1 PUSH2 0x100 EXP SWAP1 DIV PUSH4 0xFFFFFFFF AND DUP2 JUMP JUMPDEST PUSH1 0x3 SLOAD DUP2 JUMP JUMPDEST PUSH0 DUP1 PUSH0 SWAP1 SLOAD SWAP1 PUSH2 0x100 EXP SWAP1 DIV PUSH20 0xFFFFFFFFFFFFFFFFFFFFFFFFFFFFFFFFFFFFFFFF AND SWAP1 POP SWAP1 JUMP JUMPDEST PUSH2 0x5A9 PUSH2 0x57A JUMP JUMPDEST PUSH20 0xFFFFFFFFFFFFFFFFFFFFFFFFFFFFFFFFFFFFFFFF AND CALLER PUSH20 0xFFFFFFFFFFFFFFFFFFFFFFFFFFFFFFFFFFFFFFFF AND EQ ISZERO DUP1 ISZERO PUSH2 0x631 JUMPI POP PUSH1 0x2 PUSH0 SWAP1 SLOAD SWAP1 PUSH2 0x100 EXP SWAP1 DIV PUSH20 0xFFFFFFFFFFFFFFFFFFFFFFFFFFFFFFFFFFFFFFFF AND PUSH20 0xFFFFFFFFFFFFFFFFFFFFFFFFFFFFFFFFFFFFFFFF AND CALLER PUSH20 0xFFFFFFFFFFFFFFFFFFFFFFFFFFFFFFFFFFFFFFFF AND EQ ISZERO JUMPDEST ISZERO PUSH2 0x69F JUMPI CALLER PUSH2 0x63F PUSH2 0x57A JUMP JUMPDEST PUSH1 0x2 PUSH0 SWAP1 SLOAD SWAP1 PUSH2 0x100 EXP SWAP1 DIV PUSH20 0xFFFFFFFFFFFFFFFFFFFFFFFFFFFFFFFFFFFFFFFF AND PUSH1 0x40 MLOAD PUSH32 0x61DB9C100000000000000000000000000000000000000000000000000000000 DUP2 MSTORE PUSH1 0x4 ADD PUSH2 0x696 SWAP4 SWAP3 SWAP2 SWAP1 PUSH2 0x1829 JUMP JUMPDEST PUSH1 0x40 MLOAD DUP1 SWAP2 SUB SWAP1 REVERT JUMPDEST PUSH0 PUSH20 0xFFFFFFFFFFFFFFFFFFFFFFFFFFFFFFFFFFFFFFFF AND DUP2 PUSH20 0xFFFFFFFFFFFFFFFFFFFFFFFFFFFFFFFFFFFFFFFF AND SUB PUSH2 0x704 JUMPI PUSH1 0x40 MLOAD PUSH32 0xD92E233D00000000000000000000000000000000000000000000000000000000 DUP2 MSTORE PUSH1 0x4 ADD PUSH1 0x40 MLOAD DUP1 SWAP2 SUB SWAP1 REVERT JUMPDEST DUP1 PUSH1 0x2 PUSH0 PUSH2 0x100 EXP DUP2 SLOAD DUP2 PUSH20 0xFFFFFFFFFFFFFFFFFFFFFFFFFFFFFFFFFFFFFFFF MUL NOT AND SWAP1 DUP4 PUSH20 0xFFFFFFFFFFFFFFFFFFFFFFFFFFFFFFFFFFFFFFFF AND MUL OR SWAP1 SSTORE POP PUSH32 0xD1A6A14209A385A964D036E404CB5CFB71F4000CDB03C9366292430787261BE6 DUP2 PUSH1 0x40 MLOAD PUSH2 0x773 SWAP2 SWAP1 PUSH2 0x15F3 JUMP JUMPDEST PUSH1 0x40 MLOAD DUP1 SWAP2 SUB SWAP1 LOG1 POP JUMP JUMPDEST PUSH1 0x2 PUSH0 SWAP1 SLOAD SWAP1 PUSH2 0x100 EXP SWAP1 DIV PUSH20 0xFFFFFFFFFFFFFFFFFFFFFFFFFFFFFFFFFFFFFFFF AND DUP2 JUMP JUMPDEST PUSH1 0x4 PUSH0 SWAP1 SLOAD SWAP1 PUSH2 0x100 EXP SWAP1 DIV PUSH20 0xFFFFFFFFFFFFFFFFFFFFFFFFFFFFFFFFFFFFFFFF AND DUP2 JUMP JUMPDEST PUSH1 0x6 PUSH1 0x4 SWAP1 SLOAD SWAP1 PUSH2 0x100 EXP SWAP1 DIV PUSH2 0xFFFF AND DUP2 JUMP JUMPDEST PUSH1 0x60 PUSH0 PUSH1 0xA PUSH0 DUP5 PUSH20 0xFFFFFFFFFFFFFFFFFFFFFFFFFFFFFFFFFFFFFFFF AND PUSH20 0xFFFFFFFFFFFFFFFFFFFFFFFFFFFFFFFFFFFFFFFF AND DUP2 MSTORE PUSH1 0x20 ADD SWAP1 DUP2 MSTORE PUSH1 0x20 ADD PUSH0 KECCAK256 SLOAD SUB PUSH2 0x85D JUMPI PUSH1 0x40 MLOAD PUSH32 0x8C379A000000000000000000000000000000000000000000000000000000000 DUP2 MSTORE PUSH1 0x4 ADD PUSH2 0x854 SWAP1 PUSH2 0x18A8 JUMP JUMPDEST PUSH1 0x40 MLOAD DUP1 SWAP2 SUB SWAP1 REVERT JUMPDEST PUSH1 0x2A PUSH1 0xA PUSH0 DUP5 PUSH20 0xFFFFFFFFFFFFFFFFFFFFFFFFFFFFFFFFFFFFFFFF AND PUSH20 0xFFFFFFFFFFFFFFFFFFFFFFFFFFFFFFFFFFFFFFFF AND DUP2 MSTORE PUSH1 0x20 ADD SWAP1 DUP2 MSTORE PUSH1 0x20 ADD PUSH0 KECCAK256 SLOAD SUB PUSH2 0x8DD JUMPI PUSH1 0x40 MLOAD PUSH32 0x8C379A000000000000000000000000000000000000000000000000000000000 DUP2 MSTORE PUSH1 0x4 ADD PUSH2 0x8D4 SWAP1 PUSH2 0x1910 JUMP JUMPDEST PUSH1 0x40 MLOAD DUP1 SWAP2 SUB SWAP1 REVERT JUMPDEST PUSH2 0x923 PUSH1 0xA PUSH0 DUP5 PUSH20 0xFFFFFFFFFFFFFFFFFFFFFFFFFFFFFFFFFFFFFFFF AND PUSH20 0xFFFFFFFFFFFFFFFFFFFFFFFFFFFFFFFFFFFFFFFF AND DUP2 MSTORE PUSH1 0x20 ADD SWAP1 DUP2 MSTORE PUSH1 0x20 ADD PUSH0 KECCAK256 SLOAD PUSH2 0xD03 JUMP JUMPDEST SWAP1 POP SWAP2 SWAP1 POP JUMP JUMPDEST PUSH0 PUSH2 0x933 PUSH2 0x11DA JUMP JUMPDEST PUSH0 PUSH1 0xA PUSH0 DUP5 PUSH20 0xFFFFFFFFFFFFFFFFFFFFFFFFFFFFFFFFFFFFFFFF AND PUSH20 0xFFFFFFFFFFFFFFFFFFFFFFFFFFFFFFFFFFFFFFFF AND DUP2 MSTORE PUSH1 0x20 ADD SWAP1 DUP2 MSTORE PUSH1 0x20 ADD PUSH0 KECCAK256 SLOAD EQ PUSH2 0x9B2 JUMPI PUSH1 0x40 MLOAD PUSH32 0x8C379A000000000000000000000000000000000000000000000000000000000 DUP2 MSTORE PUSH1 0x4 ADD PUSH2 0x9A9 SWAP1 PUSH2 0x1978 JUMP JUMPDEST PUSH1 0x40 MLOAD DUP1 SWAP2 SUB SWAP1 REVERT JUMPDEST PUSH1 0x2 PUSH0 SWAP1 SLOAD SWAP1 PUSH2 0x100 EXP SWAP1 DIV PUSH20 0xFFFFFFFFFFFFFFFFFFFFFFFFFFFFFFFFFFFFFFFF AND PUSH20 0xFFFFFFFFFFFFFFFFFFFFFFFFFFFFFFFFFFFFFFFF AND PUSH4 0x9B1C385E PUSH1 0x40 MLOAD DUP1 PUSH1 0xC0 ADD PUSH1 0x40 MSTORE DUP1 PUSH1 0x5 SLOAD DUP2 MSTORE PUSH1 0x20 ADD PUSH1 0x3 SLOAD DUP2 MSTORE PUSH1 0x20 ADD PUSH1 0x6 PUSH1 0x4 SWAP1 SLOAD SWAP1 PUSH2 0x100 EXP SWAP1 DIV PUSH2 0xFFFF AND PUSH2 0xFFFF AND DUP2 MSTORE PUSH1 0x20 ADD PUSH1 0x6 PUSH0 SWAP1 SLOAD SWAP1 PUSH2 0x100 EXP SWAP1 DIV PUSH4 0xFFFFFFFF AND PUSH4 0xFFFFFFFF AND DUP2 MSTORE PUSH1 0x20 ADD PUSH1 0x6 DUP1 SLOAD SWAP1 PUSH2 0x100 EXP SWAP1 DIV PUSH4 0xFFFFFFFF AND PUSH4 0xFFFFFFFF AND DUP2 MSTORE PUSH1 0x20 ADD PUSH2 0xA76 PUSH1 0x40 MLOAD DUP1 PUSH1 0x20 ADD PUSH1 0x40 MSTORE DUP1 PUSH0 ISZERO ISZERO DUP2 MSTORE POP PUSH2 0x1269 JUMP JUMPDEST DUP2 MSTORE POP PUSH1 0x40 MLOAD DUP3 PUSH4 0xFFFFFFFF AND PUSH1 0xE0 SHL DUP2 MSTORE PUSH1 0x4 ADD PUSH2 0xA95 SWAP2 SWAP1 PUSH2 0x1AAA JUMP JUMPDEST PUSH1 0x20 PUSH1 0x40 MLOAD DUP1 DUP4 SUB DUP2 PUSH0 DUP8 GAS CALL ISZERO DUP1 ISZERO PUSH2 0xAB1 JUMPI RETURNDATASIZE PUSH0 DUP1 RETURNDATACOPY RETURNDATASIZE PUSH0 REVERT JUMPDEST POP POP POP POP PUSH1 0x40 MLOAD RETURNDATASIZE PUSH1 0x1F NOT PUSH1 0x1F DUP3 ADD AND DUP3 ADD DUP1 PUSH1 0x40 MSTORE POP DUP2 ADD SWAP1 PUSH2 0xAD5 SWAP2 SWAP1 PUSH2 0x1ADE JUMP JUMPDEST SWAP1 POP DUP2 PUSH1 0x9 PUSH0 DUP4 DUP2 MSTORE PUSH1 0x20 ADD SWAP1 DUP2 MSTORE PUSH1 0x20 ADD PUSH0 KECCAK256 PUSH0 PUSH2 0x100 EXP DUP2 SLOAD DUP2 PUSH20 0xFFFFFFFFFFFFFFFFFFFFFFFFFFFFFFFFFFFFFFFF MUL NOT AND SWAP1 DUP4 PUSH20 0xFFFFFFFFFFFFFFFFFFFFFFFFFFFFFFFFFFFFFFFF AND MUL OR SWAP1 SSTORE POP PUSH1 0x2A PUSH1 0xA PUSH0 DUP5 PUSH20 0xFFFFFFFFFFFFFFFFFFFFFFFFFFFFFFFFFFFFFFFF AND PUSH20 0xFFFFFFFFFFFFFFFFFFFFFFFFFFFFFFFFFFFFFFFF AND DUP2 MSTORE PUSH1 0x20 ADD SWAP1 DUP2 MSTORE PUSH1 0x20 ADD PUSH0 KECCAK256 DUP2 SWAP1 SSTORE POP DUP2 PUSH20 0xFFFFFFFFFFFFFFFFFFFFFFFFFFFFFFFFFFFFFFFF AND DUP2 PUSH32 0x3E7FDEAB84C01CE5308321CAA0B460E1C4EC3C7099223D79634D9A71D99932E3 PUSH1 0x40 MLOAD PUSH1 0x40 MLOAD DUP1 SWAP2 SUB SWAP1 LOG3 SWAP2 SWAP1 POP JUMP JUMPDEST PUSH1 0x8 SLOAD DUP2 JUMP JUMPDEST PUSH2 0xBC0 PUSH2 0x11DA JUMP JUMPDEST PUSH2 0xBC9 DUP2 PUSH2 0x1301 JUMP JUMPDEST POP JUMP JUMPDEST PUSH0 PUSH1 0x1 PUSH1 0x14 DUP5 DUP5 PUSH0 DUP2 DUP2 LT PUSH2 0xBE4 JUMPI PUSH2 0xBE3 PUSH2 0x1B09 JUMP JUMPDEST JUMPDEST SWAP1 POP PUSH1 0x20 MUL ADD CALLDATALOAD PUSH2 0xBF5 SWAP2 SWAP1 PUSH2 0x1B63 JUMP JUMPDEST PUSH2 0xBFF SWAP2 SWAP1 PUSH2 0x1BC0 JUMP JUMPDEST SWAP1 POP DUP1 PUSH1 0xA PUSH0 PUSH1 0x9 PUSH0 DUP9 DUP2 MSTORE PUSH1 0x20 ADD SWAP1 DUP2 MSTORE PUSH1 0x20 ADD PUSH0 KECCAK256 PUSH0 SWAP1 SLOAD SWAP1 PUSH2 0x100 EXP SWAP1 DIV PUSH20 0xFFFFFFFFFFFFFFFFFFFFFFFFFFFFFFFFFFFFFFFF AND PUSH20 0xFFFFFFFFFFFFFFFFFFFFFFFFFFFFFFFFFFFFFFFF AND PUSH20 0xFFFFFFFFFFFFFFFFFFFFFFFFFFFFFFFFFFFFFFFF AND DUP2 MSTORE PUSH1 0x20 ADD SWAP1 DUP2 MSTORE PUSH1 0x20 ADD PUSH0 KECCAK256 DUP2 SWAP1 SSTORE POP DUP1 DUP5 PUSH32 0x54D97C1F7E5ABAD75BD421455CD4DD296852A52E1EA721F2CDB66D06FA2082A9 PUSH1 0x40 MLOAD PUSH1 0x40 MLOAD DUP1 SWAP2 SUB SWAP1 LOG3 PUSH1 0x7 SLOAD DUP4 DUP4 PUSH0 DUP2 DUP2 LT PUSH2 0xCB7 JUMPI PUSH2 0xCB6 PUSH2 0x1B09 JUMP JUMPDEST JUMPDEST SWAP1 POP PUSH1 0x20 MUL ADD CALLDATALOAD PUSH2 0xCC8 SWAP2 SWAP1 PUSH2 0x1B63 JUMP JUMPDEST PUSH1 0x8 DUP2 SWAP1 SSTORE POP PUSH1 0x8 SLOAD PUSH32 0xACB85192B17E57CDD6FFDC2AF021CC70C3A2269771B37B82DD36695FEC903AF5 PUSH1 0x40 MLOAD PUSH1 0x40 MLOAD DUP1 SWAP2 SUB SWAP1 LOG2 POP POP POP POP JUMP JUMPDEST PUSH1 0x60 PUSH0 PUSH1 0x40 MLOAD DUP1 PUSH2 0x280 ADD PUSH1 0x40 MSTORE DUP1 PUSH1 0x40 MLOAD DUP1 PUSH1 0x40 ADD PUSH1 0x40 MSTORE DUP1 PUSH1 0x9 DUP2 MSTORE PUSH1 0x20 ADD PUSH32 0x54617267617279656E0000000000000000000000000000000000000000000000 DUP2 MSTORE POP DUP2 MSTORE PUSH1 0x20 ADD PUSH1 0x40 MLOAD DUP1 PUSH1 0x40 ADD PUSH1 0x40 MSTORE DUP1 PUSH1 0x9 DUP2 MSTORE PUSH1 0x20 ADD PUSH32 0x4C616E6E69737465720000000000000000000000000000000000000000000000 DUP2 MSTORE POP DUP2 MSTORE PUSH1 0x20 ADD PUSH1 0x40 MLOAD DUP1 PUSH1 0x40 ADD PUSH1 0x40 MSTORE DUP1 PUSH1 0x5 DUP2 MSTORE PUSH1 0x20 ADD PUSH32 0x537461726B000000000000000000000000000000000000000000000000000000 DUP2 MSTORE POP DUP2 MSTORE PUSH1 0x20 ADD PUSH1 0x40 MLOAD DUP1 PUSH1 0x40 ADD PUSH1 0x40 MSTORE DUP1 PUSH1 0x6 DUP2 MSTORE PUSH1 0x20 ADD PUSH32 0x547972656C6C0000000000000000000000000000000000000000000000000000 DUP2 MSTORE POP DUP2 MSTORE PUSH1 0x20 ADD PUSH1 0x40 MLOAD DUP1 PUSH1 0x40 ADD PUSH1 0x40 MSTORE DUP1 PUSH1 0x9 DUP2 MSTORE PUSH1 0x20 ADD PUSH32 0x426172617468656F6E0000000000000000000000000000000000000000000000 DUP2 MSTORE POP DUP2 MSTORE PUSH1 0x20 ADD PUSH1 0x40 MLOAD DUP1 PUSH1 0x40 ADD PUSH1 0x40 MSTORE DUP1 PUSH1 0x7 DUP2 MSTORE PUSH1 0x20 ADD PUSH32 0x4D617274656C6C00000000000000000000000000000000000000000000000000 DUP2 MSTORE POP DUP2 MSTORE PUSH1 0x20 ADD PUSH1 0x40 MLOAD DUP1 PUSH1 0x40 ADD PUSH1 0x40 MSTORE DUP1 PUSH1 0x5 DUP2 MSTORE PUSH1 0x20 ADD PUSH32 0x54756C6C79000000000000000000000000000000000000000000000000000000 DUP2 MSTORE POP DUP2 MSTORE PUSH1 0x20 ADD PUSH1 0x40 MLOAD DUP1 PUSH1 0x40 ADD PUSH1 0x40 MSTORE DUP1 PUSH1 0x6 DUP2 MSTORE PUSH1 0x20 ADD PUSH32 0x426F6C746F6E0000000000000000000000000000000000000000000000000000 DUP2 MSTORE POP DUP2 MSTORE PUSH1 0x20 ADD PUSH1 0x40 MLOAD DUP1 PUSH1 0x40 ADD PUSH1 0x40 MSTORE DUP1 PUSH1 0x7 DUP2 MSTORE PUSH1 0x20 ADD PUSH32 0x477265796A6F7900000000000000000000000000000000000000000000000000 DUP2 MSTORE POP DUP2 MSTORE PUSH1 0x20 ADD PUSH1 0x40 MLOAD DUP1 PUSH1 0x40 ADD PUSH1 0x40 MSTORE DUP1 PUSH1 0x5 DUP2 MSTORE PUSH1 0x20 ADD PUSH32 0x417272796E000000000000000000000000000000000000000000000000000000 DUP2 MSTORE POP DUP2 MSTORE PUSH1 0x20 ADD PUSH1 0x40 MLOAD DUP1 PUSH1 0x40 ADD PUSH1 0x40 MSTORE DUP1 PUSH1 0x4 DUP2 MSTORE PUSH1 0x20 ADD PUSH32 0x4672657900000000000000000000000000000000000000000000000000000000 DUP2 MSTORE POP DUP2 MSTORE PUSH1 0x20 ADD PUSH1 0x40 MLOAD DUP1 PUSH1 0x40 ADD PUSH1 0x40 MSTORE DUP1 PUSH1 0x7 DUP2 MSTORE PUSH1 0x20 ADD PUSH32 0x4D6F726D6F6E7400000000000000000000000000000000000000000000000000 DUP2 MSTORE POP DUP2 MSTORE PUSH1 0x20 ADD PUSH1 0x40 MLOAD DUP1 PUSH1 0x40 ADD PUSH1 0x40 MSTORE DUP1 PUSH1 0x6 DUP2 MSTORE PUSH1 0x20 ADD PUSH32 0x5461726C65790000000000000000000000000000000000000000000000000000 DUP2 MSTORE POP DUP2 MSTORE PUSH1 0x20 ADD PUSH1 0x40 MLOAD DUP1 PUSH1 0x40 ADD PUSH1 0x40 MSTORE DUP1 PUSH1 0x5 DUP2 MSTORE PUSH1 0x20 ADD PUSH32 0x4461796E65000000000000000000000000000000000000000000000000000000 DUP2 MSTORE POP DUP2 MSTORE PUSH1 0x20 ADD PUSH1 0x40 MLOAD DUP1 PUSH1 0x40 ADD PUSH1 0x40 MSTORE DUP1 PUSH1 0x5 DUP2 MSTORE PUSH1 0x20 ADD PUSH32 0x556D626572000000000000000000000000000000000000000000000000000000 DUP2 MSTORE POP DUP2 MSTORE PUSH1 0x20 ADD PUSH1 0x40 MLOAD DUP1 PUSH1 0x40 ADD PUSH1 0x40 MSTORE DUP1 PUSH1 0x8 DUP2 MSTORE PUSH1 0x20 ADD PUSH32 0x56616C6572796F6E000000000000000000000000000000000000000000000000 DUP2 MSTORE POP DUP2 MSTORE PUSH1 0x20 ADD PUSH1 0x40 MLOAD DUP1 PUSH1 0x40 ADD PUSH1 0x40 MSTORE DUP1 PUSH1 0x8 DUP2 MSTORE PUSH1 0x20 ADD PUSH32 0x4D616E6465726C79000000000000000000000000000000000000000000000000 DUP2 MSTORE POP DUP2 MSTORE PUSH1 0x20 ADD PUSH1 0x40 MLOAD DUP1 PUSH1 0x40 ADD PUSH1 0x40 MSTORE DUP1 PUSH1 0x7 DUP2 MSTORE PUSH1 0x20 ADD PUSH32 0x436C6567616E6500000000000000000000000000000000000000000000000000 DUP2 MSTORE POP DUP2 MSTORE PUSH1 0x20 ADD PUSH1 0x40 MLOAD DUP1 PUSH1 0x40 ADD PUSH1 0x40 MSTORE DUP1 PUSH1 0x6 DUP2 MSTORE PUSH1 0x20 ADD PUSH32 0x476C6F7665720000000000000000000000000000000000000000000000000000 DUP2 MSTORE POP DUP2 MSTORE PUSH1 0x20 ADD PUSH1 0x40 MLOAD DUP1 PUSH1 0x40 ADD PUSH1 0x40 MSTORE DUP1 PUSH1 0x8 DUP2 MSTORE PUSH1 0x20 ADD PUSH32 0x4B6172737461726B000000000000000000000000000000000000000000000000 DUP2 MSTORE POP DUP2 MSTORE POP SWAP1 POP DUP1 PUSH1 0x1 DUP5 PUSH2 0x11BC SWAP2 SWAP1 PUSH2 0x1BF3 JUMP JUMPDEST PUSH1 0x14 DUP2 LT PUSH2 0x11CD JUMPI PUSH2 0x11CC PUSH2 0x1B09 JUMP JUMPDEST JUMPDEST PUSH1 0x20 MUL ADD MLOAD SWAP2 POP POP SWAP2 SWAP1 POP JUMP JUMPDEST PUSH0 DUP1 SLOAD SWAP1 PUSH2 0x100 EXP SWAP1 DIV PUSH20 0xFFFFFFFFFFFFFFFFFFFFFFFFFFFFFFFFFFFFFFFF AND PUSH20 0xFFFFFFFFFFFFFFFFFFFFFFFFFFFFFFFFFFFFFFFF AND CALLER PUSH20 0xFFFFFFFFFFFFFFFFFFFFFFFFFFFFFFFFFFFFFFFF AND EQ PUSH2 0x1267 JUMPI PUSH1 0x40 MLOAD PUSH32 0x8C379A000000000000000000000000000000000000000000000000000000000 DUP2 MSTORE PUSH1 0x4 ADD PUSH2 0x125E SWAP1 PUSH2 0x1C70 JUMP JUMPDEST PUSH1 0x40 MLOAD DUP1 SWAP2 SUB SWAP1 REVERT JUMPDEST JUMP JUMPDEST PUSH1 0x60 PUSH32 0x92FD13387C7FE7BEFBC38D303D6468778FB9731BC4583F17D92989C6FCFDEAAA DUP3 PUSH1 0x40 MLOAD PUSH1 0x24 ADD PUSH2 0x129D SWAP2 SWAP1 PUSH2 0x1CC2 JUMP JUMPDEST PUSH1 0x40 MLOAD PUSH1 0x20 DUP2 DUP4 SUB SUB DUP2 MSTORE SWAP1 PUSH1 0x40 MSTORE SWAP1 PUSH28 0xFFFFFFFFFFFFFFFFFFFFFFFFFFFFFFFFFFFFFFFFFFFFFFFFFFFFFFFF NOT AND PUSH1 0x20 DUP3 ADD DUP1 MLOAD PUSH28 0xFFFFFFFFFFFFFFFFFFFFFFFFFFFFFFFFFFFFFFFFFFFFFFFFFFFFFFFF DUP4 DUP2 DUP4 AND OR DUP4 MSTORE POP POP POP POP SWAP1 POP SWAP2 SWAP1 POP JUMP JUMPDEST CALLER PUSH20 0xFFFFFFFFFFFFFFFFFFFFFFFFFFFFFFFFFFFFFFFF AND DUP2 PUSH20 0xFFFFFFFFFFFFFFFFFFFFFFFFFFFFFFFFFFFFFFFF AND SUB PUSH2 0x136F JUMPI PUSH1 0x40 MLOAD PUSH32 0x8C379A000000000000000000000000000000000000000000000000000000000 DUP2 MSTORE PUSH1 0x4 ADD PUSH2 0x1366 SWAP1 PUSH2 0x1D25 JUMP JUMPDEST PUSH1 0x40 MLOAD DUP1 SWAP2 SUB SWAP1 REVERT JUMPDEST DUP1 PUSH1 0x1 PUSH0 PUSH2 0x100 EXP DUP2 SLOAD DUP2 PUSH20 0xFFFFFFFFFFFFFFFFFFFFFFFFFFFFFFFFFFFFFFFF MUL NOT AND SWAP1 DUP4 PUSH20 0xFFFFFFFFFFFFFFFFFFFFFFFFFFFFFFFFFFFFFFFF AND MUL OR SWAP1 SSTORE POP DUP1 PUSH20 0xFFFFFFFFFFFFFFFFFFFFFFFFFFFFFFFFFFFFFFFF AND PUSH0 DUP1 SLOAD SWAP1 PUSH2 0x100 EXP SWAP1 DIV PUSH20 0xFFFFFFFFFFFFFFFFFFFFFFFFFFFFFFFFFFFFFFFF AND PUSH20 0xFFFFFFFFFFFFFFFFFFFFFFFFFFFFFFFFFFFFFFFF AND PUSH32 0xED8889F560326EB138920D842192F0EB3DD22B4F139C87A2C57538E05BAE1278 PUSH1 0x40 MLOAD PUSH1 0x40 MLOAD DUP1 SWAP2 SUB SWAP1 LOG3 POP JUMP JUMPDEST PUSH0 DUP2 SWAP1 POP SWAP2 SWAP1 POP JUMP JUMPDEST PUSH2 0x143D DUP2 PUSH2 0x142B JUMP JUMPDEST DUP3 MSTORE POP POP JUMP JUMPDEST PUSH0 PUSH1 0x20 DUP3 ADD SWAP1 POP PUSH2 0x1456 PUSH0 DUP4 ADD DUP5 PUSH2 0x1434 JUMP JUMPDEST SWAP3 SWAP2 POP POP JUMP JUMPDEST PUSH0 DUP1 REVERT JUMPDEST PUSH0 DUP1 REVERT JUMPDEST PUSH2 0x146D DUP2 PUSH2 0x142B JUMP JUMPDEST DUP2 EQ PUSH2 0x1477 JUMPI PUSH0 DUP1 REVERT JUMPDEST POP JUMP JUMPDEST PUSH0 DUP2 CALLDATALOAD SWAP1 POP PUSH2 0x1488 DUP2 PUSH2 0x1464 JUMP JUMPDEST SWAP3 SWAP2 POP POP JUMP JUMPDEST PUSH0 DUP1 REVERT JUMPDEST PUSH0 DUP1 REVERT JUMPDEST PUSH0 DUP1 REVERT JUMPDEST PUSH0 DUP1 DUP4 PUSH1 0x1F DUP5 ADD SLT PUSH2 0x14AF JUMPI PUSH2 0x14AE PUSH2 0x148E JUMP JUMPDEST JUMPDEST DUP3 CALLDATALOAD SWAP1 POP PUSH8 0xFFFFFFFFFFFFFFFF DUP2 GT ISZERO PUSH2 0x14CC JUMPI PUSH2 0x14CB PUSH2 0x1492 JUMP JUMPDEST JUMPDEST PUSH1 0x20 DUP4 ADD SWAP2 POP DUP4 PUSH1 0x20 DUP3 MUL DUP4 ADD GT ISZERO PUSH2 0x14E8 JUMPI PUSH2 0x14E7 PUSH2 0x1496 JUMP JUMPDEST JUMPDEST SWAP3 POP SWAP3 SWAP1 POP JUMP JUMPDEST PUSH0 DUP1 PUSH0 PUSH1 0x40 DUP5 DUP7 SUB SLT ISZERO PUSH2 0x1506 JUMPI PUSH2 0x1505 PUSH2 0x145C JUMP JUMPDEST JUMPDEST PUSH0 PUSH2 0x1513 DUP7 DUP3 DUP8 ADD PUSH2 0x147A JUMP JUMPDEST SWAP4 POP POP PUSH1 0x20 DUP5 ADD CALLDATALOAD PUSH8 0xFFFFFFFFFFFFFFFF DUP2 GT ISZERO PUSH2 0x1534 JUMPI PUSH2 0x1533 PUSH2 0x1460 JUMP JUMPDEST JUMPDEST PUSH2 0x1540 DUP7 DUP3 DUP8 ADD PUSH2 0x149A JUMP JUMPDEST SWAP3 POP SWAP3 POP POP SWAP3 POP SWAP3 POP SWAP3 JUMP JUMPDEST PUSH0 PUSH4 0xFFFFFFFF DUP3 AND SWAP1 POP SWAP2 SWAP1 POP JUMP JUMPDEST PUSH2 0x1564 DUP2 PUSH2 0x154C JUMP JUMPDEST DUP3 MSTORE POP POP JUMP JUMPDEST PUSH0 PUSH1 0x20 DUP3 ADD SWAP1 POP PUSH2 0x157D PUSH0 DUP4 ADD DUP5 PUSH2 0x155B JUMP JUMPDEST SWAP3 SWAP2 POP POP JUMP JUMPDEST PUSH0 DUP2 SWAP1 POP SWAP2 SWAP1 POP JUMP JUMPDEST PUSH2 0x1595 DUP2 PUSH2 0x1583 JUMP JUMPDEST DUP3 MSTORE POP POP JUMP JUMPDEST PUSH0 PUSH1 0x20 DUP3 ADD SWAP1 POP PUSH2 0x15AE PUSH0 DUP4 ADD DUP5 PUSH2 0x158C JUMP JUMPDEST SWAP3 SWAP2 POP POP JUMP JUMPDEST PUSH0 PUSH20 0xFFFFFFFFFFFFFFFFFFFFFFFFFFFFFFFFFFFFFFFF DUP3 AND SWAP1 POP SWAP2 SWAP1 POP JUMP JUMPDEST PUSH0 PUSH2 0x15DD DUP3 PUSH2 0x15B4 JUMP JUMPDEST SWAP1 POP SWAP2 SWAP1 POP JUMP JUMPDEST PUSH2 0x15ED DUP2 PUSH2 0x15D3 JUMP JUMPDEST DUP3 MSTORE POP POP JUMP JUMPDEST PUSH0 PUSH1 0x20 DUP3 ADD SWAP1 POP PUSH2 0x1606 PUSH0 DUP4 ADD DUP5 PUSH2 0x15E4 JUMP JUMPDEST SWAP3 SWAP2 POP POP JUMP JUMPDEST PUSH2 0x1615 DUP2 PUSH2 0x15D3 JUMP JUMPDEST DUP2 EQ PUSH2 0x161F JUMPI PUSH0 DUP1 REVERT JUMPDEST POP JUMP JUMPDEST PUSH0 DUP2 CALLDATALOAD SWAP1 POP PUSH2 0x1630 DUP2 PUSH2 0x160C JUMP JUMPDEST SWAP3 SWAP2 POP POP JUMP JUMPDEST PUSH0 PUSH1 0x20 DUP3 DUP5 SUB SLT ISZERO PUSH2 0x164B JUMPI PUSH2 0x164A PUSH2 0x145C JUMP JUMPDEST JUMPDEST PUSH0 PUSH2 0x1658 DUP5 DUP3 DUP6 ADD PUSH2 0x1622 JUMP JUMPDEST SWAP2 POP POP SWAP3 SWAP2 POP POP JUMP JUMPDEST PUSH0 DUP2 SWAP1 POP SWAP2 SWAP1 POP JUMP JUMPDEST PUSH0 PUSH2 0x1684 PUSH2 0x167F PUSH2 0x167A DUP5 PUSH2 0x15B4 JUMP JUMPDEST PUSH2 0x1661 JUMP JUMPDEST PUSH2 0x15B4 JUMP JUMPDEST SWAP1 POP SWAP2 SWAP1 POP JUMP JUMPDEST PUSH0 PUSH2 0x1695 DUP3 PUSH2 0x166A JUMP JUMPDEST SWAP1 POP SWAP2 SWAP1 POP JUMP JUMPDEST PUSH0 PUSH2 0x16A6 DUP3 PUSH2 0x168B JUMP JUMPDEST SWAP1 POP SWAP2 SWAP1 POP JUMP JUMPDEST PUSH2 0x16B6 DUP2 PUSH2 0x169C JUMP JUMPDEST DUP3 MSTORE POP POP JUMP JUMPDEST PUSH0 PUSH1 0x20 DUP3 ADD SWAP1 POP PUSH2 0x16CF PUSH0 DUP4 ADD DUP5 PUSH2 0x16AD JUMP JUMPDEST SWAP3 SWAP2 POP POP JUMP JUMPDEST PUSH0 PUSH2 0xFFFF DUP3 AND SWAP1 POP SWAP2 SWAP1 POP JUMP JUMPDEST PUSH2 0x16EB DUP2 PUSH2 0x16D5 JUMP JUMPDEST DUP3 MSTORE POP POP JUMP JUMPDEST PUSH0 PUSH1 0x20 DUP3 ADD SWAP1 POP PUSH2 0x1704 PUSH0 DUP4 ADD DUP5 PUSH2 0x16E2 JUMP JUMPDEST SWAP3 SWAP2 POP POP JUMP JUMPDEST PUSH0 DUP2 MLOAD SWAP1 POP SWAP2 SWAP1 POP JUMP JUMPDEST PUSH0 DUP3 DUP3 MSTORE PUSH1 0x20 DUP3 ADD SWAP1 POP SWAP3 SWAP2 POP POP JUMP JUMPDEST DUP3 DUP2 DUP4 MCOPY PUSH0 DUP4 DUP4 ADD MSTORE POP POP POP JUMP JUMPDEST PUSH0 PUSH1 0x1F NOT PUSH1 0x1F DUP4 ADD AND SWAP1 POP SWAP2 SWAP1 POP JUMP JUMPDEST PUSH0 PUSH2 0x174C DUP3 PUSH2 0x170A JUMP JUMPDEST PUSH2 0x1756 DUP2 DUP6 PUSH2 0x1714 JUMP JUMPDEST SWAP4 POP PUSH2 0x1766 DUP2 DUP6 PUSH1 0x20 DUP7 ADD PUSH2 0x1724 JUMP JUMPDEST PUSH2 0x176F DUP2 PUSH2 0x1732 JUMP JUMPDEST DUP5 ADD SWAP2 POP POP SWAP3 SWAP2 POP POP JUMP JUMPDEST PUSH0 PUSH1 0x20 DUP3 ADD SWAP1 POP DUP2 DUP2 SUB PUSH0 DUP4 ADD MSTORE PUSH2 0x1792 DUP2 DUP5 PUSH2 0x1742 JUMP JUMPDEST SWAP1 POP SWAP3 SWAP2 POP POP JUMP JUMPDEST PUSH0 PUSH1 0x40 DUP3 ADD SWAP1 POP PUSH2 0x17AD PUSH0 DUP4 ADD DUP6 PUSH2 0x15E4 JUMP JUMPDEST PUSH2 0x17BA PUSH1 0x20 DUP4 ADD DUP5 PUSH2 0x15E4 JUMP JUMPDEST SWAP4 SWAP3 POP POP POP JUMP JUMPDEST PUSH32 0x4D7573742062652070726F706F736564206F776E657200000000000000000000 PUSH0 DUP3 ADD MSTORE POP JUMP JUMPDEST PUSH0 PUSH2 0x17F5 PUSH1 0x16 DUP4 PUSH2 0x1714 JUMP JUMPDEST SWAP2 POP PUSH2 0x1800 DUP3 PUSH2 0x17C1 JUMP JUMPDEST PUSH1 0x20 DUP3 ADD SWAP1 POP SWAP2 SWAP1 POP JUMP JUMPDEST PUSH0 PUSH1 0x20 DUP3 ADD SWAP1 POP DUP2 DUP2 SUB PUSH0 DUP4 ADD MSTORE PUSH2 0x1822 DUP2 PUSH2 0x17E9 JUMP JUMPDEST SWAP1 POP SWAP2 SWAP1 POP JUMP JUMPDEST PUSH0 PUSH1 0x60 DUP3 ADD SWAP1 POP PUSH2 0x183C PUSH0 DUP4 ADD DUP7 PUSH2 0x15E4 JUMP JUMPDEST PUSH2 0x1849 PUSH1 0x20 DUP4 ADD DUP6 PUSH2 0x15E4 JUMP JUMPDEST PUSH2 0x1856 PUSH1 0x40 DUP4 ADD DUP5 PUSH2 0x15E4 JUMP JUMPDEST SWAP5 SWAP4 POP POP POP POP JUMP JUMPDEST PUSH32 0x44696365206E6F7420726F6C6C65640000000000000000000000000000000000 PUSH0 DUP3 ADD MSTORE POP JUMP JUMPDEST PUSH0 PUSH2 0x1892 PUSH1 0xF DUP4 PUSH2 0x1714 JUMP JUMPDEST SWAP2 POP PUSH2 0x189D DUP3 PUSH2 0x185E JUMP JUMPDEST PUSH1 0x20 DUP3 ADD SWAP1 POP SWAP2 SWAP1 POP JUMP JUMPDEST PUSH0 PUSH1 0x20 DUP3 ADD SWAP1 POP DUP2 DUP2 SUB PUSH0 DUP4 ADD MSTORE PUSH2 0x18BF DUP2 PUSH2 0x1886 JUMP JUMPDEST SWAP1 POP SWAP2 SWAP1 POP JUMP JUMPDEST PUSH32 0x526F6C6C20696E2070726F677265737300000000000000000000000000000000 PUSH0 DUP3 ADD MSTORE POP JUMP JUMPDEST PUSH0 PUSH2 0x18FA PUSH1 0x10 DUP4 PUSH2 0x1714 JUMP JUMPDEST SWAP2 POP PUSH2 0x1905 DUP3 PUSH2 0x18C6 JUMP JUMPDEST PUSH1 0x20 DUP3 ADD SWAP1 POP SWAP2 SWAP1 POP JUMP JUMPDEST PUSH0 PUSH1 0x20 DUP3 ADD SWAP1 POP DUP2 DUP2 SUB PUSH0 DUP4 ADD MSTORE PUSH2 0x1927 DUP2 PUSH2 0x18EE JUMP JUMPDEST SWAP1 POP SWAP2 SWAP1 POP JUMP JUMPDEST PUSH32 0x416C726561647920726F6C6C6564000000000000000000000000000000000000 PUSH0 DUP3 ADD MSTORE POP JUMP JUMPDEST PUSH0 PUSH2 0x1962 PUSH1 0xE DUP4 PUSH2 0x1714 JUMP JUMPDEST SWAP2 POP PUSH2 0x196D DUP3 PUSH2 0x192E JUMP JUMPDEST PUSH1 0x20 DUP3 ADD SWAP1 POP SWAP2 SWAP1 POP JUMP JUMPDEST PUSH0 PUSH1 0x20 DUP3 ADD SWAP1 POP DUP2 DUP2 SUB PUSH0 DUP4 ADD MSTORE PUSH2 0x198F DUP2 PUSH2 0x1956 JUMP JUMPDEST SWAP1 POP SWAP2 SWAP1 POP JUMP JUMPDEST PUSH2 0x199F DUP2 PUSH2 0x1583 JUMP JUMPDEST DUP3 MSTORE POP POP JUMP JUMPDEST PUSH2 0x19AE DUP2 PUSH2 0x142B JUMP JUMPDEST DUP3 MSTORE POP POP JUMP JUMPDEST PUSH2 0x19BD DUP2 PUSH2 0x16D5 JUMP JUMPDEST DUP3 MSTORE POP POP JUMP JUMPDEST PUSH2 0x19CC DUP2 PUSH2 0x154C JUMP JUMPDEST DUP3 MSTORE POP POP JUMP JUMPDEST PUSH0 DUP2 MLOAD SWAP1 POP SWAP2 SWAP1 POP JUMP JUMPDEST PUSH0 DUP3 DUP3 MSTORE PUSH1 0x20 DUP3 ADD SWAP1 POP SWAP3 SWAP2 POP POP JUMP JUMPDEST PUSH0 PUSH2 0x19F6 DUP3 PUSH2 0x19D2 JUMP JUMPDEST PUSH2 0x1A00 DUP2 DUP6 PUSH2 0x19DC JUMP JUMPDEST SWAP4 POP PUSH2 0x1A10 DUP2 DUP6 PUSH1 0x20 DUP7 ADD PUSH2 0x1724 JUMP JUMPDEST PUSH2 0x1A19 DUP2 PUSH2 0x1732 JUMP JUMPDEST DUP5 ADD SWAP2 POP POP SWAP3 SWAP2 POP POP JUMP JUMPDEST PUSH0 PUSH1 0xC0 DUP4 ADD PUSH0 DUP4 ADD MLOAD PUSH2 0x1A39 PUSH0 DUP7 ADD DUP3 PUSH2 0x1996 JUMP JUMPDEST POP PUSH1 0x20 DUP4 ADD MLOAD PUSH2 0x1A4C PUSH1 0x20 DUP7 ADD DUP3 PUSH2 0x19A5 JUMP JUMPDEST POP PUSH1 0x40 DUP4 ADD MLOAD PUSH2 0x1A5F PUSH1 0x40 DUP7 ADD DUP3 PUSH2 0x19B4 JUMP JUMPDEST POP PUSH1 0x60 DUP4 ADD MLOAD PUSH2 0x1A72 PUSH1 0x60 DUP7 ADD DUP3 PUSH2 0x19C3 JUMP JUMPDEST POP PUSH1 0x80 DUP4 ADD MLOAD PUSH2 0x1A85 PUSH1 0x80 DUP7 ADD DUP3 PUSH2 0x19C3 JUMP JUMPDEST POP PUSH1 0xA0 DUP4 ADD MLOAD DUP5 DUP3 SUB PUSH1 0xA0 DUP7 ADD MSTORE PUSH2 0x1A9D DUP3 DUP3 PUSH2 0x19EC JUMP JUMPDEST SWAP2 POP POP DUP1 SWAP2 POP POP SWAP3 SWAP2 POP POP JUMP JUMPDEST PUSH0 PUSH1 0x20 DUP3 ADD SWAP1 POP DUP2 DUP2 SUB PUSH0 DUP4 ADD MSTORE PUSH2 0x1AC2 DUP2 DUP5 PUSH2 0x1A24 JUMP JUMPDEST SWAP1 POP SWAP3 SWAP2 POP POP JUMP JUMPDEST PUSH0 DUP2 MLOAD SWAP1 POP PUSH2 0x1AD8 DUP2 PUSH2 0x1464 JUMP JUMPDEST SWAP3 SWAP2 POP POP JUMP JUMPDEST PUSH0 PUSH1 0x20 DUP3 DUP5 SUB SLT ISZERO PUSH2 0x1AF3 JUMPI PUSH2 0x1AF2 PUSH2 0x145C JUMP JUMPDEST JUMPDEST PUSH0 PUSH2 0x1B00 DUP5 DUP3 DUP6 ADD PUSH2 0x1ACA JUMP JUMPDEST SWAP2 POP POP SWAP3 SWAP2 POP POP JUMP JUMPDEST PUSH32 0x4E487B7100000000000000000000000000000000000000000000000000000000 PUSH0 MSTORE PUSH1 0x32 PUSH1 0x4 MSTORE PUSH1 0x24 PUSH0 REVERT JUMPDEST PUSH32 0x4E487B7100000000000000000000000000000000000000000000000000000000 PUSH0 MSTORE PUSH1 0x12 PUSH1 0x4 MSTORE PUSH1 0x24 PUSH0 REVERT JUMPDEST PUSH0 PUSH2 0x1B6D DUP3 PUSH2 0x142B JUMP JUMPDEST SWAP2 POP PUSH2 0x1B78 DUP4 PUSH2 0x142B JUMP JUMPDEST SWAP3 POP DUP3 PUSH2 0x1B88 JUMPI PUSH2 0x1B87 PUSH2 0x1B36 JUMP JUMPDEST JUMPDEST DUP3 DUP3 MOD SWAP1 POP SWAP3 SWAP2 POP POP JUMP JUMPDEST PUSH32 0x4E487B7100000000000000000000000000000000000000000000000000000000 PUSH0 MSTORE PUSH1 0x11 PUSH1 0x4 MSTORE PUSH1 0x24 PUSH0 REVERT JUMPDEST PUSH0 PUSH2 0x1BCA DUP3 PUSH2 0x142B JUMP JUMPDEST SWAP2 POP PUSH2 0x1BD5 DUP4 PUSH2 0x142B JUMP JUMPDEST SWAP3 POP DUP3 DUP3 ADD SWAP1 POP DUP1 DUP3 GT ISZERO PUSH2 0x1BED JUMPI PUSH2 0x1BEC PUSH2 0x1B93 JUMP JUMPDEST JUMPDEST SWAP3 SWAP2 POP POP JUMP JUMPDEST PUSH0 PUSH2 0x1BFD DUP3 PUSH2 0x142B JUMP JUMPDEST SWAP2 POP PUSH2 0x1C08 DUP4 PUSH2 0x142B JUMP JUMPDEST SWAP3 POP DUP3 DUP3 SUB SWAP1 POP DUP2 DUP2 GT ISZERO PUSH2 0x1C20 JUMPI PUSH2 0x1C1F PUSH2 0x1B93 JUMP JUMPDEST JUMPDEST SWAP3 SWAP2 POP POP JUMP JUMPDEST PUSH32 0x4F6E6C792063616C6C61626C65206279206F776E657200000000000000000000 PUSH0 DUP3 ADD MSTORE POP JUMP JUMPDEST PUSH0 PUSH2 0x1C5A PUSH1 0x16 DUP4 PUSH2 0x1714 JUMP JUMPDEST SWAP2 POP PUSH2 0x1C65 DUP3 PUSH2 0x1C26 JUMP JUMPDEST PUSH1 0x20 DUP3 ADD SWAP1 POP SWAP2 SWAP1 POP JUMP JUMPDEST PUSH0 PUSH1 0x20 DUP3 ADD SWAP1 POP DUP2 DUP2 SUB PUSH0 DUP4 ADD MSTORE PUSH2 0x1C87 DUP2 PUSH2 0x1C4E JUMP JUMPDEST SWAP1 POP SWAP2 SWAP1 POP JUMP JUMPDEST PUSH0 DUP2 ISZERO ISZERO SWAP1 POP SWAP2 SWAP1 POP JUMP JUMPDEST PUSH2 0x1CA2 DUP2 PUSH2 0x1C8E JUMP JUMPDEST DUP3 MSTORE POP POP JUMP JUMPDEST PUSH1 0x20 DUP3 ADD PUSH0 DUP3 ADD MLOAD PUSH2 0x1CBC PUSH0 DUP6 ADD DUP3 PUSH2 0x1C99 JUMP JUMPDEST POP POP POP POP JUMP JUMPDEST PUSH0 PUSH1 0x20 DUP3 ADD SWAP1 POP PUSH2 0x1CD5 PUSH0 DUP4 ADD DUP5 PUSH2 0x1CA8 JUMP JUMPDEST SWAP3 SWAP2 POP POP JUMP JUMPDEST PUSH32 0x43616E6E6F74207472616E7366657220746F2073656C66000000000000000000 PUSH0 DUP3 ADD MSTORE POP JUMP JUMPDEST PUSH0 PUSH2 0x1D0F PUSH1 0x17 DUP4 PUSH2 0x1714 JUMP JUMPDEST SWAP2 POP PUSH2 0x1D1A DUP3 PUSH2 0x1CDB JUMP JUMPDEST PUSH1 0x20 DUP3 ADD SWAP1 POP SWAP2 SWAP1 POP JUMP JUMPDEST PUSH0 PUSH1 0x20 DUP3 ADD SWAP1 POP DUP2 DUP2 SUB PUSH0 DUP4 ADD MSTORE PUSH2 0x1D3C DUP2 PUSH2 0x1D03 JUMP JUMPDEST SWAP1 POP SWAP2 SWAP1 POP JUMP INVALID LOG2 PUSH5 0x6970667358 0x22 SLT KECCAK256 0x1F 0xE1 0xE4 0xA8 PUSH13 0xD0940BB58AC8B9336E7D9AEE4E 0xB6 0xCB ADD PUSH14 0xEC7B9FA7252F2A24BD4964736F6C PUSH4 0x43000819 STOP CALLER "
				},
				"gasEstimates": {
					"creation": {
						"codeDepositCost": "1509000",
						"executionCost": "220875",
						"totalCost": "1729875"
					},
					"external": {
						"acceptOwnership()": "54556",
						"callbackGasLimit()": "2534",
						"house(address)": "infinite",
						"length()": "2449",
						"numWords()": "2559",
						"owner()": "2604",
						"random_num()": "2491",
						"rawFulfillRandomWords(uint256,uint256[])": "infinite",
						"requestConfirmations()": "2606",
						"rollDice(address)": "infinite",
						"s_keyHash()": "2515",
						"s_subscriptionId()": "2492",
						"s_vrfCoordinator()": "infinite",
						"setCoordinator(address)": "infinite",
						"transferOwnership(address)": "30733",
						"vrfCoordinator()": "2575"
					},
					"internal": {
						"_getHouseName(uint256)": "infinite",
						"fulfillRandomWords(uint256,uint256[] calldata)": "infinite"
					}
				},
				"methodIdentifiers": {
					"acceptOwnership()": "79ba5097",
					"callbackGasLimit()": "24f74697",
					"house(address)": "b1cad5e3",
					"length()": "1f7b6d32",
					"numWords()": "7ccfd7fc",
					"owner()": "8da5cb5b",
					"random_num()": "edde8349",
					"rawFulfillRandomWords(uint256,uint256[])": "1fe543e3",
					"requestConfirmations()": "b0fb162f",
					"rollDice(address)": "dd02d9e5",
					"s_keyHash()": "45bb327b",
					"s_subscriptionId()": "8ac00021",
					"s_vrfCoordinator()": "9eccacf6",
					"setCoordinator(address)": "8ea98117",
					"transferOwnership(address)": "f2fde38b",
					"vrfCoordinator()": "a3e56fa8"
				}
			},
			"storageLayout": {
				"storage": [
					{
						"astId": 29,
						"contract": "contract/contracts/4_random.sol:VRFD20",
						"label": "s_owner",
						"offset": 0,
						"slot": "0",
						"type": "t_address"
					},
					{
						"astId": 31,
						"contract": "contract/contracts/4_random.sol:VRFD20",
						"label": "s_pendingOwner",
						"offset": 0,
						"slot": "1",
						"type": "t_address"
					},
					{
						"astId": 231,
						"contract": "contract/contracts/4_random.sol:VRFD20",
						"label": "s_vrfCoordinator",
						"offset": 0,
						"slot": "2",
						"type": "t_contract(IVRFCoordinatorV2Plus)380"
					},
					{
						"astId": 542,
						"contract": "contract/contracts/4_random.sol:VRFD20",
						"label": "s_subscriptionId",
						"offset": 0,
						"slot": "3",
						"type": "t_uint256"
					},
					{
						"astId": 545,
						"contract": "contract/contracts/4_random.sol:VRFD20",
						"label": "vrfCoordinator",
						"offset": 0,
						"slot": "4",
						"type": "t_address"
					},
					{
						"astId": 548,
						"contract": "contract/contracts/4_random.sol:VRFD20",
						"label": "s_keyHash",
						"offset": 0,
						"slot": "5",
						"type": "t_bytes32"
					},
					{
						"astId": 551,
						"contract": "contract/contracts/4_random.sol:VRFD20",
						"label": "callbackGasLimit",
						"offset": 0,
						"slot": "6",
						"type": "t_uint32"
					},
					{
						"astId": 554,
						"contract": "contract/contracts/4_random.sol:VRFD20",
						"label": "requestConfirmations",
						"offset": 4,
						"slot": "6",
						"type": "t_uint16"
					},
					{
						"astId": 557,
						"contract": "contract/contracts/4_random.sol:VRFD20",
						"label": "numWords",
						"offset": 6,
						"slot": "6",
						"type": "t_uint32"
					},
					{
						"astId": 560,
						"contract": "contract/contracts/4_random.sol:VRFD20",
						"label": "length",
						"offset": 0,
						"slot": "7",
						"type": "t_uint256"
					},
					{
						"astId": 563,
						"contract": "contract/contracts/4_random.sol:VRFD20",
						"label": "random_num",
						"offset": 0,
						"slot": "8",
						"type": "t_uint256"
					},
					{
						"astId": 567,
						"contract": "contract/contracts/4_random.sol:VRFD20",
						"label": "s_rollers",
						"offset": 0,
						"slot": "9",
						"type": "t_mapping(t_uint256,t_address)"
					},
					{
						"astId": 571,
						"contract": "contract/contracts/4_random.sol:VRFD20",
						"label": "s_results",
						"offset": 0,
						"slot": "10",
						"type": "t_mapping(t_address,t_uint256)"
					}
				],
				"types": {
					"t_address": {
						"encoding": "inplace",
						"label": "address",
						"numberOfBytes": "20"
					},
					"t_bytes32": {
						"encoding": "inplace",
						"label": "bytes32",
						"numberOfBytes": "32"
					},
					"t_contract(IVRFCoordinatorV2Plus)380": {
						"encoding": "inplace",
						"label": "contract IVRFCoordinatorV2Plus",
						"numberOfBytes": "20"
					},
					"t_mapping(t_address,t_uint256)": {
						"encoding": "mapping",
						"key": "t_address",
						"label": "mapping(address => uint256)",
						"numberOfBytes": "32",
						"value": "t_uint256"
					},
					"t_mapping(t_uint256,t_address)": {
						"encoding": "mapping",
						"key": "t_uint256",
						"label": "mapping(uint256 => address)",
						"numberOfBytes": "32",
						"value": "t_address"
					},
					"t_uint16": {
						"encoding": "inplace",
						"label": "uint16",
						"numberOfBytes": "2"
					},
					"t_uint256": {
						"encoding": "inplace",
						"label": "uint256",
						"numberOfBytes": "32"
					},
					"t_uint32": {
						"encoding": "inplace",
						"label": "uint32",
						"numberOfBytes": "4"
					}
				}
			},
			"userdoc": {
				"kind": "user",
				"methods": {
					"acceptOwnership()": {
						"notice": "Allows an ownership transfer to be completed by the recipient."
					},
					"house(address)": {
						"notice": "Get the house assigned to the player once the address has rolled"
					},
					"owner()": {
						"notice": "Get the current owner"
					},
					"rollDice(address)": {
						"notice": "Requests randomness"
					},
					"setCoordinator(address)": {
						"notice": "Sets the VRF Coordinator addressThis method should only be callable by the coordinator or contract owner"
					},
					"transferOwnership(address)": {
						"notice": "Allows an owner to begin transferring ownership to a new address."
					}
				},
				"notice": "THIS IS AN EXAMPLE CONTRACT THAT USES HARDCODED VALUES FOR CLARITY. THIS IS AN EXAMPLE CONTRACT THAT USES UN-AUDITED CODE. DO NOT USE THIS CODE IN PRODUCTION.",
				"version": 1
			}
		}
	}
}